:0410000013EF08F0F2
:06100800548253EF14F0C6
:101018005480E0CFCEF0CEC0E0FF54901000F0EF47
:1010280014F0003011B410FA10E610D2103710097D
:10103800027D00040100C03209040000010202011F
:1010480003052400100104240202052406000105FA
:1010580024010001070581030800020904010002B8
:101068000A0000030705020210000007058202407B
:101078000000090402000102020104052400100115
:1010880004240202052406020305240100030705BF
:10109800830308000209040300020A00000407058C
:1010A8000402100000070584021000001E034E0011
:1010B80075006D00610074006F0020005300790016
:1010C8007300740065006D0073001403460050003F
:1010D800470041002000550041005200540014030D
:1010E800530050004900200046006C006100730066
:1010F800680012034D0069006D0061007300200054
:10110800560032001201000202000008192A0210DB
:101118000001010200016D696D61733E2000312EEE
:10112800300D0A003F0D0A000403090443150600A8
:101138006AD904EC17F00001AE6B78D9A36B010EE5
:10114800A26F906B916B926B936B8C6B8D6B8E6BAC
:101158008F6B4E0E0001D86F010ED96F400EDA6FFB
:10116800000E86EC0DF0AD6FAD5112E1AE51F1E11C
:10117800A451A65DE06FA551A759E16FE15103E1C4
:10118800650EE05DE6E33FD904EC17F04FD9E1D7EF
:10119800AE5105E1C6EC15F0010E0001AE6F030E6D
:1011A80001014E1901E11BD1020E4E1907E04E054F
:1011B80001E001D1050E0001AD65FDD000018C51A3
:1011C800E06F8D51E16FE26BE36BE011E211E31127
:1011D8000BE1060E6BEC17F07BEC17F00BD9D80E71
:1011E800B1EC16F062EC17F0AC6B020E01014E196F
:1011F80005E000019D6B800E9C6F04D0040E000179
:101208009D6F9C6B9CC09AF09DC09BF0A06BA16BDE
:101218009E6B9F6B90C08CF091C08DF092C08EF049
:1012280093C08FF0AA6B0101501D4F1908E100010E
:10123800A25101014F1903E1010E0001AC6F510EDB
:101248000001966F010E976F030EAD5FAD5134E04C
:10125800AD519A5D000E9B5902E29AC0ADF0AD51B6
:101268009A5F000E9B5BADC0E4F024D0AA5102E067
:101278008C510FE1AA5102E062EC17F0010EAA6F3F
:10128800060E6BEC17F07BEC17F0B4D8020EB1EC3D
:1012980016F0D6D8C5D84CEC15F0CDD8C1D873EC1B
:1012A80017F00001964B972BE4078C2B000E8D232B
:1012B8008E238F23E451DAE1AA5103E062EC17F0A0
:1012C800AA6B9A519B1118E14E0EAD25D96EDA6AB8
:1012D800010EDA22DF50A06FA16B4F0EAD25D96E3B
:1012E800DA6A010EDA22DF50E06FA051E16FE051B7
:1012F800A06FE1C0A1F01FD0400EAB6F020E9A257F
:10130800E06F000E9B21E16FE15106E1400EE05DC8
:1013180003E29A51020FAB6F4E0ED86F010ED96FD0
:10132800ABC0DAF0000E86EC0DF0AD6F4E0E966F86
:10133800010E976F8BD7AC5148E09E51A01945E13B
:101348009F51A11942E1ED5121E09E6B9F6B90C026
:10135800D1F091C0D2F092C0D3F093C0D4F0030E74
:10136800B1EC16F00001986B996B09D069D8000EA2
:1013780073EC17F04CEC15F05ED8984B992B9C51F8
:10138800985D9D519959F2E37BEC17F000019E514D
:10139800A0191BE19F51A11918E1A24BA32B9C5145
:1013A80090279D519123000E92239323360E32D815
:1013B80004EC17F0CED6040E01014E1906E1360EE4
:1013C800000128D804EC17F00AD0350E0001DD6FB3
:1013D800110EDE6F010EDF6F04EC17F0BAD6C2EC07
:1013E80016F0270E0001E06FF50EE82EFED7E02F6D
:1013F800FCD712008CC0D1F08DC0D2F08EC0D3F0D3
:101408008FC0D4F01200340EDD6F110EDE6F010EA6
:10141800DF6F010CDD6F110EDE6F010EDF6F010C47
:1014280096C0D9FF97C0DAFFDF501200A6C0A4F01B
:10143800A7C0A5F01200D0C09EF0D1C09FF0120046
:101448009EC0D0F09FC0D1F01200A0940001DC6BC8
:10145800DC51BBD8DE50DE100CE0DC51B6D8DECF54
:10146800D8F0DDCFD9F0D8C0D9FFD9C0DAFFDFBEB8
:101478009DD00001DC51A1D8030EDE1803E1DC5138
:101488009CD8DF6ADC5199D8DF5001E18FD0DC515C
:1014980094D8020EDE1811E1010ECF6FD06BD16B1C
:1014A800D26BDC51DAD8CAEC0FF0DC518ED8E3D815
:1014B800DC5183D8030EDF6E79D0DC517ED8DE0490
:1014C80075E1DC51C2D8DCD8E16E010EF420E26E81
:1014D800DE50E65C04E2D4D8D96E010E03D0C6D83B
:1014E800D96E010EF420DA6EDF50DB6FDC51ADD817
:1014F800BDD8E16E010EF420E26EE750D86FDB51E3
:10150800D85DDF6EDC51E7EC0BF0DC51270D090EDE
:10151800F324E16E010EF420E26EDECFE6FFDDCFAC
:10152800E5FFDBC0DAF0DC5198EC15F0DF500CE099
:1015380019D0DC5185D86BD8F76403D00800F55072
:1015480002D0DCEC0EF049D8DA510EE0F2D7DC51CB
:1015580077D85DD8F76403D00800F55002D0DCECEA
:101568000EF03BD8DA51F3E1DC516FD8DF500EE1D1
:10157800DC51EFEC0BF0DB51DE1804E1DC511DD837
:10158800020E03D0DC5119D8030EDF6E010ECF6FA7
:10159800DC51E7EC0BF001EC0EF0DBC0D2F0DC51D3
:1015A8005CD8CAEC0FF0DC5110D865D80001DC2BF0
:1015B800010EDC654DD7A084010C270D050EF32420
:1015C800D96E010EF420DA6E1200270D120EF324E4
:1015D800D96E010EF420DA6E1200DF6E0001DC51C4
:1015E800270D090EF324D96E010EF420DA6EDE2AD7
:1015F800000EDD22DC51270D060EF324D96E010EF4
:10160800F420DA6EDE2A000EDD22DA07000C010E65
:10161800F420DA6EDECFF6FFDECFF7FFDC51270DC0
:10162800090EF324D96E010EF420DA6EDECFD8F05D
:10163800DDCFD9F0D8C0D9FFD9C0DAFF020E120029
:10164800270D060EF324D96E1200270D0C0EF32475
:10165800D96E010EF420DA6E1200270D030EF32462
:10166800D96E010EF420DA6EDF501200DC51270D1E
:101678000C0EF3241200CFC0DEFFD0C0DDFF120035
:10168800DC51270D0E0EF3241200116E1150B7D83D
:101698000DC0DFFF1150270D020EF324D96E010E85
:1016A800F420DA6E0EC0DFFF1150A1D80FC0DFFFA3
:1016B8001150270D030EF324D96E010EF420DA6EB3
:1016C80010C0DFFF115012E111507DD8800EDE6E80
:1016D800020EDD6E115067D8E00EDE6E020EDD6E72
:1016E800115069D880D877D8400E13D0110412E170
:1016F800115069D8D00EDE6E020EDD6E115053D82F
:10170800C00EDE6E020EDD6E115055D86CD863D84F
:10171800100EDF6E1150270D1D0EF324D96E010E29
:10172800F420DA6EDE6A4B0EDE6E77D8270D210EB6
:10173800F324D96E010E6BD8220EF324D96E010E54
:1017480066D8230EF324D96E010EF420DA6E080E43
:10175800DF6E1150270D040EF324D96E010EF4200C
:10176800DA6EDF6A1A0E096E0E500CEC16F01E0EB9
:10177800096E10500CEC16F0016A115014D856D8A6
:10178800115019D8DF50046E10508BEC10F0115026
:10179800E9EC0DF046D81150E9EC0AF03ED8E1EC3E
:1017A8000AF0DF6A000C270D160EF324D96E010E1D
:1017B800F420DA6E1200270D0F0EF324D96E010EF5
:1017C800F420DA6E1200270D140EF324D96E010EE0
:1017D800F420DA6E1200270D0E0EF324D96E010ED6
:1017E800F420DA6E1200100EDF6E11501200270D71
:1017F800010EF324D96E010EF420DA6E1200270DC3
:10180800000EF324D96E010EF420DA6E1200F420D3
:10181800DA6EDF6A1150270D1200DE6ADD6A115098
:10182800120001C0DEFF02C0DDFF1200DECF02F0B1
:10183800DDCF03F01200020152050DE150511F0BDC
:101848000AE100017F8F030E0201511903E1010E25
:10185800436E01D0436A5251D8A4120050511F0B55
:10186800020AD8A4120054510F0BD8B412005451D4
:101878000F0B1B6E050E1B60050C200E0001B51921
:10188800D8A412007F8F020154BF07D054510F0B08
:1018980011EC10F08BD8820F06D054510F0B0BECC3
:1018A80010F084D8870FD96EDA6ADF501F6E1FB028
:1018B80003D0FB0E201602D0040E2012215054BF74
:1018C80003D07DD86A0F02D07AD8600FD96EDA6A51
:1018D80020C0DEFF21C0DDFF030E511914E156D8E8
:1018E800DFAE0BD054BF03D06FD8820F02D06CD8B4
:1018F800870FD96EDA6A0001DF8248D8000EDB84D0
:1019080045D8DB8E000C040E201A21503FD8DFAEDC
:101918000AD03CD87F0EDF1639D8000EDB8C3BD8B6
:101928006DEC12F003D032D8000EDB8C040E201AB6
:1019380021501FB203D02AD8DFAE13D0020154BF02
:1019480003D042D8820F02D03FD8870FD96EDA6A07
:101958000001DF921BD83B0EDF161DD86DEC12F08C
:1019680003D014D83B0EDF16020154510F0B1B6E27
:101978001C6A530E1B241D6E0F0E1C201E6E1DC0EC
:10198800D9FF1EC0DAFFFE0EDF16FE0C20C0D9FFFD
:1019980021C0DAFF1200146A050E136E20C015F07C
:1019A80021C016F0186A020E176E020CDECF20F066
:1019B800DDCF21F054510F0B1B6E1B5012005451F8
:1019C8000F0B020DF350120054510F0B1B6E1B50DE
:1019D80012000101055101E0120000019451951116
:1019E8000DE11E0EDD6F110EDE6F070EDF6F04ECCA
:1019F80017F00001956B010E946F010C8E0EEB1918
:101A08000AE1010EEC1907E14E0EEB6F010EEC6FC7
:101A1800946B956B1200EBC0D8F0ECC0D9F0EB5189
:101A28004E08400FDA6F000E86EC0DF0A86FA85133
:101A380001E11200E96BEA6BA96B10D057D80D0EC3
:101A4800DE1804E053D80A0EDE1807E1A951EB2589
:101A5800E96F000EEC21EA6F04D0A92BA851A95D0B
:101A6800EDE3E951EA112BE03AD8DF50A96F45D8E8
:101A78000D0EDF6E34D80A0EDF6EEBC0DDF0ECC061
:101A8800DEF0EB51E95D020FDF6F04EC17F035D89B
:101A9800DF6A000124D8A9C0DFFF4E0EE56F010EF2
:101AA800E66F4E0EE86FE851E95DE76F89EC14F0D8
:101AB8004E0E0001EB6F010EEC6FA86BA9D7EBC0BF
:101AC800CFF0ECC0D0F0A8C0D1F0000E76EC15F045
:101AD800A851010DF350EB27F450EC23120020EE2F
:101AE80001F0E951D926EA51DA221200A951EB2571
:101AF800D96E000EEC21DA6E1200E9C0D9FFEAC0F7
:101B0800DAFF1200DF6F000168D8DF6ADF515DD8A5
:101B1800DE50DE100CE0DF5158D8DECFDBF0DDCF31
:101B2800DCF0DBC0D9FFDCC0DAFFDFBE4AD0000141
:101B3800DF514BD85BD8DA51E65C05E2DF5145D876
:101B480055D8E750DA6F49D8DF6A24D046D8DF5035
:101B5800DB6FDF51D7EC0BF0DECFDCF0DDCFDDF053
:101B6800DB51DC25D96E000EDD21DA6EDF51270D41
:101B7800040EF324E16E010EF420E26EE750DE6FEE
:101B8800DE51D825E16E000ED921E26EDFCFE7FFE6
:101B980024D8DF2A22D8DA51DE5CD8E3CF6BDF51B4
:101BA800D7EC0BF02AD8DF51DFEC0BF0DF50D26F07
:101BB800DF5131EC0BF0CAEC0FF0DF5106D83FECE7
:101BC8000BF000010AD8DF501200270D100EF32485
:101BD800D96E010EF420DA6E1200DF51270D040EC3
:101BE800F324D96E010EF420DA6E120010EE01F023
:101BF800DE50E126DD50E2221200DECFD0F0DDCF4C
:101C0800D1F012000001B50507E164BA05D0626A97
:101C180060806088020EB56F62B460A403D06294DD
:101C280013EC17F064A202D0A194120062B060A075
:101C380006D0FAEC0EF0A084040EB56F629062B87C
:101C480060A802D0D3EC16F062AC13D060AC07D019
:101C5800146A730E136E156A50D86DEC12F0629CFC
:101C68004BEC17F03F5001E03F063F5002E1ABEC70
:101C780013F062BA60AA02D041EC16F062B260A218
:101C880009D07F0E146E1368156A37D86DEC12F000
:101C98000F015F6B040E0001B56102D0A194040C22
:101CA80060A629D0246A62A626D063CF52F05230AB
:101CB800E832E8320F0B416E629652B403D04150BD
:101CC800820F02D04150870FD96EDA6A0001DF70A7
:101CD800415003E1E5EC13F00AD0146A720E136E5A
:101CE800520E156E166A186A176A6DEC12F0242ADD
:101CF800030E2464D8D7A1941200166A186A010E3C
:101D0800176E010C800E02015019D8A41200C00EE3
:101D180000017F6F44D00C0E00017C6F110E7D6FA7
:101D2800816B120E806F120C52515DE15251020DFF
:101D3800350EF324F66E100E4DD8020E00013ED873
:101D4800F76403D00800F55001D032D80001806F45
:101D5800030E34D8F76403D00800F55001D028D812
:101D68000001816F12003FD0050E52613CD05251E4
:101D7800020D2B0EF324F66E100E2CD87CC0F6FF45
:101D88007DC0F7FFF86A020EF76403D00800F5502B
:101D980001D00ED80001806F816B120024D002019F
:101DA8005351010AB8E0030ABFE0010ADDE01BD085
:101DB800F6CFE1FFF7CFE2FFE75012007C25016E76
:101DC800000E7D21026E01C0F6FF02C0F7FFF86A1F
:101DD800020E1200F420F76E0900F5CF7CF00A001D
:101DE800F5CF7DF0120000017F6B12005DD87EEC0C
:101DF80011F09CEC16F039EC16F0096A095048D835
:101E0800092A130E0964FAD72FD8096A09500BEC6E
:101E180010F0DE6ADD6A095011EC10F0DE6ADD6A46
:101E2800095048D809504BD8092A040E0964EED73E
:101E3800080E000100D0606F020E616F160E0F01D0
:101E4800536F020E0201036F500E026F080E016FEE
:101E5800040E006F008F536A2F6A306A316A326A43
:101E6800396A0001B56B1200648C0F015C6B6498D1
:101E7800649C629600017F6B776B786B796B62B6B6
:101E8800F8D7010E3D6E3C6E3B6A3A6A426A120010
:101E9800040D000EF324D96E020EF420DA6EDE6A09
:101EA800DE6ADE6ADD6A1200A0940F015F6B626A67
:101EB800536B1200870FD96EDA6ADF6A1200820F3D
:101EC800D96EDA6ADF6A1200020150511F0BE80668
:101ED80001E012005039E832030BE80601E0120075
:101EE800026A025003EC0CF0DE500201541934E08F
:101EF8000250FBEC0BF0DE50541938E12DD041D8DC
:101F0800816B080E806F7F8125D03BD823D056C2C5
:101F180078F057C279F02FD8746F010EF420756FDE
:101F28007A6B7B6B778F22D026D87C6F010EF420DA
:101F38007D6F816B070E806FC10E7F6F17D00250C7
:101F4800270D180EF324D96E010EF420DA6E52C252
:101F5800DFFF00017F8F0AD05151D1E0010AD5E09F
:101F6800210AD5E0010AE0E0030AE9E0022A010EAD
:101F78000264B7D7010C0250270D1D0EF32400018F
:101F88001200460E00017C6F7D6B1200D56F0001B8
:101F9800CF5104E0D551D9EC10F003D0D551D5EC90
:101FA80010F0D96EDA6ADECFD6F0DDCFD7F0D65191
:101FB800D71103E1CF6BD06B120020EE02F042D8AC
:101FC800D0C0DEFFD1C0DDFF20EE01F03BD8D2C08B
:101FD800DFFF33D8400EDF1630D8000EDB862DD851
:101FE800DB8ECF5105E0D55112D81DD8600F04D033
:101FF800D55113D818D86A0FD96EDA6AD3C0DEFF64
:10200800D4C0DDFFD6C0CFF0D7C0D0F01200020D8B
:10201800F350600FD96EDA6A1200020DF3506A0F9E
:10202800D96EDA6A1200DECFD3F0DDCFD4F0040E19
:10203800D31BD551020DF3501200D6C0D9FFD7C01B
:10204800DAFF1200D651D926D751DA22120020EE33
:1020580001F0E0EC13F0DF50026E0250785D000EE4
:10206800795902E278C002F00250785F000E795B7D
:10207800016A0FD0580E0124D96EDA6A020EDA22EC
:1020880074C0E1FF75C0E2FFDFCFE7FF744B752B2B
:10209800012A0250015CEEE37851791112E020EE3A
:1020A80001F019D81DD817D82DD856EC16F0DFBC7A
:1020B80004D023D8480E19D8000C1FD8080E15D8FC
:1020C800000CC3EC11F0040E10D8779F3E50D8B422
:1020D800ABEC13F012003550D9263650DA22120034
:1020E800080EDF6E20EE02F0080CDF6E35C0D9FF57
:1020F80036C0DAFF000EDB8E000C35C0D9FF36C0C3
:10210800DAFF1200580EDE6E020EDD6E020C076E4C
:10211800015003E0075049D802D0075042D8D96E81
:10212800DA6ADECF08F0DDCF09F00850091003E1C4
:10213800016A026A120020EE02F040D802C0DEFFF7
:1021480003C0DDFF20EE01F039D804C0DFFF31D82D
:10215800400EDF162ED8000EDB862BD8DB8E015002
:1021680006E007500BEC10F012D8600F05D00750AE
:1021780011EC10F00CD86A0FD96EDA6A05C0DEFFD0
:1021880006C0DDFF08C001F009C002F01200DECF72
:1021980005F0DDCF06F0040E051A0750020DF350C6
:1021A8001200020DF3506A0F1200020DF350600F77
:1021B800120008C0D9FF09C0DAFF12000850D9265A
:1021C8000950DA221200080E016E000181510DE15A
:1021D800080E805D0AE280C001F0455002E1010E60
:1021E80003D0450402E1020E456E0150805F000EE7
:1021F800815B20EE01F02ED801C0DFFF580E336E50
:10220800020E346E7FB11AD00BD07CC0F6FF19D8FD
:10221800F76403D00800F55002D0DCEC0EF01FD8AC
:102228000150F3E112007CC0F6FF0BD8F76403D02D
:102238000800F55002D0DCEC0EF011D80150F3E1A3
:1022480012007DC0F7FFF86A33C0D9FF34C0DAFF47
:10225800020E12006051D9266151DA221200DF6E97
:1022680000017C4B7D2B334A342A01061200000101
:102278007F8F40D89CEC16F0016A020E026E046A49
:10228800036A066A500E056E9CEC16F0648C1B6A95
:102298001B505EEC0FF01B5063EC0FF01B2A040E72
:1022A8001B64F6D74E0E016E026A046A036A066A58
:1022B800040E056E9CEC16F0649C080E0001606F1D
:1022C800020E616F000E376E020E1ED852C253F016
:1022D800535003E1100EB56F100C146A010E136E03
:1022E800530E156E81EC0EF06DEC12F0200E00010D
:1022F800B56F200C540E016E0F0E026E046A036A4D
:10230800066A040E056E040C386E37C035F038C006
:1023180036F01200649800017FBF14D077AF09D05F
:10232800020E446E3A5002E11FEC15F03C6A3D6A19
:10233800120025D80C0E79EC10F05CEC12F0040EAB
:1023480054EF12F0020150AF0DD0010E446E3B5015
:1023580002E11FEC15F03C6A3D6A3E50D8A4120019
:10236800ABEF13F0020E446E0AD8040E79EC10F0AD
:102378003C6A3D6A3E5002E1ABEF13F0120020EEDA
:1023880001F03550D9263650DA22080EDF6E20EEDD
:1023980002F03550D9263650DA22500EDE6E020E83
:1023A800DD6E35C0D9FF36C0DAFF020C02015039A4
:1023B800E832030B21E0120000017F8F080EB56F91
:1023C800080C530E00017C6F37D054514E0F226E0B
:1023D80022C07CF0000130D000017F8F02015451EF
:1023E8004E0FD96EDA6A52C2DFFF1200146A020E6B
:1023F800DEEC16F06DEF12F0515102E1F4EF12F03D
:10240800010A02E11FEF0CF0020A02E11FEF0CF0D3
:10241800060AD2E0030A02E186EF0EF0010AE6E0BE
:102428000F0ACFE0010A02E13BEF11F0030ACDE009
:10243800010AD2E0070A12007D6B7F81010E806FCE
:102448007F8F010C35D8000EDFBC010E026E040E22
:10245800601B6151080EB5190BE1020152517F0B47
:102468000F015C6F5C51100ED8B4040E0001B56FFB
:10247800440412E128D821D8E7EC10F0020E4518E0
:1024880003E116D8040E0CD0025003E111D8480E0F
:1024980007D00ED8080E04D077BF779F446A120081
:1024A800DF6E60C0D9FF61C0DAFF000EDB8E000C62
:1024B80060C0D9FF61C0DAFF1200DA22580EDE6E62
:1024C800020EDD6E020C20EE02F06051D926615139
:1024D800120013C00AF014C00BF015C00CF016C09F
:1024E8000DF017C00EF018C00FF071EC13F013D0F8
:1024F8000D6A010E0E6E0F6E020E106E000E49EC84
:102508000BF0020E0D6E030E0E6E0F6E040E106EA3
:10251800010E49EF0BF013C019F014C01AF01A504D
:1025280004E07F0AD8A4120017D01950010AE0E08D
:10253800030AD8B41200010A02E168EF0FF0060A94
:10254800D8B41200770AD8B41200010AD8B412001D
:10255800070AD8A4010A1200191C12009EAA14D056
:10256800ABA207D00001B26BAB98AECFB6F0AB8888
:102578000AD00F0E0001B26106D0B251B60FD96E63
:10258800DA6AAECFDFFFB22B0001B2510DE00101D4
:102598002C510AE1B60E0001CF6FD06BB2C0D1F05A
:1025A800010E76EC15F0B26B0001B351B45D0CE28C
:1025B800ACA212008E0EB425D96EDA6A010EDA22A8
:1025C800DF50AD6EB42B12008E0ED86F010ED96F8E
:1025D800100EDA6F010E86EC0DF0B36FB46B1200BB
:1025E8000201586B596B25D000017F8F430428E105
:1025F8000201588325D000017F8F22D000017F8FF0
:10260800020154BF04D0E3EC0CF06A0F03D0E3ECF2
:102618000CF0600FD96EDA6ADECF01F0DDCF02F080
:1026280019D8DFAE0DD016D8DFA40AD0010E586F26
:1026380007D050511F0BD8E0010ADDE0030ADEE0A5
:1026480000017FAF1200580E7C6F020E7D6F7F81F4
:10265800806F020C01C0D9FF02C0DAFF1200066EBB
:10266800076A020E086E0150026E036AD89002369D
:1026780003360650046E056A24D802500426035017
:1026880005221FD8045007260550082221D8DF9EAE
:10269800015004E10650D5EC10F003D00650D9ECF7
:1026A80010F0D96EDA6A07C0DEFF08C0DDFF10D867
:1026B800DF9C20EE04F00750D9260850DA22DF8C80
:1026C8001200D89004360536D89004360536120024
:1026D80007C0D9FF08C0DAFF1200050E0A180B1050
:1026E800D8A41200126A1250E9EC0DF0DE500C1852
:1026F80018E1DE500D1815E1016A1250D7EC0BF005
:102708001AEC0CF01250DFEC0BF0DF50046E125094
:1027180031EC0BF08BEC10F01250E9EC0DF015ECED
:102728000CF01250E9EC0AF0DE500C180BE1DE5008
:102738000D1808E11250E1EC0AF0DF6A125029EC9A
:102748000BF0DF6A122A010E1264CDD7010C3D503E
:10275800D8A41200010E3D6E3C50D8A41200010E00
:102768003C6E020E44180BE1000120EE01F02EEC45
:1027780011F0DF6A5CEC12F0480E54EF12F04404DA
:10278800D8A41200406A20EE01F016D874EC10F0BC
:1027980013D8500EDE6E020EDD6E56EC16F0040EE7
:1027A800DF6E56EC16F0000EDB8E010E406EC3ECA9
:1027B80011F0800EDF6E800C3750D9263850DA229F
:1027C80012002D0E3F6E52C023F0FD0E23162AE193
:1027D800D89052303F0B040D000EF324376E020ED2
:1027E800F42088EC11F0040E351A365056EC16F029
:1027F800DF30E8320F0B0D0A02E0F4EF16F0500E4E
:10280800016E020E026E20EE02F0E0EC13F0DECF55
:1028180003F0DDCF04F0066A080E056EEBEC15F048
:10282800A0EF15F05250FD0B040AD8B426EC12F0B4
:102838001200C6EC15F09F0E6BEC17F00D0E0001A0
:10284800CC6F0A0ECD6FB16B000E73EC17F0000160
:10285800B06FB151020DF350C60FD96EDA6AB039B4
:102868000F0B22EC17F0DF6EB151020DF350C70FBA
:10287800D96EDA6AB0510F0B22EC17F0DF6EB12B6C
:10288800020EB165E1D77BEC17F0C2EC16F0C60E6C
:102898000001DD6FDE6B080EDF6F04EF17F0E1CF8C
:1028A80025F0E2CF26F0D9CF27F0DACF28F0F3CF02
:1028B80029F0F4CF2AF0F6CF2BF0F7CF2CF0F8CF91
:1028C8002DF0F5CF2EF0A1A403D006EC0EF0A194C4
:1028D8009DB09EA004D09E900001A64BA72B2EC0B1
:1028E800F5FF2DC0F8FF2CC0F7FF2BC0F6FF2AC05C
:1028F800F4FF29C0F3FF28C0DAFF27C0D9FF26C09C
:10290800E2FF25C0E1FF5492110013D0ED6B1200D5
:10291800010EED6F010C260EDD6F110EDE6F050E38
:1029280005D02C0EDD6F110EDE6F030EDF6F04EF86
:1029380017F0E5C0D9FFE6C0DAFFDF50300A02E140
:10294800C2EF16F0010A02E1C6EF15F0720AE0E0E4
:10295800200ADCE0060A02E130EF17F0030A02E180
:102968009CEF08F00F0A02E11DEF14F01F0AD3E0F4
:10297800D8D758EC0FF0540E0001CF6F0F0ED06F60
:10298800D26BD16BD46B040ED36F72EC16F039ECAA
:1029980016F00001D76BD7514CEC0FF0D72B130E64
:1029A800D765F9D738EC0FF0D76BD7510BEC10F08F
:1029B800DE6ADD6AD75111EC10F0DE6ADD6AD751A4
:1029C8005EEC0FF0D75163EC0FF0D72B040ED765F0
:1029D800ECD7080E1FEF0FF0FE0EF66E2E0EF76EF8
:1029E800000EF86E00EEE9F010EE05F00900F5CFE4
:1029F800EEFFE550E150FAE101EE00F09E0EEE6ABE
:102A0800E806FDE100EE60F06E0EEE6AE806FDE114
:102A180000EE2FF0250EEE6AE806FDE102EE80F0EA
:102A2800700EEE6AE806FDE154905492000EF86EBE
:102A380000015BEF16F03B6A3A6A020E441810E197
:102A480020EE01F06FEC10F074EC10F06FEC10F069
:102A580086EC10F081EC10F0480E79EC10F0000CC8
:102A6800000180510201565D000181510201575950
:102A780004E256C280F057C281F0E7EC10F067EC30
:102A880012F061EC12F05CEC12F0480E54EF12F008
:102A98000001D66F100ED56F210ED46FD651D36FAB
:102AA800D26BD251D01BD351D11BAF6BD1AF0ED04B
:102AB800D0C0D2F0D1C0D3F0D890D237D337D451C8
:102AC800D219D06FD551D319D16F03D0D890D03740
:102AD800D137AF2B070EAF65E9D7D0C0D0F0D1C042
:102AE800D1F0070CD26FA0940001D251E1EC0AF0AA
:102AF800DF5018E1D25124EC0BF0010EF420DA6E0D
:102B0800CFC0DEFFD0C0DDFFD25129EC0BF0D1C021
:102B1800DFFFD25109D8010EDF6ED251E1EC0AF085
:102B2800010EDF6EA0841200270D0D0EF324D96E5E
:102B3800010EF420DA6E1200456A3E6A3B6A3A6A70
:102B4800406A446A5CEC12F017D85CEC12F014D8B6
:102B580081EC10F07F0EDF167F6B806B816B776BDB
:102B6800786B796BDAEC11F0146A030EDEEC16F070
:102B78006DEC12F08EEF11F07F0EDF16040E601B65
:102B88006151120094928B92040E0001CF6FE40EF3
:102B9800E82EFED7CF2FFCD700F07F927F94949E2B
:102BA8009388939C94948B84C79EC78CC698C65070
:102BB800F00B0109C66E9D96C68A040E0001CF6F00
:102BC800E40EE82EFED7CF2FFCD700F0120003C08A
:102BD80009F004C00AF001C007F002C008F010D0E4
:102BE80009C0D9FF0AC0DAFFDF500B6E094A0A2A6A
:102BF80007C0D9FF08C0DAFF0BC0DFFF074A082A61
:102C08000506D8A006060528EBE10628E9E112002A
:102C18000C6E09A404D0016A0C5033EC13F009A21D
:102C280005D0010E016E0C5033EC13F0530E0C243A
:102C38000A6E0B6A0F0E0B220AC0D9FF0BC0DAFF0F
:102C480009C0DFFF0F0CB551D8A41200646A606A8E
:102C58000CD8D08EA284A084F28E01D0648664A69B
:102C6800FDD7010E0001B56F010C160E616E9F0EA7
:102C78000F015B6F7B0E606E7B0C0F0153A110D0B0
:102C880011D8800EDE180BE15CEC12F0840EDE1811
:102C980006E108D80C0EDF6E05D8000EDB8E5391C6
:102CA800629A120037C0D9FF38C0DAFF120058EC18
:102CB80017F0BDEC14F027EC16F087EC16F0E4ECF6
:102CC80016F01F0E0001B565FCD764B2FAD7EDEC1B
:102CD8000CF0B2EC12F029EC0AF0F3D7CFC0D5F023
:102CE800D0C0D6F008D0D5C0D9FFD6C0DAFFD1C041
:102CF800DFFFD54BD62BD307D8A0D407D329F3E1D0
:102D0800D429F1E11200948E93889484938C948052
:102D1800948A94928B92140E0001CF6F790EE82E4C
:102D2800FED7CF2FFCD700D000D08B829482120020
:102D380001C007F002C008F008D007C0D9FF08C0DA
:102D4800DAFF03C0DFFF074A082A0506D8A00606EF
:102D58000528F3E10628F1E112000001D56FD551ED
:102D68006BEC17F00001D35173EC17F00001D2514E
:102D780073EC17F00001D15173EF17F0C69A8B84EA
:102D8800948E9388938C9484040E0001CF6FE40E84
:102D9800E82EFED7CF2FFCD700F099EF16F060840D
:102DA80062986482010E426E396A146A750E02D8FE
:102DB8006DEF12F0136E156A166A186A176A120018
:102DC8007F96939E938AAC6AAC8AAC84AB6AAB8ECE
:102DD800AB88B86AB886670EAF6EB06AAE5012009C
:102DE800020E441802E12BEF10F0446A405006E14D
:102DF800C3EC11F00C0E79EC10F0000C406A1200D4
:102E0800DDC0CFF0DEC0D0F0DFC0D1F0000E76EC30
:102E180015F029EC0AF001010551FBE11200426AA4
:102E2800146A740EDEEC16F06DEC12F06492609485
:102E380001D0629462B4FDD7396A1200CF6F0A0ECE
:102E48000001CF6103D0CF51300F1200100ECF61B7
:102E58003F0CCF51570F1200C6EC15F0060E6BEC65
:102E680017F07BEC17F0C70E6BEC17F062EC17F05D
:102E7800C2EF16F0050E6BEC17F0000E73EC17F0AE
:102E88000001D16F7BEC17F00001D15112002F2AFD
:102E9800000E3022312232224250D8A41200392AA0
:102EA8003950D8B439681200CD80CF0ECD169D8028
:102EB800F28CD08E9F80F28E9E90CF0C8B8400D0A7
:102EC80000F03EEC17F0D26FD2A11200F8D7000143
:102ED800D06F8B9400D000F0D05173EF17F0000141
:102EE800CF6FCFC0C9FFC7A0FED7C95012008B84CF
:0B2EF80000D000F012004E014E01015E
:020000040020DA
:08000000FFFFFFFFFFFFFFFF00
:020000040030CA
:0E0000000032011EFF0081FF03C003E0034039
:00000001FF
