:0410000013EF08F0F2
:061008005482ACEF14F06D
:101018005480E0CFD0F0D0C0E0FF5490100049EFEA
:1010280015F0003011B410FA10E610D2103710097C
:10103800027D00040100C03209040000010202011F
:1010480003052400100104240202052406000105FA
:1010580024010001070581030800020904010002B8
:101068000A0000030705020210000007058202407B
:101078000000090402000102020104052400100115
:1010880004240202052406020305240100030705BF
:10109800830308000209040300020A00000407058C
:1010A8000402100000070584021000001E034E0011
:1010B80075006D00610074006F0020005300790016
:1010C8007300740065006D0073001403460050003F
:1010D800470041002000550041005200540014030D
:1010E800530050004900200046006C006100730066
:1010F800680012034D0069006D0061007300200054
:10110800560032001201000202000008192A0210DB
:101118000001010200016D696D61733E2000312EEE
:10112800300D0A003F0D0A000403090443150600A8
:101138008AD946EC17F00001B06B9CD9A56B010E5B
:10114800A46F906B916B926B936B4E0E0001DA6FEC
:10115800010EDB6F400EDC6F000EA0EC0DF0AF6FE0
:10116800AF5112E1B051F1E1A651A85DE26FA7516C
:10117800A959E36FE35103E1650EE25DE6E363D944
:1011880046EC17F077D9E1D7B05105E1F7EC15F047
:10119800010E0001B06F030E01014E1901E13FD1AC
:1011A800020E4E1907E04E0501E025D1050E00019B
:1011B800AF6521D100019051E26F9151E36FE46B6B
:1011C800E56BE211E411E5110BE1060E8FEC17F067
:1011D800DCEC17F02FD9D80EF3EC16F0C1EC17F0B1
:1011E800AE6B020E01014E1905E000019F6B800EE7
:1011F8009E6F04D0040E00019F6F9E6B9EC09CF0F2
:101208009FC09DF0A26BA36BA06BA16B90C08CF0EC
:1012180091C08DF092C08EF093C08FF00101501DE7
:101228004F1908E10001A45101014F1903E1010E12
:101238000001AE6F510E0001966F010E976F030EFD
:10124800AF5FAF5158E0AF519C5D000E9D5902E26F
:101258009CC0AFF0AE514BE096C0D1F097C0D2F031
:10126800AFC0D3F002D975EC14F0FAD8AFC0ACF027
:101278003CD0060E8FEC17F0DCEC17F00001E26BA7
:10128800010EE36F8C51E25D986FE351D8A0E3053E
:10129800996FACC0ADF0AD51985D000E995902E25E
:1012A80098C0ADF08CC0D3F08DC0D4F08EC0D5F00E
:1012B8008FC0D6F0020EF3EC16F096C0D1F097C0AE
:1012C800D2F0ADC0D3F0E2EC16F0C1EC17F0AD519E
:1012D8008C27000E8D238E238F23AD51010DF350E3
:1012E8009627F4509723AD51AC5FAC51C2E1AF5192
:1012F8009C5F000E9D5B9C519D1118E14E0EAF2521
:10130800D96EDA6A010EDA22DF50A26FA36B4F0E94
:10131800AF25D96EDA6A010EDA22DF50E26FA251E8
:10132800E36FE251A26FE3C0A3F01FD0400EAD6F90
:10133800020E9C25E26F000E9D21E36FE35106E14A
:10134800400EE25D03E29C51020FAD6F4E0EDA6F64
:10135800010EDB6FADC0DCF0000EA0EC0DF0AF6F3E
:101368004E0E966F010E976F6CD7AE514EE0A0519E
:10137800A2194BE1A151A31948E1EE5127E0A06B56
:10138800A16B58D8030EF3EC16F000019A6B9B6B17
:1013980016D04E0ED16F010ED26F400ED36F55ECA2
:1013A80017F04E0ED16F010ED26F400ED36F5DD87D
:1013B80075EC14F055D8400E9A27000E9B239E51C9
:1013C8009A5D9F519B59E5E3DCEC17F00001A051B1
:1013D800A2191BE1A151A31918E1A44BA52B9E51F9
:1013E80090279F519123000E92239323360E32D8D3
:1013F80046EC17F0AAD6040E01014E1906E1360E86
:10140800000128D846EC17F00AD0350E0001DF6F2E
:10141800110EE06F010EE16F46EC17F096D604EC62
:1014280017F0270E0001E26FF50EE82EFED7E22F27
:10143800FCD7120090C0D3F091C0D4F092C0D5F080
:1014480093C0D6F01200340EDF6F110EE06F010E5C
:10145800E16F010CDF6F110EE06F010EE16F010CFF
:10146800D1C0A0F0D2C0A1F01200A0C0D4F0A1C099
:10147800D5F01200A8C0A6F0A9C0A7F01200A09449
:101488000001DE6BDE51BBD8DE50DE100CE0DE5111
:10149800B6D8DECFDAF0DDCFDBF0DAC0D9FFDBC0BB
:1014A800DAFFDFBE9DD00001DE51A1D8030EDE18A1
:1014B80003E1DE519CD8DF6ADE5199D8DF5001E1A3
:1014C8008FD0DE5194D8020EDE1811E1010ED16FD3
:1014D800D26BD36BD46BDE51DAD8E4EC0FF0DE516B
:1014E8008ED8E3D8DE5183D8030EDF6E79D0DE5173
:1014F8007ED8DE0475E1DE51BDD8DCD8E16E010E80
:10150800F420E26EDE50E65C04E2D4D8D96E010E17
:1015180003D0C6D8D96E010EF420DA6EDF50DD6F25
:10152800DE51A8D8BDD8E16E010EF420E26EE75076
:10153800DA6FDD51DA5DDF6EDE5101EC0CF0DE5161
:10154800270D090EF324E16E010EF420E26EDECFC2
:10155800E6FFDDCFE5FFDDC0DCF0DE51C9EC15F0BC
:10156800DF500CE019D0DE518DD86BD8F76403D06A
:101578000800F55002D0F6EC0EF049D8DC510EE028
:10158800F2D7DE517FD85DD8F76403D00800F55054
:1015980002D0F6EC0EF03BD8DC51F3E1DE516AD80C
:1015A800DF500EE1DE5109EC0CF0DD51DE1804E1EC
:1015B800DE511DD8020E03D0DE5119D8030EDF6E9E
:1015C800010ED16FDE5101EC0CF01BEC0EF0DDC00A
:1015D800D4F0DE515CD8E4EC0FF0DE5110D865D8B9
:1015E8000001DE2B010EDE654DD7A084010C270D0E
:1015F800050EF324D96E010EF420DA6E1200270DC1
:10160800120EF324D96E010EF420DA6E1200DF6E8A
:101618000001DE51270D090EF324D96E010EF420C6
:10162800DA6EDE2A000EDD22DE51270D060EF324C7
:10163800D96E010EF420DA6EDE2A000EDD22DC07F8
:10164800000C010EF420DA6EDECFF6FFDECFF7FFD6
:10165800DE51270D090EF324D96E010EF420DA6E3F
:10166800DECFDAF0DDCFDBF0DAC0D9FFDBC0DAFF9E
:10167800020E1200270D0C0EF324D96E010EF42071
:10168800DA6E1200270D060EF324D96E1200270D0C
:10169800030EF324D96E010EF420DA6EDF50120027
:1016A800DE51270D0C0EF3241200D1C0DEFFD2C08C
:1016B800DDFF1200DE51270D0E0EF3241200116E0D
:1016C8001150AFD80DC0DFFF1150270D020EF324C3
:1016D800D96E010EF420DA6E0EC0DFFF1150A9D8C2
:1016E8000FC0DFFF1150270D030EF324D96E010E32
:1016F800F420DA6E10C0DFFF115012E111507DD8CE
:10170800800EDE6E020EDD6E115067D8E00EDE6EC2
:10171800020EDD6E115069D880D877D8400E13D0EC
:10172800110412E1115069D8D00EDE6E020EDD6E82
:10173800115053D8C00EDE6E020EDD6E115055D812
:101748006CD863D8100EDF6E1150270D1D0EF324D0
:10175800D96E010EF420DA6EDE6A4B0EDE6E77D893
:10176800270D210EF324D96E010E6BD8220EF32417
:10177800D96E010E66D8230EF324D96E010EF4201B
:10178800DA6E080EDF6E1150270D040EF324D96EA1
:10179800010EF420DA6EDF6A1A0E096E0E503DEC67
:1017A80016F01E0E096E10503DEC16F0016A11502D
:1017B80014D856D8115019D8DF50046E1050A2EC26
:1017C80010F0115003EC0EF046D8115003EC0BF05A
:1017D8003ED8FBEC0AF0DF6A000C270D160EF32446
:1017E800D96E010EF420DA6E1200270D0F0EF324C5
:1017F800D96E010EF420DA6E1200270D140EF324B0
:10180800D96E010EF420DA6E1200270D0E0EF324A5
:10181800D96E010EF420DA6E1200100EDF6E115030
:101828001200270D000EF324D96E010EF420DA6E93
:101838001200270D010EF324D96E010EF420DA6E82
:101848001200F420DA6EDF6A1150270D1200DE6AEA
:10185800DD6A1150120001C0DEFF02C0DDFF120078
:10186800DECF02F0DDCF03F01200020152050DE1D8
:1018780050511F0B0AE100017F8F030E020151191D
:1018880003E1010E436E01D0436A5251D8A41200FD
:1018980050511F0B020AD8A4120054510F0BD8B490
:1018A800120054510F0B1B6E050E1B60050C200E09
:1018B8000001B719D8A412007F8F020154BF07D0C6
:1018C80054510F0B25EC10F08BD8820F06D05451D1
:1018D8000F0B2BEC10F084D8870FD96EDA6ADF5023
:1018E8001F6E1FB003D0FB0E201602D0040E20126C
:1018F800215054BF03D082D86A0F02D07FD8600F1E
:10190800D96EDA6A20C0DEFF21C0DDFF030E51194F
:1019180014E156D8DFAE0BD054BF03D06AD8820F7B
:1019280002D067D8870FD96EDA6A0001DF8248D8FB
:10193800000EDB8445D8DB8E000C040E201A2150E3
:101948003FD8DFAE0AD03CD87F0EDF1639D8000E5C
:10195800DB8C3BD884EC12F003D032D8000EDB8C41
:10196800040E201A21501FB203D02AD8DFAE13D09C
:10197800020154BF03D03DD8820F02D03AD8870F56
:10198800D96EDA6A0001DF921BD83B0EDF161DD82C
:1019980084EC12F003D014D83B0EDF160201545128
:1019A8000F0B1B6E1C6A530E1B241D6E0F0E1C2082
:1019B8001E6E1DC0D9FF1EC0DAFFFE0EDF16FE0C1C
:1019C80020C0D9FF21C0DAFF1200146A050E136E79
:1019D80020C015F021C016F0186A020E176E020C0E
:1019E800DECF20F0DDCF21F054510F0B1B6E1B50C2
:1019F800120054510F0B1B6E1B50120054510F0B49
:101A0800020DF35012000101055101E0120000011E
:101A1800945195110DE11E0EDF6F110EE06F070E48
:101A2800E16F46EC17F00001956B010E946F010C05
:101A38008E0EEC190AE1010EED1907E14E0EEC6F5E
:101A4800010EED6F946B956B1200ECC0DAF0EDC0EF
:101A5800DBF0EC514E08400FDC6F000EA0EC0DF0EF
:101A6800AA6FAA5101E11200EA6BEB6BAB6B10D0C5
:101A780057D80D0EDE1804E053D80A0EDE1807E119
:101A8800AB51EC25EA6F000EED21EB6F04D0AB2BC8
:101A9800AA51AB5DEDE3EA51EB112BE03AD8DF50E8
:101AA800AB6F45D80D0EDF6E34D80A0EDF6EECC072
:101AB800DFF0EDC0E0F0EC51EA5D020FE16F46ECBB
:101AC80017F035D8DF6A000124D8ABC0DFFF4E0E0F
:101AD800E66F010EE76F4E0EE96FE951EA5DE86FB8
:101AE800E2EC14F04E0E0001EC6F010EED6FAA6BE4
:101AF800A9D7ECC0D1F0EDC0D2F0AAC0D3F0000E47
:101B0800A7EC15F0AA51010DF350EC27F450ED2382
:101B1800120020EE01F0EA51D926EB51DA22120028
:101B2800AB51EC25D96E000EED21DA6E1200EAC039
:101B3800D9FFEBC0DAFF1200E16F000168D8DF6A55
:101B4800E1515DD8DE50DE100CE0E15158D8DECF0F
:101B5800DDF0DDCFDEF0DDC0D9FFDEC0DAFFDFBEAD
:101B68004AD00001E1514BD85BD8DC51E65C05E274
:101B7800E15145D855D8E750DC6F49D8DF6A24D001
:101B880046D8DF50DD6FE151F1EC0BF0DECFDEF02F
:101B9800DDCFDFF0DD51DE25D96E000EDF21DA6EF4
:101BA800E151270D040EF324E16E010EF420E26EDC
:101BB800E750E06FE051DA25E16E000EDB21E26EBE
:101BC800DFCFE7FF24D8DF2A22D8DC51DE5CD8E358
:101BD800D16BE151F1EC0BF02AD8E151F9EC0BF0A3
:101BE800DF50D46FE1514BEC0BF0E4EC0FF0E15116
:101BF80006D859EC0BF000010AD8DF501200270D67
:101C0800100EF324D96E010EF420DA6E1200E151A1
:101C1800270D040EF324D96E010EF420DA6E12009B
:101C280010EE01F0DE50E126DD50E2221200DECF98
:101C3800D2F0DDCFD3F012000001B70507E164BA96
:101C480005D0626A60806088020EB76F62B460A4D3
:101C580003D0629464EC17F064A202D0A19412003D
:101C680062B060A006D014EC0FF0A084040EB76F29
:101C7800629062B860A802D015EC17F062AC13D07D
:101C880060AC07D0146A730E136E156A50D884ECD2
:101C980012F0629C9DEC17F03F5001E03F063F5068
:101CA80002E1C7EC13F062BA60AA02D072EC16F037
:101CB80062B260A209D07F0E146E1368156A37D815
:101CC80084EC12F00F015F6B040E0001B76102D0C3
:101CD800A194040C60A629D0246A62A626D063CFFA
:101CE80052F05230E832E8320F0B416E629652B42D
:101CF80003D04150820F02D04150870FD96EDA6A63
:101D08000001DF70415003E13DEC14F00AD0146A81
:101D1800720E136E520E156E166A186A176A84ECE4
:101D280012F0242A030E2464D8D7A1941200166A4C
:101D3800186A010E176E010C800E02015019D8A402
:101D48001200C00E00017F6F44D00C0E00017C6FA2
:101D5800110E7D6F816B120E806F120C52515DE176
:101D68005251020D350EF324F66E100E4DD8020EA8
:101D780000013ED8F76403D00800F55001D032D8EE
:101D88000001806F030E34D8F76403D00800F550C3
:101D980001D028D80001816F12003FD0050E526192
:101DA8003CD05251020D2B0EF324F66E100E2CD897
:101DB8007CC0F6FF7DC0F7FFF86A020EF76403D017
:101DC8000800F55001D00ED80001806F816B120019
:101DD80024D002015351010AB8E0030ABFE0010A06
:101DE800DDE01BD0F6CFE1FFF7CFE2FFE7501200AE
:101DF8007C25016E000E7D21026E01C0F6FF02C037
:101E0800F7FFF86A020E1200F420F76E0900F5CF0A
:101E18007CF00A00F5CF7DF0120000017F6B120004
:101E28005DD895EC11F0CDEC16F06AEC16F0096A65
:101E3800095048D8092A130E0964FAD72FD8096A15
:101E480009502BEC10F0DE6ADD6A095025EC10F021
:101E5800DE6ADD6A09504DD8095046D8092A040EB1
:101E68000964EED7080E000100D0606F020E616FA2
:101E7800160E0F01536F020E0201036F500E026F10
:101E8800080E016F040E006F008F536A2F6A306AC4
:101E9800316A326A396A0001B76B1200648C0F012B
:101EA8005C6B6498649C629600017F6B776B786BBF
:101EB800796B62B6F8D7010E3D6E3C6E3B6A3A6AA2
:101EC800426A1200040D000EF324D96E020EF420AB
:101ED800DA6EDE6ADE6ADE6ADD6A1200A0940F013D
:101EE8005F6B626A536B1200820FD96EDA6ADF6A1F
:101EF8001200870FD96EDA6ADF6A120002015051A8
:101F08001F0BE80601E012005039E832030BE8061F
:101F180001E01200026A025015EC0CF0DE500201DA
:101F2800541934E002501DEC0CF0DE50541938E11D
:101F38002DD041D8816B080E806F7F8125D03BD88A
:101F480023D056C278F057C279F02FD8746F010E9B
:101F5800F420756F7A6B7B6B778F22D026D87C6FD5
:101F6800010EF4207D6F816B070E806FC10E7F6FAD
:101F780017D00250270D180EF324D96E010EF42045
:101F8800DA6E52C2DFFF00017F8F0AD05151D1E0D3
:101F9800010AD5E0210AD5E0010AE0E0030AE9E0F8
:101FA800022A010E0264B7D7010C0250270D1D0E3C
:101FB800F32400011200460E00017C6F7D6B1200B5
:101FC800D76F0001D15104E0D751F0EC10F003D0E5
:101FD800D751ECEC10F0D96EDA6ADECFD8F0DDCF4D
:101FE800D9F0D851D91103E1D16BD26B120020EE90
:101FF80002F042D8D2C0DEFFD3C0DDFF20EE01F0F0
:102008003BD8D4C0DFFF33D8400EDF1630D8000EDF
:10201800DB862DD8DB8ED15105E0D75118D81DD8D5
:10202800600F04D0D7510DD818D86A0FD96EDA6A64
:10203800D5C0DEFFD6C0DDFFD8C0D1F0D9C0D2F000
:102048001200020DF3506A0FD96EDA6A1200020DFF
:10205800F350600FD96EDA6A1200DECFD5F0DDCF0B
:10206800D6F0040ED51BD751020DF3501200D8C07C
:10207800D9FFD9C0DAFF1200D851D926D951DA22AE
:10208800120020EE01F0FAEC13F0DF50026E02505D
:10209800785D000E795902E278C002F00250785F4C
:1020A800000E795B016A0FD0580E0124D96EDA6AE6
:1020B800020EDA2274C0E1FF75C0E2FFDFCFE7FF4E
:1020C800744B752B012A0250015CEEE378517911AB
:1020D80014E020EE01F01BD81FD819D8580EFFECD9
:1020E80013F087EC16F0DFBC04D023D8480E19D8BB
:1020F800000C1FD8080E15D8000CDAEC11F0040EED
:1021080010D8779F3E50D8B4C7EC13F01200355062
:10211800D9263650DA221200080EDF6E20EE02F0C1
:10212800080CDF6E35C0D9FF36C0DAFF000EDB8E33
:10213800000C35C0D9FF36C0DAFF1200076E015017
:1021480003E0075049D802D0075042D8D96EDA6A5E
:10215800DECF08F0DDCF09F00850091003E1016A6D
:10216800026A120020EE02F040D802C0DEFF03C06F
:10217800DDFF20EE01F039D804C0DFFF31D8400E72
:10218800DF162ED8000EDB862BD8DB8E015006E03A
:1021980007502BEC10F012D8600F05D0075025EC33
:1021A80010F00CD86A0FD96EDA6A05C0DEFF06C0D7
:1021B800DDFF08C001F009C002F01200DECF05F013
:1021C800DDCF06F0040E051A0750020DF350120079
:1021D800020DF3506A0F1200020DF350600F120047
:1021E80008C0D9FF09C0DAFF12000850D9260950E3
:1021F800DA221200080E016E000181510DE1080E6D
:10220800805D0AE280C001F0455002E1010E03D072
:10221800450402E1020E456E0150805F000E815BAD
:1022280020EE01F036D801C0DFFF580E336E020EE3
:10223800346E7FB11AD00BD07CC0F6FF19D8F76482
:1022480003D00800F55002D0F6EC0EF01AD8015071
:10225800F3E112007CC0F6FF0BD8F76403D0080046
:10226800F55002D0F6EC0EF00CD80150F3E1120054
:102278007DC0F7FFF86A33C0D9FF34C0DAFF020E19
:102288001200DF6E00017C4B7D2B334A342A010695
:1022980012006051D9266151DA22120000017F8FA5
:1022A80040D8CDEC16F0016A020E026E046A036A89
:1022B800066A500E056ECDEC16F0648C1B6A1B5036
:1022C8007DEC0FF01B5078EC0FF01B2A040E1B64FA
:1022D800F6D74E0E016E026A046A036A066A040E95
:1022E800056ECDEC16F0649C080E0001606F020EBE
:1022F800616F000E376E020E1ED852C253F0535053
:1023080003E1100EB76F100C146A010E136E530E12
:10231800156E9BEC0EF084EC12F0200E0001B76FE6
:10232800200C540E016E0F0E026E046A036A066AD0
:10233800040E056E040C386E37C035F038C036F020
:102348001200649800017FBF14D077AF09D0020E45
:10235800446E3A5002E178EC15F03C6A3D6A12008E
:1023680025D80C0E95EC10F073EC12F0040E6BEF00
:1023780012F0020150AF0DD0010E446E3B5002E145
:1023880078EC15F03C6A3D6A3E50D8A41200C7EFBD
:1023980013F0020E446E0AD8040E95EC10F03C6A55
:1023A8003D6A3E5002E1C7EF13F0120020EE01F043
:1023B8003550D9263650DA22080EDF6E20EE02F0AC
:1023C8003550D9263650DA22500EDE6E020EDD6EFA
:1023D80035C0D9FF36C0DAFF020C02015039E832A5
:1023E800030B21E0120000017F8F080EB76F080C65
:1023F800530E00017C6F37D054514E0F226E22C00D
:102408007CF0000130D000017F8F020154514E0F43
:10241800D96EDA6A52C2DFFF1200146A020E20EC8B
:1024280017F084EF12F0515102E14AEF13F0010A5C
:1024380002E139EF0CF0020A02E139EF0CF0060A6A
:10244800D2E0030A02E1A0EF0EF0010AE6E00F0A6B
:10245800CFE0010A02E152EF11F0030ACDE0010AD0
:10246800D2E0070A12007D6B7F81010E806F7F8F9B
:10247800010C35D8000EDFBC010E026E040E601B85
:102488006151080EB7190BE1020152517F0B0F0180
:102498005C6F5C51100ED8B4040E0001B76F440491
:1024A80012E128D821D8FEEC10F0020E451803E1FD
:1024B80016D8040E0CD0025003E111D8480E07D0EC
:1024C8000ED8080E04D077BF779F446A1200DF6EDB
:1024D80060C0D9FF61C0DAFF000EDB8E000C60C05F
:1024E800D9FF61C0DAFF1200DA22580EDE6E020E42
:1024F800DD6E020C20EE02F06051D9266151120007
:1025080013C00AF014C00BF015C00CF016C00DF083
:1025180017C00EF018C00FF003EC14F013D00D6ABA
:10252800010E0E6E0F6E020E106E000E63EC0BF0B5
:10253800020E0D6E030E0E6E0F6E040E106E010E5F
:1025480063EF0BF013C019F014C01AF01A5004E02E
:102558007F0AD8A4120017D01950010AE0E0030A34
:10256800D8B41200010A02E182EF0FF0060AD8B4CB
:102578001200770AD8B41200010AD8B41200070A68
:10258800D8A4010A1200191C12009EAA14D0ABA2EA
:1025980007D00001B46BAB98AECFB8F0AB880AD0C7
:1025A8000F0E0001B46106D0B451B80FD96EDA6AC3
:1025B800AECFDFFFB42B0001B4510DE001012C5167
:1025C8000AE1B80E0001D16FD26BB4C0D3F0010E8E
:1025D800A7EC15F0B46B0001B551B65D0CE2ACA2E6
:1025E80012008E0EB625D96EDA6A010EDA22DF5095
:1025F800AD6EB62B12008E0EDA6F010EDB6F100E69
:10260800DC6F010EA0EC0DF0B56FB66B1200F7ECA5
:1026180015F09F0E8FEC17F00D0E0001CE6F0A0E0D
:10262800CF6FC80ED16FD26B030ED36F55EC17F076
:10263800020EB36FB351020DF350C90FD96E1FD8F4
:102648000F0B73EC17F0DF6EB351020DF350C80F88
:10265800D96E15D8E26FE2390F0B73EC17F0DF6E05
:10266800B307B3AFE7D7DCEC17F004EC17F0C80EEC
:102678000001DF6FE06B080EE16F46EF17F0DA6AD2
:10268800B351C80FE16EE26AE75012000201586BBD
:10269800596B25D000017F8F430428E1020158833C
:1026A80025D000017F8F22D000017F8F020154BF07
:1026B80004D002EC0DF06A0F03D002EC0DF0600FAD
:1026C800D96EDA6ADECF01F0DDCF02F019D8DFAEBD
:1026D8000DD016D8DFA40AD0010E586F07D050517C
:1026E8001F0BD8E0010ADDE0030ADEE000017FAF3E
:1026F8001200580E7C6F020E7D6F7F81806F020C76
:1027080001C0D9FF02C0DAFF1200066E076A020E86
:10271800086E0150026E036AD890023603360650DE
:10272800046E056A24D802500426035005221FD8D7
:10273800045007260550082221D8DF9E015004E1E5
:102748000650ECEC10F003D00650F0EC10F0D96E07
:10275800DA6A07C0DEFF08C0DDFF10D8DF9C20EE74
:1027680004F00750D9260850DA22DF8C1200D890DE
:1027780004360536D89004360536120007C0D9FF4E
:1027880008C0DAFF12003D50D8A41200010E3D6EB9
:102798003C50D8A41200010E3C6E020E44180BE106
:1027A800000120EE01F04DEC11F0DF6A73EC12F03D
:1027B800480E6BEF12F04404D8A41200406A20EED1
:1027C80001F014D890EC10F011D8500E14D887EC02
:1027D80016F0040EDF6E87EC16F0000EDB8E010E8D
:1027E800406EDAEC11F0800EDF6E800C3750D9267F
:1027F8003850DA221200DE6E020EDD6E020C050E73
:102808000A180B10D8A41200126A125003EC0EF02A
:10281800DE500C1818E1DE500D1815E1016A12504F
:10282800F1EC0BF034EC0CF01250F9EC0BF0DF503B
:10283800046E12504BEC0BF0A2EC10F0125003ECAB
:102848000EF02FEC0CF0125003EC0BF0DE500C18CD
:102858000BE1DE500D1808E11250FBEC0AF0DF6ABC
:1028680012503EEC0BF0DF6A122A010E1264CDD72B
:10287800010C2D0E3F6E52C023F0FD0E23162AE1E7
:10288800D89052303F0B040D000EF324376E020E21
:10289800F4209FEC11F0040E351A365087EC16F030
:1028A800DF30E8320F0B0D0A02E036EF17F0500E5A
:1028B800016E020E026E20EE02F0FAEC13F0DECF8B
:1028C80003F0DDCF04F0066A080E056E1CEC16F066
:1028D800D1EF15F05250FD0B040AD8B43DEC12F0BC
:1028E8001200100ED96F210ED86FB26B29D0B251D9
:1028F800D125D96E000ED221DA6EDF50DA6FDB6B8C
:10290800DA51D76FD66BD651D41BD751D51BB16BC3
:10291800D5AF0ED0D4C0D6F0D5C0D7F0D890D63722
:10292800D737D851D619D46FD951D719D56F03D005
:10293800D890D437D537B12B070EB165E9D7B22B6C
:10294800D351B25DD4E3D4C0D1F0D5C0D2F01200D7
:10295800E1CF25F0E2CF26F0D9CF27F0DACF28F063
:10296800F3CF29F0F4CF2AF0F6CF2BF0F7CF2CF0E5
:10297800F8CF2DF0F5CF2EF0A1A403D020EC0EF067
:10298800A1949DB09EA004D09E900001A84BA92BB5
:102998002EC0F5FF2DC0F8FF2CC0F7FF2BC0F6FFA7
:1029A8002AC0F4FF29C0F3FF28C0DAFF27C0D9FFE7
:1029B80026C0E2FF25C0E1FF5492110013D0EE6B50
:1029C8001200010EEE6F010C260EDF6F110EE06F84
:1029D800050E05D02C0EDF6F110EE06F030EE16FB0
:1029E80046EF17F0E6C0D9FFE7C0DAFFDF50300A3C
:1029F80002E104EF17F0010A02E1F7EF15F0720A9D
:102A0800E0E0200ADCE0060A02E181EF17F0030AA1
:102A180002E19CEF08F00F0A02E10BEF13F01F0A26
:102A2800D3E0D8D772EC0FF0540E0001D16F0F0E1F
:102A3800D26FD46BD36BD66B040ED56FA3EC16F0A4
:102A48006AEC16F00001D96BD95166EC0FF0D92B5E
:102A5800130ED965F9D752EC0FF0D96BD9512BEC7D
:102A680010F0DE6ADD6AD95125EC10F0DE6ADD6A05
:102A7800D9517DEC0FF0D95178EC0FF0D92B040E19
:102A8800D965ECD7080E39EF0FF0C20EF66E2F0E8F
:102A9800F76E000EF86E00EEEAF010EE05F0090091
:102AA800F5CFEEFFE550E150FAE101EE00F09E0EA1
:102AB800EE6AE806FDE100EE60F0700EEE6AE806E8
:102AC800FDE100EE2FF0250EEE6AE806FDE102EECC
:102AD80080F0700EEE6AE806FDE154905492000E04
:102AE800F86E00018CEF16F03B6A3A6A020E441841
:102AF80012E120EE01F08BEC10F090EC10F08BEC72
:102B080010F0580EDE6E020EDD6E9DEC10F0480ED1
:102B180095EC10F0000C000180510201565D000197
:102B280081510201575904E256C280F057C281F020
:102B3800FEEC10F07EEC12F078EC12F073EC12F070
:102B4800480E6BEF12F0D46FA0940001D451FBEC47
:102B58000AF0DF5018E1D45146EC0BF0010EF420D6
:102B6800DA6ED1C0DEFFD2C0DDFFD4513EEC0BF0EF
:102B7800D3C0DFFFD45109D8010EDF6ED451FBEC6E
:102B88000AF0010EDF6EA0841200270D0D0EF3244B
:102B9800D96E010EF420DA6E1200456A3E6A3B6A6D
:102BA8003A6A406A446A73EC12F017D873EC12F070
:102BB80014D89DEC10F07F0EDF167F6B806B816B55
:102BC800776B786B796BF1EC11F0146A030E20ECDB
:102BD80017F084EC12F0A5EF11F07F0EDF16040E4B
:102BE800601B6151120094928B92040E0001D16F08
:102BF800E40EE82EFED7D12FFCD700F07F927F9409
:102C0800949E9388939C94948B84C79EC78CC698F3
:102C1800C650F00B0109C66E9D96C68A040E0001C7
:102C2800D16FE40EE82EFED7D12FFCD700F01200AA
:102C380003C009F004C00AF001C007F002C008F0A0
:102C480010D009C0D9FF0AC0DAFFDF500B6E094A5D
:102C58000A2A07C0D9FF08C0DAFF0BC0DFFF074AFE
:102C6800082A0506D8A006060528EBE10628E9E1AA
:102C780012000C6E09A404D0016A0C5089EC13F000
:102C880009A205D0010E016E0C5089EC13F0530E09
:102C98000C240A6E0B6A0F0E0B220AC0D9FF0BC058
:102CA800DAFF09C0DFFF0F0CB751D8A41200646A1D
:102CB800606A0CD8D08EA284A084F28E01D064867B
:102CC80064A6FDD7010E0001B76F010C160E616EE8
:102CD8009F0E0F015B6F7B0E606E7B0C0F0153A183
:102CE80010D011D8800EDE180BE173EC12F0840EB0
:102CF800DE1806E108D80C0EDF6E05D8000EDB8E54
:102D08005391629A120037C0D9FF38C0DAFF120017
:102D1800CBEC17F016EC15F058EC16F0B8EC16F0F2
:102D280026EC17F01F0E0001B765FCD764B2FAD77E
:102D380007EC0DF0C9EC12F043EC0AF0F3D7D1C060
:102D4800D7F0D2C0D8F008D0D7C0D9FFD8C0DAFFA2
:102D5800D3C0DFFFD74BD82BD507D8A0D607D529A6
:102D6800F3E1D629F1E11200948E93889484938C30
:102D78009480948A94928B92140E0001D16F790EEC
:102D8800E82EFED7D12FFCD700D000D08B829482BA
:102D9800120001C007F002C008F008D007C0D9FF30
:102DA80008C0DAFF03C0DFFF074A082A0506D8A0D3
:102DB80006060528F3E10628F1E112000CD0D1C07F
:102DC800D9FFD2C0DAFFDF50C96ED14BD22BC7A0D2
:102DD800FED70001D3070001D351F1E11200000131
:102DE800D76FD7518FEC17F00001D551B6EC17F01B
:102DF8000001D451B6EC17F00001D351B6EF17F02B
:102E0800C69A8B84948E9388938C9484040E0001C4
:102E1800D16FE40EE82EFED7D12FFCD700F0CAEF11
:102E280016F0608462986482010E426E396A146AF0
:102E3800750E02D884EF12F0136E156A166A186AB6
:102E4800176A12007F96939E938AAC6AAC8AAC8408
:102E5800AB6AAB8EAB88B86AB886670EAF6EB06ADD
:102E6800AE501200020E441802E145EF10F0446A19
:102E7800405006E1DAEC11F00C0E95EC10F0000C65
:102E8800406A1200DFC0D1F0E0C0D2F0E1C0D3F058
:102E9800000EA7EC15F043EC0AF001010551FBE127
:102EA80012000BD0D5EC17F0D1C0D9FFD2C0DAFF91
:102EB800DF6E0001D14BD22BD307D351F3E11200BF
:102EC800426A146A740E20EC17F084EC12F06492D3
:102ED800609401D0629462B4FDD7396A1200D16F50
:102EE8000A0E0001D16103D0D151300F1200100E2B
:102EF800D1613F0CD151570F1200F7EC15F0060EB7
:102F08008FEC17F0DCEC17F0C70E8FEC17F0C1EC64
:102F180017F004EF17F00001D26F8B840A0EE82E29
:102F2800FED78B940A0EE82EFED70001D251B6EFD9
:102F380017F02F2A000E3022312232224250D8A414
:102F48001200392A3950D8B439681200050E8FECAE
:102F580017F0D5EC17F00001D36FDCEC17F0000187
:102F6800D3511200D16FC9509E96C69ED1C0C9FFD9
:102F7800C6BE12009EB61200FDD78B840A0EE82E3C
:102F8800FED7AAEC17F0D46FD4A11200F7D7CD80E2
:102F9800CF0ECD169D80F28CD08E9F80F28E9E90A3
:102FA800CF0CC9509E96C96A9EA6FED7C95012007A
:0F2FB8008B840A0EE82EFED712004E014E010147
:020000040020DA
:08000000FFFFFFFFFFFFFFFF00
:020000040030CA
:0E0000000032011EFF0081FF03C003E0034039
:00000001FF
