:0410000013EF08F0F2
:0610080054829CEF13F07E
:101018005480E0CFDBF0DBC0E0FF54901000F8EF25
:1010280013F0009A112E11B41074116011371009C1
:10103800027D00040100C03209040000010202011F
:1010480003052400100104240202052406000105FA
:1010580024010001070581030800020904010002B8
:101068000A0000030705020220000007058202208B
:101078000000090402000102020104052400100115
:1010880004240202052406020305240100030705BF
:10109800830308000209040300020A00000407058C
:1010A8000402200000070584022000007A034E0095
:1010B80075006D00610074006F0020004C00610035
:1010C800620020004D0069006D006100730020007F
:1010D8005600320020005300700061007200740056
:1010E80061006E00360020004600500047004100B5
:1010F800200044006500760065006C006F007000F9
:101108006D0065006E007400200042006F006100F1
:1011180072006400000000000000000000000000F1
:1011280000000000000032034E0075006D006100F1
:1011380074006F002000530079007300740065008C
:101148006D00730020005000760074002E0020000F
:101158004C00740064002E00140346005000470041
:101168004100200055004100520054001403530070
:1011780050004900200046006C00610073006800C0
:101188001201000202000008192A021000010102DF
:07119800000104030904003B
:1011A000A094EB6BEB51C2D8DE50DE100CE0EB519B
:1011B000BDD8DECFE5F0DDCFE6F0E5C0D9FFE6C073
:1011C000DAFFDFBE78D0EB51ABD8030EDE1803E1B7
:1011D000EB51A6D8DF6AEB51A3D8DF506CE0EB519E
:1011E0009FD8020EDE1811E1010EDC6FDD6BDE6BA5
:1011F000DF6BEB51ABD8DAEC0DF0EB5197D8ADD8F3
:10120000EB518ED8030EDF6E56D0EB5189D8DE0439
:1012100052E1EB5191D8200EDF6401D003D0EB51A5
:101220008BD8DF50EA6FEB5187D8EB51250DF35087
:101230009D0FE16EE26AE750E56FEA51E55DDF6E12
:10124000EB51DEEC0BF0EB51250DF3509A0FE16EF4
:10125000E26ADECFE6FFDDCFE5FFEAC0E9F0EB5161
:1012600081D8DF5003E007D06DD82BD8E95105E0D5
:10127000FBD768D826D8E951FCE1EB515DD8DF50A7
:101280000BE1200EEA1904E1EB514AD8020E03D01B
:10129000EB5146D8030EDF6E010EDC6FEB51DEEC36
:1012A0000BF066D8EAC0DFF0EB5150D8DAEC0DF065
:1012B000EB513CD852D8EB2B010EEB6573D7A084D1
:1012C000010C970FD96EDA6ADECFE5F0DDCFE6F0DC
:1012D000E5C0D9FFE6C0DAFFEB51250DF3509A0FB8
:1012E000E16EE26AE6CFE7F0E5CFE8F0E7C0E1FFC4
:1012F000E8C0E2FFDFCFE7FFEB51250DF3509A0F77
:10130000D96EDA6ADE2A000EDD22EB51250DF3508C
:10131000970FD96EDA6ADE2A000EDD22E907000C8B
:10132000250DF350960FD96EDA6A1200250DF35091
:10133000A10FD96EDA6A1200250DF3509D0FD96EF8
:10134000DA6A1200EB51250DF3501200250DF3500F
:10135000940FD96EDA6ADF501200DCC0DEFFDDC008
:10136000DDFF1200250DF3509E0FD96EDA6A1200D0
:10137000DECFDDF0DDCFDEF01200E6C0D9FFE7C042
:10138000DAFF7E0EDE1801E0120020EE02F0CFD868
:10139000DE0401E0120020EE01F0C9D8DF5011E1B7
:1013A00020EE04F0C4D8DF50DC6F20EE05F0BFD88B
:1013B000DF50DD6F20EE03F0BAD8DF5073EC15F08C
:1013C00050D020EE01F0B3D8DE0403E101EC16F0BA
:1013D00048D020EE01F0ABD8020EDE180FE18AD81B
:1013E000060EEE25DC6F000EEF21DD6F20EE03F020
:1013F0009ED8DF50DE6FC1EC15F022D020EE01F058
:1014000096D8030EDE180EE1060EE625DC6F000E00
:10141000E721DD6F20EE03F08AD8DF50DE6FA3EC0A
:1014200015F01FD020EE01F082D8060EDE180CE178
:1014300061D820EE06F041EC14F0FAEC15F058D02B
:1014400046EC14F0F1EF15F020EE01F070D8070E25
:10145000DE1814E120EE03F06AD8DF50DCEC15F062
:1014600030D020EE02F063D8DF50E36F20EE01F0C1
:101470005ED8DF50E46F000E23EF14F020EE01F091
:1014800056D8080EDE180CE120EE04F050D8DF50DC
:10149000DC6F20EE03F04BD8DF5015EC12F011D0CA
:1014A00020EE01F044D8090EDE180DE120EE04F024
:1014B0003ED8DF50DC6F20EE03F039D8DF50D9EC96
:1014C00011F00001CED720EE01F031D80A0EDE185F
:1014D000D8A412000FD820EE06F041EC14F010EE64
:1014E00003F0E651E126E751E222E750FDEC12F06D
:1014F000DF6EA6D7EEC0D9FFEFC0DAFF7E0EDF6E3B
:1015000020EE01F0EE51D926EF51DA22010EDF6E06
:1015100020EE02F0E651D926E751DA2210EE02F071
:10152000EE51E126EF51E222DFCFE7FF1200E65154
:10153000D926E751DA221200020152050DE150517D
:101540001F0B0AE100017F8F030E0201511903E115
:10155000010E436E01D0436A5251D8A4120050517B
:101560001F0B020AD8A4120054510F0BD8B412005A
:1015700054510F0B1B6E050E1B60050C200E000155
:101580009019D8A412007F8F020154BF07D0545184
:101590000F0B21EC0EF08BD8820F06D054510F0B9D
:1015A0001BEC0EF084D8870FD96EDA6ADF501F6EFD
:1015B0001FB003D0FB0E201602D0040E20122150C3
:1015C00054BF03D07DD86A0F02D07AD8600FD96E8D
:1015D000DA6A20C0DEFF21C0DDFF030E511914E1DD
:1015E00056D8DFAE0BD054BF03D06FD8820F02D0D5
:1015F0006CD8870FD96EDA6A0001DF8248D8000EF6
:10160000DB8445D8DB8E000C040E201A21503FD815
:10161000DFAE0AD03CD87F0EDF1639D8000EDB8C47
:101620003BD8D8EC10F003D032D8000EDB8C040E7F
:10163000201A21501FB203D02AD8DFAE13D00201E6
:1016400054BF03D042D8820F02D03FD8870FD96E43
:10165000DA6A0001DF921BD83B0EDF161DD8D8ECEA
:1016600010F003D014D83B0EDF16020154510F0BBB
:101670001B6E1C6A530E1B241D6E0F0E1C201E6E4B
:101680001DC0D9FF1EC0DAFFFE0EDF16FE0C20C003
:10169000D9FF21C0DAFF1200146A050E136E20C0B4
:1016A00015F021C016F0186A020E176E020CDECF7C
:1016B00020F0DDCF21F054510F0B1B6E1B50120098
:1016C00054510F0B020DF350120054510F0B1B6EAF
:1016D0001B501200116E115085D80DC0DFFF115044
:1016E000250DF350930FD96EDA6A0EC0DFFF11504B
:1016F0007FD80FC0DFFF1150250DF350940FD96E26
:10170000DA6A10C0DFFF11500CE1115057D8E00E1B
:10171000DE6E020EDD6E11504BD8C00EDE6E020E74
:101720000DD011040CE1115049D8A00EDE6E020E4E
:10173000DD6E11503DD8800EDE6E020EDD6E115052
:10174000250DF350AC0FD96EDA6ADE6A4B0EDE6EF1
:1017500055D8250DF350B00F37D8B10F35D8B20F8B
:10176000D96EDA6A080EDF6E1150250DF350950F11
:10177000D96EDA6ADF6A1A0E096E0E50D2EC14F0D6
:101780001E0E096E1050D2EC14F0016A115010D8E0
:1017900022D81050F9EC0EF011505FEC0DF032D859
:1017A000115096EC09F02AD890EC09F0DF6A000C91
:1017B000250DF350A50FD96EDA6A1200250DF350EE
:1017C000A30FD96EDA6A1200D96EDA6ADF6A115095
:1017D000250DF3501200DECF02F0DDCF03F0200E16
:1017E000046E200C250DF350910FD96EDA6A1200A9
:1017F000250DF350920FD96EDA6A1200DE6ADD6AA7
:101800001150120001C0DEFF02C0DDFF1200000116
:10181000900507E164BA05D0626A60806088020EB4
:10182000906F62B460A403D06294B2EC15F064A22D
:1018300002D0A194120062B060A006D06CEC0DF052
:10184000A084040E906F629062B860A802D062EC2F
:1018500015F062AC13D060AC07D0146A730E136E2F
:10186000156A50D8D8EC10F0629CCFEC15F03F50C0
:1018700001E03F063F5002E18BEC12F062BA60AA31
:1018800002D007EC15F062B260A209D07F0E146E90
:101890001368156A37D8D8EC10F00F015F6B040E8F
:1018A0000001906102D0A194040C60A629D0246AA2
:1018B00062A626D063CF52F05230E832E8320F0BE6
:1018C000416E629652B403D04150820F02D0415013
:1018D000870FD96EDA6A0001DF70415003E1C5EC71
:1018E00012F00AD0146A720E136E520E156E166A3A
:1018F000186A176AD8EC10F0242A030E2464D8D78B
:10190000A1941200166A186A010E176E010C800E5F
:1019100002015019D8A41200C00E00017F6F44D0FC
:10192000880E00017C6F110E7D6F816B120E806F2F
:10193000120C52515DE15251020D350EF324F66E38
:10194000100E4DD8020E00013ED8F76403D00800F7
:10195000F55001D032D80001806F030E34D8F764FF
:1019600003D00800F55001D028D80001816F120083
:101970003FD0050E52613CD05251020D2B0EF32484
:10198000F66E100E2CD87CC0F6FF7DC0F7FFF86A0B
:10199000020EF76403D00800F55001D00ED8000104
:1019A000806F816B120024D002015351010AB8E00C
:1019B000030ABFE0010ADDE01BD0F6CFE1FFF7CF5D
:1019C000E2FFE75012007C25016E000E7D21026EC1
:1019D00001C0F6FF02C0F7FFF86A020E1200F42001
:1019E000F76E0900F5CF7CF00A00F5CF7DF012000C
:1019F00000017F6B1200EC6F00015AD8DF6AEC51D6
:101A00005ED8DE50DE100CE0EC5159D8DECFE8F0A5
:101A1000DDCFE9F0E8C0D9FFE9C0DAFFDFBE45D08D
:101A2000EC514DD852D8E751E65C05E2EC5147D86D
:101A30004CD8E750E76F3CD8DF6A22D039D8DF5066
:101A4000E86FEC51D8EC0BF0DECFE9F0DDCFEAF037
:101A5000E851E925D96E000EEA21DA6EEC51250D28
:101A6000F350950FE16EE26AE750EB6FEB51E5251D
:101A7000E16E000EE621E26EDFCFE7FF19D8DF2A24
:101A800017D8E751DE5CDAE3DC6BEC51D8EC0BF0F5
:101A9000B8EC09F0200EDF6FEC51A6EC09F0DAEC9F
:101AA0000DF0EC510CD8ADEC09F002D8DF5012006B
:101AB000EC51250DF350950FD96EDA6A1200250D01
:101AC000F3509F0FD96EDA6A120010EE01F0DE506B
:101AD000E126DD50E22212005DD8ECEC0FF04DEC77
:101AE00015F0FFEC14F0096A095048D8092A130EC2
:101AF0000964FAD72FD8096A09501BEC0EF0DE6A88
:101B0000DD6A095021EC0EF0DE6ADD6A095048D822
:101B100009504BD8092A040E0964EED7080E0001BB
:101B200000D0606F020E616F160E0F01536F020E30
:101B30000201036F500E026F080E016F040E006F5A
:101B4000008F536A2F6A306A316A326A396A00013B
:101B5000906B1200648C0F015C6B6498649C6296BD
:101B600000017F6B776B786B796B62B6F8D7010EEB
:101B70003D6E3C6E3B6A3A6A426A1200040D000EEA
:101B8000F324D96E020EF420DA6EDE6ADE6ADE6AB3
:101B9000DD6A1200A0940F015F6B626A536B120042
:101BA000870FD96EDA6ADF6A1200820FD96EDA6A9D
:101BB000DF6A1200E26F0001DC5104E0E25147EC01
:101BC0000FF003D0E25143EC0FF0D96EDA6ADECFAA
:101BD000E3F0DDCFE4F0E351E41103E1DC6BDD6B16
:101BE000120020EE02F042D8DDC0DEFFDEC0DDFFD5
:101BF00020EE01F03BD8DFC0DFFF33D8400EDF1608
:101C000030D8000EDB862DD8DB8EDC5105E0E251AA
:101C100012D81DD8600F04D0E25113D818D86A0F1B
:101C2000D96EDA6AE0C0DEFFE1C0DDFFE3C0DCF0C0
:101C3000E4C0DDF01200020DF350600FD96EDA6AD5
:101C40001200020DF3506A0FD96EDA6A1200DECF6D
:101C5000E0F0DDCFE1F0040EE01BE251020DF350A5
:101C60001200E3C0D9FFE4C0DAFF1200E351D92625
:101C7000E451DA221200020150511F0BE80601E084
:101C800012005039E832030BE80601E01200026A44
:101C90000250F2EC0BF0DE50020154192EE002501B
:101CA000F8EC0BF0DE50541932E127D035D8816BB7
:101CB000080E806F7F811FD02FD81DD056C278F0BC
:101CC00057C279F033D80001746F7A6B7B6B778FD2
:101CD0001ED02CD8016E01C07CF000017D6B816BA1
:101CE000070E806FC10E7F6F12D00250250DF3508A
:101CF000A70F17D800017F8F0AD05151D7E0010AF2
:101D0000DBE0210ADBE0010AE4E0030AEEE0022A5C
:101D1000010E0264BDD7010C460E00017C6F7D6B85
:101D20001200D96EDA6A52C2DFFF12000250250D8E
:101D3000F350AC0F120020EE01F0C0EC12F0DF50B7
:101D4000026E0250785D000E795902E278C002F00E
:101D50000250785F000E795B016A0DD0580E0124A5
:101D6000D96EDA6A020EDA227451E16EE26ADFCFCE
:101D7000E7FF742B012A0250015CF0E378517911DE
:101D800012E020EE01F019D81DD817D82DD81CEC80
:101D900015F0DFBC04D023D8480E19D8000C1FD88A
:101DA000080E15D8000C31EC10F0040E10D8779FF7
:101DB0003E50D8B48BEC12F012003550D926365074
:101DC000DA221200080EDF6E20EE02F0080CDF6E41
:101DD00035C0D9FF36C0DAFF000EDB8E000C35C0EF
:101DE000D9FF36C0DAFF1200580EDE6E020EDD6E2D
:101DF000020C076E015003E0075049D802D007508B
:101E000042D8D96EDA6ADECF08F0DDCF09F008508B
:101E1000091003E1016A026A120020EE02F040D8C4
:101E200002C0DEFF03C0DDFF20EE01F039D804C0A0
:101E3000DFFF31D8400EDF162ED8000EDB862BD800
:101E4000DB8E015006E007501BEC0EF012D8600F3D
:101E500005D0075021EC0EF00CD86A0FD96EDA6A63
:101E600005C0DEFF06C0DDFF08C001F009C002F0BA
:101E70001200DECF05F0DDCF06F0040E051A075084
:101E8000020DF3501200020DF3506A0F1200020D02
:101E9000F350600F120008C0D9FF09C0DAFF12002A
:101EA0000850D9260950DA221200080E016E0001EE
:101EB00081510DE1080E805D0AE280C001F04550BD
:101EC00002E1010E03D0450402E1020E456E01500D
:101ED000805F000E815B20EE01F036D801C0DFFF8D
:101EE000580E336E020E346E7FB11AD00BD07CC008
:101EF000F6FF19D8F76403D00800F55002D0DDECE6
:101F00000CF01AD80150F3E112007CC0F6FF0BD898
:101F1000F76403D00800F55002D0DDEC0CF00CD8CB
:101F20000150F3E112007DC0F7FFF86A33C0D9FF1A
:101F300034C0DAFF020E1200DF6E00017C4B7D2BF5
:101F4000334A342A010612006051D9266151DA223F
:101F5000120000017F8F40D84DEC15F0016A020E8F
:101F6000026E046A036A066A500E056E4DEC15F0A7
:101F7000648C1B6A1B50D0EC0DF01B50D5EC0DF09F
:101F80001B2A040E1B64F6D74E0E016E026A046A09
:101F9000036A066A040E056E4DEC15F0649C080E8B
:101FA0000001606F020E616F000E376E020E1ED8C8
:101FB00052C253F0535003E1100E906F100C146A8C
:101FC000010E136E530E156E82EC0CF0D8EC10F06F
:101FD000200E0001906F200C540E016E0F0E026E49
:101FE000046A036A066A040E056E040C386E37C074
:101FF00035F038C036F01200649800017FBF14D06D
:1020000077AF09D0020E446E3A5002E1CBEC13F0E8
:102010003C6A3D6A120025D80C0EE7EC0EF0C7ECC6
:1020200010F0040EBFEF10F0020150AF0DD0010E02
:10203000446E3B5002E1CBEC13F03C6A3D6A3E50EB
:10204000D8A412008BEF12F0020E446E0AD8040ED0
:10205000E7EC0EF03C6A3D6A3E5002E18BEF12F075
:10206000120020EE01F03550D9263650DA22080E43
:10207000DF6E20EE02F03550D9263650DA22500EAF
:10208000DE6E020EDD6E35C0D9FF36C0DAFF020CFF
:1020900002015039E832030B1EE0120000017F8F6D
:1020A000080E906F080C530E00017C6F34D0545111
:1020B0004E0F226E22C07CF000012DD000017F8FD8
:1020C000020154514E0F91EF0EF0146A020E6DECA6
:1020D00015F0D8EF10F0515102E15CEF11F0010A58
:1020E00002E19CEF0AF0020A02E19CEF0AF0060A04
:1020F000D5E0030A02E187EF0CF0010AE6E00F0ADF
:10210000D2E0010A02E1A9EF0FF0030AD0E0010AD0
:10211000D5E0070A12007D6B7F81010E806F7F8FF3
:10212000010C35D8000EDFBC010E026E040E601BE0
:102130006151080E90190BE1020152517F0B0F0102
:102140005C6F5C51100ED8B4040E0001906F440413
:1021500012E128D821D855EC0FF0020E451803E102
:1021600016D8040E0CD0025003E111D8480E07D047
:102170000ED8080E04D077BF779F446A1200DF6E36
:1021800060C0D9FF61C0DAFF000EDB8E000C60C0BA
:10219000D9FF61C0DAFF1200DA22580EDE6E020E9D
:1021A000DD6E020C20EE02F06051D9266151120062
:1021B00013C00AF014C00BF015C00CF016C00DF0DF
:1021C00017C00EF018C00FF034EC13F013D00D6AE6
:1021D000010E0E6E0F6E020E106E000E6AEC0BF00A
:1021E000020E0D6E030E0E6E0F6E040E106E010EBB
:1021F0006AEF0BF013C019F014C01AF01A5004E083
:102200007F0AD8A4120017D01950010AE0E0030A8F
:10221000D8B41200010A02E13BEF0EF0060AD8B46E
:102220001200770AD8B41200010AD8B41200070AC3
:10223000D8A4010A1200191C12009EAA14D0ABA245
:1022400006D08D6BAB98AECF66F1AB880BD01F0E6E
:102250008D6108D0660E8D25D96EDA6A010EDA22FC
:10226000AECFDFFF8D2B8D510CE0BB510AE1660E26
:10227000DC6F010EDD6F8DC0DEF0010E73EC14F02B
:102280008D6B8E518F5D0CE2ACA21200860E8F25F5
:10229000D96EDA6A010EDA22DF50AD6E8F2B120092
:1022A000860EE56F010EE66F200EE76F010EFBEC68
:1022B0000CF08E6F8F6B12000201586B596B25D09A
:1022C00000017F8F430428E10201588325D00001DB
:1022D0007F8F22D000017F8F020154BF04D060ECB9
:1022E0000BF06A0F03D060EC0BF0600FD96EDA6A66
:1022F000DECF01F0DDCF02F019D8DFAE0DD016D859
:10230000DFA40AD0010E586F07D050511F0BD8E040
:10231000010ADDE0030ADEE000017FAF1200580E83
:102320007C6F020E7D6F7F81806F020C01C0D9FF30
:1023300002C0DAFF1200066E076A020E086E015034
:10234000026E036AD890023603360650046E056AA0
:1023500024D802500426035005221FD80450072613
:102360000550082221D8DF9E015004E1065043ECBD
:102370000FF003D0065047EC0FF0D96EDA6A07C0B1
:10238000DEFF08C0DDFF10D8DF9C20EE04F0075010
:10239000D9260850DA22DF8C1200D8900436053690
:1023A000D89004360536120007C0D9FF08C0DAFFFE
:1023B0001200DD6F2AD0DCB102D08B9E01D08B8E53
:1023C0001200DCB102D08A9801D08A881200DCB1F8
:1023D00002D08B9401D08B841200DCB102D08A9C95
:1023E00001D08A8C1200DCB102D08B9201D08B829A
:1023F0001200DCB102D08B9001D08B801200DCB1D6
:1024000002D08B9A01D08B8A12000001DD51D3E0FB
:10241000010AD7E0030ADBE0010ADFE0070AE3E094
:10242000010AE7E0030AEBE01200DD6F2AD0DCB11D
:1024300002D0949E01D0948E1200DCB102D0939809
:1024400001D093881200DCB102D0949401D094841E
:102450001200DCB102D0939C01D0938C1200DCB14D
:1024600002D0949201D094821200DCB102D09490F8
:1024700001D094801200DCB102D0949A01D0948AE9
:1024800012000001DD51D3E0010AD7E0030ADBE0CE
:10249000010ADFE0070AE3E0010AE7E0030AEBE0F4
:1024A0001200010EDC6F000E15EC12F0010E00019F
:1024B000DC6F15EC12F0010E0001DC6F020E15EC62
:1024C00012F0010E0001DC6F030E15EC12F0010E8C
:1024D0000001DC6F050E15EC12F0010E0001DC6F3F
:1024E000060E15EC12F00001DC6B040E15EC12F078
:1024F0000001DC6B040ED9EC11F0640EE7EC15F072
:10250000010EDC6F040ED9EC11F0010E0001DC6F3E
:10251000040E15EF12F03D50D8A41200010E3D6ECE
:102520003C50D8A41200010E3C6E020E44180BE180
:10253000000120EE01F0A4EC0FF0DF6AC7EC10F010
:10254000480EBFEF10F04404D8A41200406A20EEF9
:1025500001F016D8E2EC0EF013D8500EDE6E020E2B
:10256000DD6E1CEC15F0040EDF6E1CEC15F0000E99
:10257000DB8E010E406E31EC10F0800EDF6E800CB1
:102580003750D9263850DA2212002D0E3F6E52C035
:1025900023F0FD0E23162AE1D89052303F0B040D94
:1025A000000EF324376E020EF420F6EC0FF0040E4A
:1025B000351A36501CEC15F0DF30E8320F0B0D0ADF
:1025C00002E093EF15F0500E016E020E026E20EE47
:1025D00002F0C0EC12F0DECF03F0DDCF04F0066AAB
:1025E000080E056E96EC14F04DEF14F05250FD0BF2
:1025F000040AD8B491EC10F01200DC6F0001DD6920
:1026000023D0000E82BE010EDD6F2CD0000E81B8EB
:10261000010EDD6F27D0000E82B4010EDD6F22D0D7
:10262000000E81BC010EDD6F1DD0000E82B2010EC6
:10263000DD6F18D0000E82B0010EDD6F13D0000EDA
:1026400082BA010EDD6F0ED0DC51DBE0010ADEE064
:10265000030AE1E0010AE4E0070AE7E0010AEAE030
:10266000030AEDE0DD511200050E0A180B10D8A484
:102670001200126A12505FEC0DF0DE500C1813E1DC
:10268000DE500D1810E1016A1250D8EC0BF0EBECA3
:102690000BF01250A6EC09F0F9EC0EF012505FECC2
:1026A0000DF002EC0CF0125096EC09F0DE500C1814
:1026B0000BE1DE500D1808E1125090EC09F0DF6AD2
:1026C00012509CEC09F0DF6A122A010E1264D2D774
:1026D000010CCAEC0DF0540E0001DC6F0F0EDD6F23
:1026E000DF6BDE6BE16B040EE06F38EC15F0FFEC96
:1026F00014F00001E46BE451BEEC0DF0E42B130E7A
:10270000E465F9D7AAEC0DF0E46BE4511BEC0EF094
:10271000DE6ADD6AE45121EC0EF0DE6ADD6AE45126
:10272000D0EC0DF0E451D5EC0DF0E42B040EE46593
:10273000ECD7080E91EF0DF0E1CF25F0E2CF26F0B7
:10274000D9CF27F0DACF28F0F3CF29F0F4CF2AF051
:10275000F6CF2BF0F7CF2CF0F8CF2DF0F5CF2EF0F1
:10276000A1A403D007EC0CF0A1942EC0F5FF2DC05E
:10277000F8FF2CC0F7FF2BC0F6FF2AC0F4FF29C0DA
:10278000F3FF28C0DAFF27C0D9FF26C0E2FF25C02B
:10279000E1FF549211003B6A3A6A020E441810E1BC
:1027A00020EE01F0DDEC0EF0E2EC0EF0DDEC0EF0D0
:1027B000F4EC0EF0EFEC0EF0480EE7EC0EF0000C2F
:1027C000000180510201565D0001815102015759FB
:1027D00004E256C280F057C281F055EC0FF0D2EC03
:1027E00010F0CCEC10F0C7EC10F0480EBFEF10F07A
:1027F000060EF66E2C0EF76E000EF86E0900F5CF81
:10280000EEF00900F5CFEFF001EE00F0A60EEE6A53
:10281000E806FDE100EE60F07B0EEE6AE806FDE101
:1028200000EE2FF0250EEE6AE806FDE102EE80F0E4
:10283000800EEE6AE806FDE154905492000EF86EA8
:10284000000121EF15F0E56FEEC0D9FFEFC0DAFF10
:102850007E0EDF6E000120EE01F013D8DF6A20EE5D
:1028600002F00FD8E3C0DFFF20EE03F00AD8E5C086
:10287000DFFF20EE04F005D8E4C0DFFF07D8F1EF5A
:1028800015F0EE51D926EF51DA221200EEC0E0F039
:10289000EFC0E1F0260EE26F260C456A3E6A3B6A05
:1028A0003A6A406A446AC7EC10F017D8C7EC10F0D7
:1028B00014D8EFEC0EF07F0EDF167F6B806B816B10
:1028C000776B786B796B48EC10F0146A030E6DEC43
:1028D00015F0D8EC10F0FCEF0FF07F0EDF16040EB1
:1028E000601B61511200DF6FA0940001DF5190EC7A
:1028F00009F0DF5019E1DF51250DF350970FD96E24
:10290000DA6ADCC0DEFFDDC0DDFFDF519CEC09F0E0
:10291000DEC0DFFFDF51B2EC09F0010EDF6EDF51E8
:1029200090EC09F0010EDF6EA084120003C009F0E4
:1029300004C00AF001C007F002C008F00ED009C0C0
:10294000D9FF0AC0DAFF07C0E1FF08C0E2FFDFCF0E
:10295000E7FF094A0A2A074A082A0506D8A00606F8
:102960000528EDE10628EBE11200000E8C25E56F4D
:10297000E66B010EE6238C514608E76F000EFBEC78
:102980000CF0ED6FED5102E0ED518C27460E8C19E5
:10299000D8A41200000EE66F010EE76FBDEC09F03F
:1029A0008C6B12000C6E09A404D0016A0C509BECD5
:1029B00011F009A205D0010E016E0C509BEC11F034
:1029C000530E0C240A6E0B6A0F0E0B220AC0D9FF9D
:1029D0000BC0DAFF09C0DFFF0F0C9051D8A4120022
:1029E000646A606A0CD8D08EA284A084F28E01D072
:1029F000648664A6FDD7010E0001906F010C160ECF
:102A0000616E9F0E0F015B6F7B0E606E7B0C0F0182
:102A100053A110D011D8800EDE180BE1C7EC10F0D6
:102A2000840EDE1806E108D80C0EDF6E05D8000E05
:102A3000DB8E5391629A120037C0D9FF38C0DAFF9B
:102A4000120004EC16F069EC13F0EDEC14F051EC0C
:102A500012F083EC15F01F0E00019065FCD764B2F4
:102A6000FAD7B5EC14F01DEC11F0D0EC08F0F3D768
:102A7000DCC0E2F0DDC0E3F008D0E2C0D9FFE3C083
:102A8000DAFFDEC0DFFFE24BE32BE007D8A0E1076F
:102A9000E029F3E1E129F1E1120001C007F002C0F1
:102AA00008F008D007C0D9FF08C0DAFF03C0DFFF75
:102AB000074A082A0506D8A006060528F3E10628D5
:102AC000F1E11200608462986482010E426E396AFC
:102AD000146A750E02D8D8EF10F0136E156A166AD4
:102AE000186A176A12007F927F94949E9388939C31
:102AF000C79EC78CC86AC698C696C694C682C6903A
:102B00009D96C68A12007F96939E938AAC6AAC8A81
:102B1000AC84AB6AAB8EAB88B86AB886670EAF6E12
:102B2000B06AAE501200020E441802E19BEF0EF0A4
:102B3000446A405006E131EC10F00C0EE7EC0EF068
:102B4000000C406A12000BD0DCC0D9FFDDC0DAFFF8
:102B5000DF50C96EDC4BDD2BC7A0FED7DE07DE5190
:102B6000F3E11200426A146A740E6DEC15F0D8ECB1
:102B700010F06492609401D0629462B4FDD7396A17
:102B800012000AD0FAEC15F0DCC0D9FFDDC0DAFF84
:102B9000DF6EDC4BDD2BDE07DE51F4E112002F2A65
:102BA000000E3022312232224250D8A41200392A9B
:102BB0003950D8B439681200DC6FC9509E96C69E51
:102BC000DCC0C9FFC6BE12009EB61200FDD70001D0
:102BD000DC6FC80E00D0E82EFDD70001DC2FF9D73E
:102BE0001200E0C0DCF0E1C0DDF0E2C0DEF0000E7B
:102BF00073EF14F0C9509E96C96A9EA6FED7C950BD
:0A2C00001200C69A120046011200ED
:020000040020DA
:08000000FFFFFFFFFFFFFFFF00
:020000040030CA
:0E0000000032011EFF0001FF03C003E00340B9
:00000001FF
