:0410000013EF08F0F2
:06100800548297EF14F082
:101018005480E0CFC1F0C1C0E0FF5490100000EF51
:1010280015F0002C11B410FA10E610D21037100980
:10103800027D00040100C03209040000010202011F
:1010480003052400100104240202052406000105FA
:1010580024010001070581030800020904010002B8
:101068000A0000030705020210000007058202407B
:101078000000090402000102020104052400100115
:1010880004240202052406020305240100030705BF
:10109800830308000209040300020A00000407058C
:1010A8000402100000070584021000001E034E0011
:1010B80075006D00610074006F0020005300790016
:1010C8007300740065006D0073001403460050003F
:1010D800470041002000550041005200540014030D
:1010E800530050004900200046006C006100730066
:1010F800680012034D0069006D0061007300200054
:10110800560032001201000202000008192A0210DB
:10111800000101020001312E300D0A003F0D0A00C6
:101128006D3E2000040309044315060039D92CEC50
:1011380017F00001A16B48D942D9976B010E966F41
:101148008C6B8D6B8E6B8F6B92C0CBF093C0CCF099
:101158000001925130D948EC0DF0A06FA05112E176
:10116800A151F2E198519C5DD36F99519D59D46F6B
:10117800D45103E1650ED35DE7E312D92CEC17F0E7
:1011880023D9E2D7A15106E1010EB1EC13F0010E0B
:101198000001A16FA051010DF3509227F450932341
:1011A8009351010802E192510008CEE2030E0101B9
:1011B800001901E1D9D0000501E0C2D0000E0001FC
:1011C800D36F010ED46F92C0D5F093C0D6F0D3512F
:1011D800D55FD451D65BD6BFB7D7D65103E1850EBC
:1011E800D55DB2E3ECD883C194F0956B9451D36F7D
:1011F800010184510001946FD3C095F00101021DD3
:10120800011901E099D0000196510101011901E08D
:1012180093D0BED826EC14F09451C21903E195512D
:10122800C319D8A489D08C51D36F8D51D46FD56B85
:10123800D66BD311D511D61120E1010EBBEC16F0F7
:10124800060E65EC17F0000EBBEC16F0010EBBECB9
:1012580016F0D80E65EC17F000018E5165EC17F00A
:1012680000018D5165EC17F000018C5165EC17F009
:10127800000EBBEC16F07BEC17F0010EBBEC16F081
:10128800060E65EC17F0000EBBEC16F0010EBBEC79
:1012980016F0020E65EC17F000018E5165EC17F0A0
:1012A80000018D5165EC17F000018C5165EC17F0C9
:1012B800030E0001C26F010EC36F800EC46F0EECE7
:1012C80017F0000EBBEC16F07BEC17F0010EBBEC30
:1012D80016F0030E65EC17F000018E5165EC17F05F
:1012E80000018D5165EC17F000018C5165EC17F089
:1012F800030E0001C26F010EC36F800EC46F1DEC98
:1013080017F0000EBBEC16F043D826EC14F09451FD
:10131800C21912E19551C3190FE1964B972B800E14
:101328008C27000E8D238E238F23320ED06F110E43
:101338003ED82CEC17F008D723D82CEC17F004D79C
:10134800040E001908E1320E0001D06F110E2FD8DB
:101358002CEC17F009D014D82CEC17F0000E000173
:10136800926F010E936FF0D6000EB1EC13F0270EBA
:101378000001D36FF50EE82EFED7D32FFCD712004D
:10138800310E0001D06F110ED16F010ED26F010C1A
:10139800030E0001C26F010EC36F800EC46F800C74
:1013A800300ED06F110ED16F010ED26F010CD16FBC
:1013B800010ED26F010C0008860FCD6F000C000ED5
:1013C800926F010E936F12009CC098F09DC099F027
:1013D8001200A0940001CF6BCF51D5D8DE50DE109B
:1013E8000CE0CF51D0D8DECFCBF0DDCFCCF0CBC0E6
:1013F800D9FFCCC0DAFFDFBE9DD00001CF51A1D804
:10140800030EDE1803E1CF519CD8DF6ACF5199D87B
:10141800DF5001E18FD0CF5194D8020EDE1811E1D0
:10142800010EC26FC36BC46BC56BCF51DAD88CEC9D
:101438000FF0CF51A8D8E3D8CF5183D8030EDF6E71
:1014480079D0CF517ED8DE0475E1CF51C2D8DCD82F
:10145800E16E010EF420E26EDE50E65C04E2D4D8C0
:10146800D96E010E03D0C6D8D96E010EF420DA6EFB
:10147800DF50CE6FCF51ADD8BDD8E16E010EF4204C
:10148800E26EE750CB6FCE51CB5DDF6ECF51ABEC48
:101498000BF0CF51270D8F0EF324E16E010EF420CF
:1014A800E26EDECFE6FFDDCFE5FFCEC0CDF0CF5157
:1014B800ADEC15F0DF500CE019D0CF5185D86BD8C2
:1014C800F76403D00800F55002D09EEC0EF041D826
:1014D800CD510EE0F2D7CF5177D85DD8F76403D05D
:1014E8000800F55002D09EEC0EF033D8CD51F3E150
:1014F800CF516FD8DF500EE1CF51B3EC0BF0CE5186
:10150800DE1804E1CF511DD8020E03D0CF5119D8EF
:10151800030EDF6E010EC26FCF51ABEC0BF0C3ECC4
:101528000DF0CEC0C5F0CF515CD88CEC0FF0CF5188
:101538002AD865D80001CF2B010ECF654DD7A084DE
:10154800010C270D8B0EF324D96E010EF420DA6EF0
:101558001200DF6E0001CF51270D8F0EF324D96ED4
:10156800010EF420DA6EDE2A000EDD22CF51270D9F
:101578008C0EF324D96E010EF420DA6EDE2A000EEA
:10158800DD22CD07000C270D980EF324D96E010E2D
:10159800F420DA6E1200010EF420DA6EDECFF6FFC8
:1015A800DECFF7FFCF51270D8F0EF324D96E010E32
:1015B800F420DA6EDECFCBF0DDCFCCF0CBC0D9FF94
:1015C800CCC0DAFF020E1200270D8C0EF324D96E60
:1015D8001200270D920EF324D96E010EF420DA6E54
:1015E8001200270D890EF324D96E010EF420DA6E4D
:1015F800DF501200CF51270D920EF3241200C2C003
:10160800DEFFC3C0DDFF1200CF51270D940EF32477
:101618001200116E1150B7D80DC0DFFF1150270D01
:10162800880EF324D96E010EF420DA6E0EC0DFFFA7
:101638001150A1D80FC0DFFF1150270D890EF324D8
:10164800D96E010EF420DA6E10C0DFFF115012E1DE
:1016580011507DD8800EDE6E020EDD6E115067D8F7
:10166800E00EDE6E020EDD6E115069D880D877D894
:10167800400E13D0110412E1115069D8D00EDE6E5D
:10168800020EDD6E115053D8C00EDE6E020EDD6EF6
:10169800115055D86CD863D8100EDF6E1150270D35
:1016A800A30EF324D96E010EF420DA6EDE6A4B0E17
:1016B800DE6E81D8270DA70EF324D96E010E6BD8E4
:1016C800A80EF324D96E010E66D8A90EF324D96E9C
:1016D800010EF420DA6E080EDF6E1150270D8A0E07
:1016E800F324D96E010EF420DA6EDF6A1A0E096E41
:1016F8000E50FCEC15F01E0E096E1050FCEC15F0A7
:10170800016A115014D852D8115019D8DF50046EFC
:1017180010504AEC10F01150ABEC0DF042D81150BB
:10172800C7EC0AF048D8A5EC0AF0DF6A000C270DD0
:101738009C0EF324D96E010EF420DA6E1200270DE8
:10174800950EF324D96E010EF420DA6E1200270DDF
:101758009A0EF324D96E010EF420DA6E1200270DCA
:10176800940EF324D96E010EF420DA6E1200100ED6
:10177800DF6E11501200270D870EF324D96E010E6B
:10178800F420DA6E1200270D860EF324D96E010EAE
:10179800F420DA6E1200F420DA6EDF6A1150270D99
:1017A800120001C0DEFF02C0DDFF1200DECF02F032
:1017B800DDCF03F01200DE6ADD6A1150120002016B
:1017C80052050DE150511F0B0AE100017F8F030EF6
:1017D8000201511903E1010E436E01D0436A5251CF
:1017E800D8A4120050511F0B020AD8A41200545159
:1017F8000F0BD8B4120054510F0B1B6E050E1B6053
:10180800050C200E0001A819D8A412007F8F020130
:1018180054BF07D054510F0BCDEC0FF08BD8820F6B
:1018280006D054510F0BD3EC0FF084D8870FD96E24
:10183800DA6ADF501F6E1FB003D0FB0E201602D0ED
:10184800040E2012215054BF03D082D86A0F02D050
:101858007FD8600FD96EDA6A20C0DEFF21C0DDFFB5
:10186800030E511914E156D8DFAE0BD054BF03D084
:101878006AD8820F02D067D8870FD96EDA6A00015A
:10188800DF8248D8000EDB8445D8DB8E000C040EBE
:10189800201A21503FD8DFAE0AD03CD87F0EDF1681
:1018A80039D8000EDB8C3BD871EC12F003D032D85B
:1018B800000EDB8C040E201A21501FB203D02AD848
:1018C800DFAE13D0020154BF03D03DD8820F02D03F
:1018D8003AD8870FD96EDA6A0001DF921BD83B0E1F
:1018E800DF161DD871EC12F003D014D83B0EDF16AA
:1018F800020154510F0B1B6E1C6A530E1B241D6EE4
:101908000F0E1C201E6E1DC0D9FF1EC0DAFFFE0E72
:10191800DF16FE0C20C0D9FF21C0DAFF1200146ABE
:10192800050E136E20C015F021C016F0186A020EBD
:10193800176E020CDECF20F0DDCF21F054510F0BD3
:101948001B6E1B50120054510F0B1B6E1B501200C4
:1019580054510F0B020DF350120001018B5101E09D
:1019680012000001905191110DE1280ED06F110E57
:10197800D16F030ED26F2CEC17F00001916B010EA2
:10198800906F010C860EDD190AE1010EDE1907E1E0
:10199800000EDD6F010EDE6F906B916B1200DDC0E3
:1019A800CBF0DEC0CCF0DD51DFEC09F048EC0DF0F7
:1019B8009E6F9E5101E11200DB6BDC6B9F6B10D0B8
:1019C80057D80D0EDE1804E053D80A0EDE1807E1CA
:1019D8009F51DD25DB6F000EDE21DC6F04D09F2BCD
:1019E8009E519F5DEDE3DB51DC112BE03AD8DF50CF
:1019F8009F6F45D80D0EDF6E34D80A0EDF6EDDC03E
:101A0800D0F0DEC0D1F0DD51DB5D020FD26F2CECDF
:101A180017F035D8DF6A000124D89FC0DFFF000E19
:101A2800D76F010ED86F000EDA6FDA51DB5DD96F10
:101A38005EEC15F0000E0001DD6F010EDE6F9E6B8F
:101A4800ABD7DDC0C2F0DEC0C3F09EC0C4F0000E4C
:101A58008BEC15F09E51010DF350DD27F450DE2379
:101A6800120020EE01F0DB51D926DC51DA221200F7
:101A78009F51DD25D96E000EDE21DA6E1200DBC023
:101A8800D9FFDCC0DAFF1200D26F000168D8DF6A24
:101A9800D2515DD8DE50DE100CE0D25158D8DECFDE
:101AA800CEF0DDCFCFF0CEC0D9FFCFC0DAFFDFBE9A
:101AB8004AD00001D2514BD85BD8CD51E65C05E243
:101AC800D25145D855D8E750CD6F49D8DF6A24D0D0
:101AD80046D8DF50CE6FD2519BEC0BF0DECFCFF063
:101AE800DDCFD0F0CE51CF25D96E000ED021DA6EE1
:101AF800D251270D8A0EF324E16E010EF420E26E16
:101B0800E750D16FD151CB25E16E000ECC21E26EAA
:101B1800DFCFE7FF24D8DF2A22D8CD51DE5CD8E317
:101B2800C26BD2519BEC0BF02AD8D251A3EC0BF02C
:101B3800DF50C56FD251F5EC0AF08CEC0FF0D251A2
:101B480006D803EC0BF000010AD8DF501200270D6D
:101B5800960EF324D96E010EF420DA6E1200D251DB
:101B6800270D8A0EF324D96E010EF420DA6E1200C6
:101B780010EE01F0DE50E126DD50E2221200DECF49
:101B8800C3F0DDCFC4F012000001A80507E164BA74
:101B980005D0626A60806088020EA86F62B460A493
:101BA80003D062943BEC17F064A202D0A194120017
:101BB80062B060A006D0BCEC0EF0A084040EA86F42
:101BC800629062B860A802D0CDEC16F062AC13D077
:101BD80060AC07D0146A730E136E156A50D871EC96
:101BE80012F0629C58EC17F03F5001E03F063F505E
:101BF80002E175EC13F062BA60AA02D04BEC16F061
:101C080062B260A209D07F0E146E1368156A37D8C5
:101C180071EC12F00F015F6B040E0001A86102D095
:101C2800A194040C60A629D0246A62A626D063CFAA
:101C380052F05230E832E8320F0B416E629652B4DD
:101C480003D04150820F02D04150870FD96EDA6A13
:101C58000001DF70415003E15FEC14F00AD0146A10
:101C6800720E136E520E156E166A186A176A71ECA8
:101C780012F0242A030E2464D8D7A1941200166AFD
:101C8800186A010E176E010C800E02015019D8A4B3
:101C98001200C00E00017F6F44D00C0E00017C6F53
:101CA800110E7D6F816B120E806F120C52515DE127
:101CB8005251020D350EF324F66E100E4DD8020E59
:101CC80000013ED8F76403D00800F55001D032D89F
:101CD8000001806F030E34D8F76403D00800F55074
:101CE80001D028D80001816F12003FD0050E526143
:101CF8003CD05251020D2B0EF324F66E100E2CD848
:101D08007CC0F6FF7DC0F7FFF86A020EF76403D0C7
:101D18000800F55001D00ED80001806F816B1200C9
:101D280024D002015351010AB8E0030ABFE0010AB6
:101D3800DDE01BD0F6CFE1FFF7CFE2FFE75012005E
:101D48007C25016E000E7D21026E01C0F6FF02C0E7
:101D5800F7FFF86A020E1200F420F76E0900F5CFBB
:101D68007CF00A00F5CF7DF0120000017F6B1200B5
:101D78005DD83DEC11F0A6EC16F029EC16F0096AD6
:101D8800095048D8092A130E0964FAD72FD8096AC6
:101D98000950D3EC0FF0DE6ADD6A0950CDEC0FF084
:101DA800DE6ADD6A09504DD8095046D8092A040E62
:101DB8000964EED7080E000100D0606F020E616F53
:101DC800160E0F01536F020E0201036F500E026FC1
:101DD800080E016F040E006F008F536A2F6A306A75
:101DE800316A326A396A0001A86B1200648C0F01EB
:101DF8005C6B6498649C629600017F6B776B786B70
:101E0800796B62B6F8D7010E3D6E3C6E3B6A3A6A52
:101E1800426A1200040D000EF324D96E020EF4205B
:101E2800DA6EDE6ADE6ADE6ADD6A1200A0940F01ED
:101E38005F6B626A536B1200820FD96EDA6ADF6ACF
:101E48001200870FD96EDA6ADF6A12000201505158
:101E58001F0BE80601E012005039E832030BE806D0
:101E680001E01200026A0250C7EC0BF0DE500201DA
:101E7800541934E00250BFEC0BF0DE50541938E12D
:101E88002DD041D8816B080E806F7F8125D03BD83B
:101E980023D056C278F057C279F02FD8746F010E4C
:101EA800F420756F7A6B7B6B778F22D026D87C6F86
:101EB800010EF4207D6F816B070E806FC10E7F6F5E
:101EC80017D00250270D9E0EF324D96E010EF42070
:101ED800DA6E52C2DFFF00017F8F0AD05151D1E084
:101EE800010AD5E0210AD5E0010AE0E0030AE9E0A9
:101EF800022A010E0264B7D7010C0250270DA30E67
:101F0800F32400011200460E00017C6F7D6B120065
:101F1800C86F0001C25104E0C85194EC10F003D01E
:101F2800C8519DEC10F0D96EDA6ADECFC9F0DDCF6A
:101F3800CAF0C951CA1103E1C26BC36B120020EE8B
:101F480002F042D8C3C0DEFFC4C0DDFF20EE01F0BE
:101F58003BD8C5C0DFFF33D8400EDF1630D8000E9F
:101F6800DB862DD8DB8EC25105E0C85118D81DD8A4
:101F7800600F04D0C8510DD818D86A0FD96EDA6A24
:101F8800C6C0DEFFC7C0DDFFC9C0C2F0CAC0C3F00B
:101F98001200020DF3506A0FD96EDA6A1200020DB0
:101FA800F350600FD96EDA6A1200DECFC6F0DDCFCB
:101FB800C7F0040EC61BC851020DF3501200C9C069
:101FC800D9FFCAC0DAFF1200C951D926CA51DA228C
:101FD800120020EE01F0A8EC13F0DF50026E025060
:101FE800785D000E795902E278C002F00250785FFD
:101FF800000E795B016A0FD0580E0124D96EDA6A97
:10200800020EDA2274C0E1FF75C0E2FFDFCFE7FFFE
:10201800744B752B012A0250015CEEE3785179115B
:1020280014E020EE01F01BD81FD819D8580EADECDB
:1020380013F060EC16F0DFBC04D023D8480E19D892
:10204800000C1FD8080E15D8000C82EC11F0040EF5
:1020580010D8779F3E50D8B475EC13F01200355065
:10206800D9263650DA221200080EDF6E20EE02F072
:10207800080CDF6E35C0D9FF36C0DAFF000EDB8EE4
:10208800000C35C0D9FF36C0DAFF1200076E0150C8
:1020980003E0075045D802D007504BD8D96EDA6A0A
:1020A800DECF08F0DDCF09F00850091003E1016A1E
:1020B800026A120020EE02F040D802C0DEFF03C020
:1020C800DDFF20EE01F039D804C0DFFF2DD8400E27
:1020D800DF162AD8000EDB8627D8DB8E015006E0F3
:1020E8000750D3EC0FF012D8600F05D00750CDEC95
:1020F8000FF00CD86A0FD96EDA6A05C0DEFF06C089
:10210800DDFF08C001F009C002F01200DECF05F0C3
:10211800DDCF06F0040E051A0750020DF350120029
:10212800020DF350600F120008C0D9FF09C0DAFF92
:102138001200020DF3506A0F12000850D9260950F8
:10214800DA221200080E016E000181510DE1080E1D
:10215800805D0AE280C001F0455002E1010E03D023
:10216800450402E1020E456E0150805F000E815B5E
:1021780020EE01F036D801C0DFFF580E336E020E94
:10218800346E7FB11AD00BD07CC0F6FF19D8F76433
:1021980003D00800F55002D09EEC0EF01AD801507A
:1021A800F3E112007CC0F6FF0BD8F76403D00800F7
:1021B800F55002D09EEC0EF00CD80150F3E112005D
:1021C8007DC0F7FFF86A33C0D9FF34C0DAFF020ECA
:1021D8001200DF6E00017C4B7D2B334A342A010646
:1021E80012006051D9266151DA22120000017F8F56
:1021F80040D8A6EC16F0016A020E026E046A036A61
:10220800066A500E056EA6EC16F0648C1B6A1B500D
:1022180025EC0FF01B5020EC0FF01B2A040E1B645A
:10222800F6D74E0E016E026A046A036A066A040E45
:10223800056EA6EC16F0649C080E0001606F020E95
:10224800616F000E376E020E1ED852C253F0535003
:1022580003E1100EA86F100C146A010E136E530ED2
:10226800156E43EC0EF071EC12F0200E0001A86F11
:10227800200C540E016E0F0E026E046A036A066A81
:10228800040E056E040C386E37C035F038C036F0D1
:102298001200649800017FBF14D077AF09D0020EF6
:1022A800446E3A5002E12FEC15F03C6A3D6A120088
:1022B80025D80C0E3DEC10F01BEC12F0040E13EFB9
:1022C80012F0020150AF0DD0010E446E3B5002E1F6
:1022D8002FEC15F03C6A3D6A3E50D8A4120075EF09
:1022E80013F0020E446E0AD8040E3DEC10F03C6A5E
:1022F8003D6A3E5002E175EF13F0120020EE01F046
:102308003550D9263650DA22080EDF6E20EE02F05C
:102318003550D9263650DA22500EDE6E020EDD6EAA
:1023280035C0D9FF36C0DAFF020C02015039E83255
:10233800030B21E0120000017F8F080EA86F080C24
:10234800530E00017C6F37D054514E0F226E22C0BD
:102358007CF0000130D000017F8F020154514E0FF4
:10236800D96EDA6A52C2DFFF1200146A020ED8EC84
:1023780016F071EF12F0515102E1F8EF12F0010A74
:1023880002E1E3EF0BF0020A02E1E3EF0BF0060AC9
:10239800D2E0030A02E148EF0EF0010AE6E00F0A74
:1023A800CFE0010A02E1FAEF10F0030ACDE0010ADA
:1023B800D2E0070A12007D6B7F81010E806F7F8F4C
:1023C800010C35D8000EDFBC010E026E040E601B36
:1023D8006151080EA8190BE1020152517F0B0F0140
:1023E8005C6F5C51100ED8B4040E0001A86F440451
:1023F80012E128D821D8A6EC10F0020E451803E106
:1024080016D8040E0CD0025003E111D8480E07D09C
:102418000ED8080E04D077BF779F446A1200DF6E8B
:1024280060C0D9FF61C0DAFF000EDB8E000C60C00F
:10243800D9FF61C0DAFF1200DA22580EDE6E020EF2
:10244800DD6E020C20EE02F06051D92661511200B7
:10245800010EB1EC13F0010EBBEC16F09F0E65EC0B
:1024680017F00D0E0001BF6F0A0EC06FB90EC26FD4
:10247800C36B030EC46F1DEC17F0020EA46FA451BA
:10248800020DF350BA0FD96E21D80F0B4AEC17F092
:10249800DF6EA451020DF350B90FD96E17D8D36F60
:1024A800D3390F0B4AEC17F0DF6EA407A4AFE7D7B8
:1024B800000EBBEC16F0000EB1EC13F0B90E0001E3
:1024C800D06FD16B080ED26F2CEF17F0DA6AA451D7
:1024D800B90FE16EE26AE750120013C00AF014C0A7
:1024E8000BF015C00CF016C00DF017C00EF018C098
:1024F8000FF0ECEC13F013D00D6A010E0E6E0F6E98
:10250800020E106E000E0DEC0BF0020E0D6E030E97
:102518000E6E0F6E040E106E010E0DEF0BF013C051
:1025280019F014C01AF01A5004E07F0AD8A4120057
:1025380017D01950010AE0E0030AD8B41200010AC2
:1025480002E12AEF0FF0060AD8B41200770AD8B4CD
:102558001200010AD8B41200070AD8A4010A12000E
:10256800191C12009EAA14D0ABA207D00001A56BBB
:10257800AB98AECFA9F0AB880AD00F0E0001A561C9
:1025880006D0A551A90FD96EDA6AAECFDFFFA52B09
:102598000001A5510DE00101B2510AE1A90E0001A7
:1025A800C26FC36BA5C0C4F0010E8BEC15F0A56B10
:1025B8000001A651A75D0CE2ACA21200D40EA7251B
:1025C800D96EDA6A010EDA22DF50AD6EA72B12003F
:1025D800D40ECB6F010ECC6F100ECD6F010E48ECF0
:1025E8000DF0A66FA76B12000201586B596B25D02E
:1025F80000017F8F430428E10201588325D00001A0
:102608007F8F22D000017F8F020154BF04D0ACEC31
:102618000CF06A0F03D0ACEC0CF0600FD96EDA6ADC
:10262800DECF01F0DDCF02F019D8DFAE0DD016D81D
:10263800DFA40AD0010E586F07D050511F0BD8E005
:10264800010ADDE0030ADEE000017FAF1200580E48
:102658007C6F020E7D6F7F81806F020C01C0D9FFF5
:1026680002C0DAFF1200066E076A020E086E0150F9
:10267800026E036AD890023603360650046E056A65
:1026880024D802500426035005221FD804500726D8
:102698000550082221D8DF9E015004E106509DEC28
:1026A80010F003D0065094EC10F0D96EDA6A07C027
:1026B800DEFF08C0DDFF10D8DF9C20EE04F00750D5
:1026C800D9260850DA22DF8C1200D8900436053655
:1026D800D89004360536120007C0D9FF08C0DAFFC3
:1026E80012003D50D8A41200010E3D6E3C50D8A4F3
:1026F8001200010E3C6E020E44180BE1000120EEA0
:1027080001F0F5EC10F0DF6A1BEC12F0480E13EF45
:1027180012F04404D8A41200406A20EE01F014D844
:1027280038EC10F011D8500E14D860EC16F0040EE6
:10273800DF6E60EC16F0000EDB8E010E406E82EC50
:1027480011F0800EDF6E800C3750D9263850DA220F
:102758001200DE6E020EDD6E020C0001C36FC35163
:1027680025E094928B92040E0001C26FE40EE82ECD
:10277800FED7C22FFCD700F07F927F94949E938857
:10278800939C94948B84C79EC78CC698C650F00BB4
:102798000109C66E9D96C68A040E0001C26FE40E3A
:1027A800E82EFED7C22FFCD700F012008DEC17F0F0
:1027B8008B84948E9388938C9484040E0001C26F4A
:1027C800E40EE82EFED7C22FFCD700F0A3EF16F0D8
:1027D800050E0A180B10D8A41200126A1250ABEC9E
:1027E8000DF0DE500C1818E1DE500D1815E1016AE5
:1027F80012509BEC0BF0DAEC0BF01250A3EC0BF040
:10280800DF50046E1250F5EC0AF04AEC10F012504A
:10281800ABEC0DF0D5EC0BF01250C7EC0AF0DE5023
:102828000C180BE1DE500D1808E11250A5EC0AF067
:10283800DF6A1250EDEC0AF0DF6A122A010E126408
:10284800CDD7010C100EC86F210EC76F9A6B9B6B0A
:10285800A36B29D0A351C225D96E000EC321DA6E0D
:10286800DF50C96FCA6BC951C66FC56BC5519A1B7A
:10287800C6519B1BA26B9BAF0ED09AC0C5F09BC0E4
:10288800C6F0D890C537C637C751C5199A6FC85111
:10289800C6199B6F03D0D8909A379B37A22B070E87
:1028A800A265E9D7A32BC451A35DD4E39AC0C2F0B3
:1028B8009BC0C3F012002D0E3F6E52C023F0FD0ED8
:1028C80023162AE1D89052303F0B040D000EF32452
:1028D800376E020EF42047EC11F0040E351A36500C
:1028E80060EC16F0DF30E8320F0B0D0A02E0FEEF65
:1028F80016F0500E016E020E026E20EE02F0A8ECE9
:1029080013F0DECF03F0DDCF04F0066A080E056E83
:10291800DBEC15F0B5EF15F05250FD0B040AD8B4F6
:10292800E5EC11F01200E1CF25F0E2CF26F0D9CF87
:1029380027F0DACF28F0F3CF29F0F4CF2AF0F6CF3A
:102948002BF0F7CF2CF0F8CF2DF0F5CF2EF0A1A477
:1029580003D0C8EC0DF0A1949DB09EA004D09E9029
:1029680000019C4B9D2B2EC0F5FF2DC0F8FF2CC0FD
:10297800F7FF2BC0F6FF2AC0F4FF29C0F3FF28C0D9
:10298800DAFF27C0D9FF26C0E2FF25C0E1FF549235
:1029980011001AEC0FF0540E0001C26F0F0EC36F36
:1029A800C56BC46BC76B040EC66F7CEC16F029ECC4
:1029B80016F00001CA6BCA510EEC0FF0CA2B130EA9
:1029C800CA65F9D7FAEC0EF0CA6BCA51D3EC0FF00E
:1029D800DE6ADD6ACA51CDEC0FF0DE6ADD6ACA51E3
:1029E80025EC0FF0CA5120EC0FF0CA2B040ECA6573
:1029F800ECD7080EE1EF0EF0160EF66E2F0EF76EFE
:102A0800000EF86E00EEDBF010EE04F00900F5CFD2
:102A1800EEFFE550E150FAE101EE00F0E40EEE6A57
:102A2800E806FDE100EE60F0610EEE6AE806FDE101
:102A380000EE2FF0250EEE6AE806FDE102EE80F0CA
:102A4800700EEE6AE806FDE154905492000EF86E9E
:102A5800000165EF16F03B6A3A6A020E441812E16B
:102A680020EE01F033EC10F038EC10F033EC10F0FD
:102A7800580EDE6E020EDD6E45EC10F0480E3DEC91
:102A880010F0000C000180510201565D00018151D7
:102A98000201575904E256C280F057C281F0A6ECF1
:102AA80010F026EC12F020EC12F01BEC12F0480E9D
:102AB80013EF12F014D0010EB1EF13F0000EB1EFC6
:102AC80013F01E0ED06F110ED16F050E05D0240E17
:102AD800D06F110ED16F030ED26F2CEF17F0D7C045
:102AE800D9FFD8C0DAFFDF50300AE8E0010AE3E096
:102AF800540A02E131EF16F0030A02E19AEF08F0F6
:102B08000F0A02E12CEF12F01F0ADBE0E0D7C56FD5
:102B1800A0940001C551A5EC0AF0DF5018E1C55199
:102B2800E8EC0AF0010EF420DA6EC2C0DEFFC3C082
:102B3800DDFFC551EDEC0AF0C4C0DFFFC55109D86F
:102B4800010EDF6EC551A5EC0AF0010EDF6EA08400
:102B58001200270D930EF324D96E010EF420DA6EBD
:102B68001200456A3E6A3B6A3A6A406A446A1BEC4C
:102B780012F017D81BEC12F014D845EC10F07F0EA9
:102B8800DF167F6B806B816B776B786B796B99EC59
:102B980011F0146A030ED8EC16F071EC12F04DEF38
:102BA80011F07F0EDF16040E601B6151120003C086
:102BB80009F004C00AF001C007F002C008F010D004
:102BC80009C0D9FF0AC0DAFFDF500B6E094A0A2A8A
:102BD80007C0D9FF08C0DAFF0BC0DFFF074A082A81
:102BE8000506D8A006060528EBE10628E9E112004B
:102BF8000C6E09A404D0016A0C5037EC13F009A23A
:102C080005D0010E016E0C5037EC13F0530E0C2456
:102C18000A6E0B6A0F0E0B220AC0D9FF0BC0DAFF2F
:102C280009C0DFFF0F0CA851D8A41200646A606ABB
:102C38000CD8D08EA284A084F28E01D0648664A6BB
:102C4800FDD7010E0001A86F010C160E616E9F0ED4
:102C58000F015B6F7B0E606E7B0C010EB1EC13F005
:102C6800010EBBEC16F0060E65EC17F0000EBBEC7F
:102C780016F0010EBBEC16F0C70E65EC17F0000E4F
:102C8800BBEC16F07BEC17F0000EB1EF13F00F0160
:102C980053A110D011D8800EDE180BE11BEC12F0F6
:102CA800840EDE1806E108D80C0EDF6E05D8000E7B
:102CB800DB8E5391629A120037C0D9FF38C0DAFF11
:102CC800120071EC17F0CDEC14F017EC16F091EC43
:102CD80016F0EEEC16F01F0E0001A865FCD764B2E2
:102CE800FAD7B1EC0CF0B6EC12F0EDEC09F0F3D732
:102CF800C2C0C8F0C3C0C9F008D0C8C0D9FFC9C095
:102D0800DAFFC4C0DFFFC84BC92BC607D8A0C70766
:102D1800C629F3E1C729F1E11200948E93889484BF
:102D2800938C9480948A94928B92140E0001C26FB3
:102D3800790EE82EFED7C22FFCD700D000D08B82A8
:102D48009482120001C007F002C008F008D007C042
:102D5800D9FF08C0DAFF03C0DFFF074A082A0506C3
:102D6800D8A006060528F3E10628F1E112000001C3
:102D7800C26FC25109E08B840A0EE82EFED78B94ED
:102D88000A0EE82EFED712008B840A0EE82EFED714
:102D98001200608462986482010E426E396A146A75
:102DA800750E02D871EF12F0136E156A166A186A5A
:102DB800176A1200010EBBEC16F0050E65EC17F051
:102DC80084EC17F00001C36F000EBBEC16F0000195
:102DD800C35112007F96939E938AAC6AAC8AAC84E6
:102DE800AB6AAB8EAB88B86AB886670EAF6EB06A4E
:102DF800AE501200020E441802E1EDEF0FF0446AE3
:102E0800405006E182EC11F00C0E3DEC10F0000C85
:102E1800406A12000BD0C2C0D9FFC3C0DAFFDF502E
:102E2800C96EC24BC32BC7A0FED7C407C451F3E178
:102E380012000BD084EC17F0C2C0D9FFC3C0DAFF70
:102E4800DF6E0001C24BC32BC407C451F3E112006B
:102E5800D0C0C2F0D1C0C3F0D2C0C4F0000E8BEC19
:102E680015F0EDEC09F001018B51FBE11200426A0B
:102E7800146A740ED8EC16F071EC12F06492609437
:102E880001D0629462B4FDD7396A1200C26F0A0E8B
:102E98000001C26103D0C251300F1200100EC2618E
:102EA8003F0CC251570F12002F2A000E3022312238
:102EB80032224250D8A41200392A3950D8B439687D
:102EC80012000001C26FC9509E96C69EC2C0C9FFBB
:102ED800C6BE12009EB61200FDD7CD80CF0ECD160D
:102EE8009D80F28CD08E9F80F28E9E90CF0C0A0E21
:102EF800E82EFED7DEEC16F0C46FC4A11200F7D797
:102F0800C9509E96C96A9EA6FED7C95012000001F4
:062F18000001C69A120040
:020000040020DA
:08000000FFFFFFFFFFFFFFFF00
:020000040030CA
:0E0000000032011EFF0081FF03C003E0034039
:00000001FF
