:0410000013EF08F0F2
:06100800548247EF14F0D2
:101018005480E0CFCEF0CEC0E0FF54901000E4EF53
:1010280014F0003011B410FA10E610D2103710097D
:10103800027D00040100C03209040000010202011F
:1010480003052400100104240202052406000105FA
:1010580024010001070581030800020904010002B8
:101068000A0000030705020210000007058202407B
:101078000000090402000102020104052400100115
:1010880004240202052406020305240100030705BF
:10109800830308000209040300020A00000407058C
:1010A8000402100000070584021000001E034E0011
:1010B80075006D00610074006F0020005300790016
:1010C8007300740065006D0073001403460050003F
:1010D800470041002000550041005200540014030D
:1010E800530050004900200046006C006100730066
:1010F800680012034D0069006D0061007300200054
:10110800560032001201000202000008192A0210DB
:101118000001010200016D696D61733E2000312EEE
:10112800300D0A003F0D0A000403090443150600A8
:101138006ED9F8EC16F00001AE6B76D9A36B010EF0
:10114800A26F906B916B926B936B8C6B8D6B8E6BAC
:101158008F6B4E0E0001D86F010ED96F400EDA6FFB
:10116800000E7AEC0DF0AD6FAD5112E1AE51F1E128
:10117800A451A65DE06FA551A759E16FE15103E1C4
:10118800650EE05DE6E343D9F8EC16F04DD9E1D7FA
:10119800AE5105E1BAEC15F0010E0001AE6F030E79
:1011A80001014E1901E11FD1020E4E1907E04E054B
:1011B80001E005D1050E0001AD6501D100018C519A
:1011C800E06F8D51E16FE26BE36BE011E211E31127
:1011D8000BE1060E5FEC17F06FEC17F00FD9D80E85
:1011E800A5EC16F056EC17F0AC6B020E01014E1987
:1011F80005E000019D6B800E9C6F04D0040E000179
:101208009D6F9C6B9CC09AF09DC09BF0A06BA16BDE
:101218009E6B9F6B90C08CF091C08DF092C08EF049
:1012280093C08FF0AA6B0101501D4F1908E100010E
:10123800A25101014F1903E1010E0001AC6F510EDB
:101248000001966F010E976F030EAD5FAD5133E04D
:10125800AD519A5D000E9B5902E29AC0ADF0AD51B6
:101268009A5F000E9B5BADC0E4F023D0AA5102E068
:101278008C510FE1AA5102E056EC17F0010EAA6F4B
:10128800060E5FEC17F06FEC17F0B8D8020EA5EC5D
:1012980016F096C0D9FF97C0DAFFDF5067EC17F059
:1012A8000001964B972BE4078C2B000E8D238E2381
:1012B8008F23E451DBE1AA5103E056EC17F0AA6B47
:1012C8009A519B1118E14E0EAD25D96EDA6A010EBE
:1012D800DA22DF50A06FA16B4F0EAD25D96EDA6A06
:1012E800010EDA22DF50E06FA051E16FE051A06FEC
:1012F800E1C0A1F01FD0400EAB6F020E9A25E06F3F
:10130800000E9B21E16FE15106E1400EE05D03E232
:101318009A51020FAB6F4E0ED86F010ED96FABC04A
:10132800DAF0000E7AEC0DF0AD6F4E0E966F010EEE
:10133800976F8CD7AC514DE0ED5128E09E6B9F6BB9
:1013480090C0D1F091C0D2F092C0D3F093C0D4F045
:10135800030EA5EC16F00001986B996B0FD09EC098
:10136800D0F09FC0D1F0000E67EC17F040EC15F0FC
:10137800D0C09EF0D1C09FF0984B992B9C51985D9E
:101388009D519959ECE36FEC17F004D0A0C09EF082
:10139800A1C09FF000019E51A0191BE19F51A11906
:1013A80018E1A24BA32B9C5190279D519123000E2D
:1013B80092239323360E32D8F8EC16F0CAD6040ED0
:1013C80001014E1906E1360E000128D8F8EC16F096
:1013D8000AD0350E0001DD6F110EDE6F010EDF6FD2
:1013E800F8EC16F0B6D6B6EC16F0270E0001E06F52
:1013F800F50EE82EFED7E02FFCD712008CC0D1F0F6
:101408008DC0D2F08EC0D3F08FC0D4F01200340E4D
:10141800DD6F110EDE6F010EDF6F010CDD6F110E37
:10142800DE6F010EDF6F010CA6C0A4F0A7C0A5F007
:101438001200A0940001DC6BDC51D5D8DE50DE1020
:101448000CE0DC51D0D8DECFD8F0DDCFD9F0D8C051
:10145800D9FFD9C0DAFFDFBE9DD00001DC51A1D889
:10146800030EDE1803E1DC519CD8DF6ADC5199D801
:10147800DF5001E18FD0DC5194D8020EDE1811E163
:10148800010ECF6FD06BD16BD26BDC51DAD8BEECCA
:101498000FF0DC51A8D8E3D8DC5183D8030EDF6EF7
:1014A80079D0DC517ED8DE0475E1DC51C2D8DCD8B5
:1014B800E16E010EF420E26EDE50E65C04E2D4D860
:1014C800D96E010E03D0C6D8D96E010EF420DA6E9B
:1014D800DF50DB6FDC51ADD8BDD8E16E010EF420D2
:1014E800E26EE750D86FDB51D85DDF6EDC51DBEC84
:1014F8000BF0DC51270D090EF324E16E010EF420E8
:10150800E26EDECFE6FFDDCFE5FFDBC0DAF0DC51CF
:101518008CEC15F0DF500CE019D0DC5185D86BD875
:10152800F76403D00800F55002D0D0EC0EF041D893
:10153800DA510EE0F2D7DC5177D85DD8F76403D0E2
:101548000800F55002D0D0EC0EF033D8DA51F3E1B0
:10155800DC516FD8DF500EE1DC51E3EC0BF0DB51CE
:10156800DE1804E1DC511DD8020E03D0DC5119D875
:10157800030EDF6E010ECF6FDC51DBEC0BF0F5ECE8
:101588000DF0DBC0D2F0DC515CD8BEEC0FF0DC51C2
:101598002AD865D80001DC2B010EDC654DD7A08464
:1015A800010C270D050EF324D96E010EF420DA6E16
:1015B8001200DF6E0001DC51270D090EF324D96EED
:1015C800010EF420DA6EDE2A000EDD22DC51270D32
:1015D800060EF324D96E010EF420DA6EDE2A000E10
:1015E800DD22DA07000C270D120EF324D96E010E46
:1015F800F420DA6E1200010EF420DA6EDECFF6FF68
:10160800DECFF7FFDC51270D090EF324D96E010E4A
:10161800F420DA6EDECFD8F0DDCFD9F0D8C0D9FF0C
:10162800D9C0DAFF020E1200270D060EF324D96E78
:101638001200270D0C0EF324D96E010EF420DA6E79
:101648001200270D030EF324D96E010EF420DA6E72
:10165800DF501200DC51270D0C0EF3241200CFC00E
:10166800DEFFD0C0DDFF1200DC51270D0E0EF32483
:101678001200116E1150B7D80DC0DFFF1150270DA1
:10168800020EF324D96E010EF420DA6E0EC0DFFFCD
:101698001150A1D80FC0DFFF1150270D030EF324FE
:1016A800D96E010EF420DA6E10C0DFFF115012E17E
:1016B80011507DD8800EDE6E020EDD6E115067D897
:1016C800E00EDE6E020EDD6E115069D880D877D834
:1016D800400E13D0110412E1115069D8D00EDE6EFD
:1016E800020EDD6E115053D8C00EDE6E020EDD6E96
:1016F800115055D86CD863D8100EDF6E1150270DD5
:101708001D0EF324D96E010EF420DA6EDE6A4B0E3C
:10171800DE6E7CD8270D210EF324D96E010E6BD80E
:10172800220EF324D96E010E66D8230EF324D96E47
:10173800010EF420DA6E080EDF6E1150270D040E2C
:10174800F324D96E010EF420DA6EDF6A1A0E096EE0
:101758000E5000EC16F01E0E096E105000EC16F03C
:10176800016A115014D84DD8115019D8DF50046EA1
:1017780010507FEC10F01150DDEC0DF04BD81150EB
:10178800F7EC0AF043D8D5EC0AF0DF6A000C270D15
:10179800160EF324D96E010EF420DA6E1200270D0E
:1017A8000F0EF324D96E010EF420DA6E1200270D05
:1017B800140EF324D96E010EF420DA6E1200270DF0
:1017C8000E0EF324D96E010EF420DA6E1200100EFC
:1017D800DF6E11501200270D010EF324D96E010E91
:1017E800F420DA6E1200270D000EF324D96E010ED4
:1017F800F420DA6E1200F420DA6EDF6A1150270D39
:101808001200DECF02F0DDCF03F01200DE6ADD6ADF
:101818001150120001C0DEFF02C0DDFF12000201FC
:1018280052050DE150511F0B0AE100017F8F030E95
:101838000201511903E1010E436E01D0436A52516E
:10184800D8A4120050511F0B020AD8A412005451F8
:101858000F0BD8B4120054510F0B1B6E050E1B60F2
:10186800050C200E0001B519D8A412007F8F0201C3
:1018780054BF07D054510F0BFFEC0FF08BD8820FD9
:1018880006D054510F0B05EC10F084D8870FD96E91
:10189800DA6ADF501F6E1FB003D0FB0E201602D08D
:1018A800040E2012215054BF03D082D86A0F02D0F0
:1018B8007FD8600FD96EDA6A20C0DEFF21C0DDFF55
:1018C800030E511914E156D8DFAE0BD054BF03D024
:1018D8006AD8820F02D067D8870FD96EDA6A0001FA
:1018E800DF8248D8000EDB8445D8DB8E000C040E5E
:1018F800201A21503FD8DFAE0AD03CD87F0EDF1621
:1019080039D8000EDB8C3BD861EC12F003D032D80A
:10191800000EDB8C040E201A21501FB203D02AD8E7
:10192800DFAE13D0020154BF03D03DD8820F02D0DE
:101938003AD8870FD96EDA6A0001DF921BD83B0EBE
:10194800DF161DD861EC12F003D014D83B0EDF1659
:10195800020154510F0B1B6E1C6A530E1B241D6E83
:101968000F0E1C201E6E1DC0D9FF1EC0DAFFFE0E12
:10197800DF16FE0C20C0D9FF21C0DAFF1200146A5E
:10198800050E136E20C015F021C016F0186A020E5D
:10199800176E020CDECF20F0DDCF21F054510F0B73
:1019A8001B6E1B50120054510F0B1B6E1B50120064
:1019B80054510F0B020DF35012000101055101E0C3
:1019C80012000001945195110DE11E0EDD6F110EEC
:1019D800DE6F070EDF6FF8EC16F00001956B010E55
:1019E800946F010C8E0EEB190AE1010EEC1907E158
:1019F8004E0EEB6F010EEC6F946B956B1200EBC003
:101A0800D8F0ECC0D9F0EB514E08400FDA6F000E59
:101A18007AEC0DF0A86FA85101E11200E96BEA6BAE
:101A2800A96B10D057D80D0EDE1804E053D80A0E53
:101A3800DE1807E1A951EB25E96F000EEC21EA6FEA
:101A480004D0A92BA851A95DEDE3E951EA112BE0D7
:101A58003AD8DF50A96F45D80D0EDF6E34D80A0E7C
:101A6800DF6EEBC0DDF0ECC0DEF0EB51E95D020F9C
:101A7800DF6FF8EC16F035D8DF6A000124D8A9C06A
:101A8800DFFF4E0EE56F010EE66F4E0EE86FE85170
:101A9800E95DE76F7DEC14F04E0E0001EB6F010E6F
:101AA800EC6FA86BA9D7EBC0CFF0ECC0D0F0A8C002
:101AB800D1F0000E6AEC15F0A851010DF350EB2798
:101AC800F450EC23120020EE01F0E951D926EA5136
:101AD800DA221200A951EB25D96E000EEC21DA6E3C
:101AE8001200E9C0D9FFEAC0DAFF1200DF6F000177
:101AF80068D8DF6ADF515DD8DE50DE100CE0DF51B8
:101B080058D8DECFDBF0DDCFDCF0DBC0D9FFDCC09E
:101B1800DAFFDFBE4AD00001DF514BD85BD8DA517B
:101B2800E65C05E2DF5145D855D8E750DA6F49D869
:101B3800DF6A24D046D8DF50DB6FDF51CBEC0BF0E7
:101B4800DECFDCF0DDCFDDF0DB51DC25D96E000E19
:101B5800DD21DA6EDF51270D040EF324E16E010E4C
:101B6800F420E26EE750DE6FDE51D825E16E000EFC
:101B7800D921E26EDFCFE7FF24D8DF2A22D8DA5155
:101B8800DE5CD8E3CF6BDF51CBEC0BF02AD8DF510A
:101B9800D3EC0BF0DF50D26FDF5125EC0BF0BEEC2D
:101BA8000FF0DF5106D833EC0BF000010AD8DF50F4
:101BB8001200270D100EF324D96E010EF420DA6EF0
:101BC8001200DF51270D040EF324D96E010EF42004
:101BD800DA6E120010EE01F0DE50E126DD50E2224E
:101BE8001200DECFD0F0DDCFD1F012000001B50534
:101BF80007E164BA05D0626A60806088020EB56F3A
:101C080062B460A403D0629407EC17F064A202D017
:101C1800A194120062B060A006D0EEEC0EF0A08491
:101C2800040EB56F629062B860A802D0C7EC16F0D7
:101C380062AC13D060AC07D0146A730E136E156AC9
:101C480050D861EC12F0629C3FEC17F03F5001E075
:101C58003F063F5002E19FEC13F062BA60AA02D03F
:101C680035EC16F062B260A209D07F0E146E1368CC
:101C7800156A37D861EC12F00F015F6B040E000192
:101C8800B56102D0A194040C60A629D0246A62A68A
:101C980026D063CF52F05230E832E8320F0B416E53
:101CA800629652B403D04150820F02D04150870F40
:101CB800D96EDA6A0001DF70415003E1D9EC13F004
:101CC8000AD0146A720E136E520E156E166A186ACE
:101CD800176A61EC12F0242A030E2464D8D7A19461
:101CE8001200166A186A010E176E010C800E0201A6
:101CF8005019D8A41200C00E00017F6F44D00C0EFA
:101D080000017C6F110E7D6F816B120E806F120CBB
:101D180052515DE15251020D350EF324F66E100E4C
:101D28004DD8020E00013ED8F76403D00800F550E4
:101D380001D032D80001806F030E34D8F76403D085
:101D48000800F55001D028D80001816F12003FD05B
:101D5800050E52613CD05251020D2B0EF324F66E43
:101D6800100E2CD87CC0F6FF7DC0F7FFF86A020E73
:101D7800F76403D00800F55001D00ED80001806F39
:101D8800816B120024D002015351010AB8E0030A02
:101D9800BFE0010ADDE01BD0F6CFE1FFF7CFE2FF9D
:101DA800E75012007C25016E000E7D21026E01C0F5
:101DB800F6FF02C0F7FFF86A020E1200F420F76E71
:101DC8000900F5CF7CF00A00F5CF7DF01200000184
:101DD8007F6B12005DD872EC11F090EC16F02DECD0
:101DE80016F0096A095048D8092A130E0964FAD767
:101DF8002FD8096A095005EC10F0DE6ADD6A09502F
:101E0800FFEC0FF0DE6ADD6A095048D809504BD85C
:101E1800092A040E0964EED7080E000100D0606F8D
:101E2800020E616F160E0F01536F020E0201036F4F
:101E3800500E026F080E016F040E006F008F536A78
:101E48002F6A306A316A326A396A0001B56B12004A
:101E5800648C0F015C6B6498649C629600017F6BD4
:101E6800776B786B796B62B6F8D7010E3D6E3C6E76
:101E78003B6A3A6A426A1200040D000EF324D96ED6
:101E8800020EF420DA6EDE6ADE6ADE6ADD6A1200AD
:101E9800A0940F015F6B626A536B1200870FD96EB3
:101EA800DA6ADF6A1200820FD96EDA6ADF6A120014
:101EB800020150511F0BE80601E012005039E832C8
:101EC800030BE80601E01200026A0250F7EC0BF07F
:101ED800DE500201541934E00250EFEC0BF0DE50F2
:101EE800541938E12DD041D8816B080E806F7F815D
:101EF80025D03BD823D056C278F057C279F02FD8D6
:101F0800746F010EF420756F7A6B7B6B778F22D01C
:101F180026D87C6F010EF4207D6F816B070E806FD1
:101F2800C10E7F6F17D00250270D180EF324D96EFB
:101F3800010EF420DA6E52C2DFFF00017F8F0AD053
:101F48005151D1E0010AD5E0210AD5E0010AE0E0CB
:101F5800030AE9E0022A010E0264B7D7010C025015
:101F6800270D1D0EF32400011200460E00017C6FA0
:101F78007D6B1200D56F0001CF5104E0D551C9EC3B
:101F880010F003D0D551D2EC10F0D96EDA6ADECF5A
:101F9800D6F0DDCFD7F0D651D71103E1CF6BD06B98
:101FA800120020EE02F042D8D0C0DEFFD1C0DDFF23
:101FB80020EE01F03BD8D2C0DFFF33D8400EDF1649
:101FC80030D8000EDB862DD8DB8ECF5105E0D551F9
:101FD80018D81DD8600F04D0D5510DD818D86A0F5D
:101FE800D96EDA6AD3C0DEFFD4C0DDFFD6C0CFF029
:101FF800D7C0D0F01200020DF3506A0FD96EDA6A1A
:102008001200020DF350600FD96EDA6A1200DECFAB
:10201800D3F0DDCFD4F0040ED31BD551020DF3500D
:102028001200D6C0D9FFD7C0DAFF1200D651D92680
:10203800D751DA22120020EE01F0D4EC13F0DF5071
:10204800026E0250785D000E795902E278C002F003
:102058000250785F000E795B016A0FD0580E012498
:10206800D96EDA6A020EDA2274C0E1FF75C0E2FFA7
:10207800DFCFE7FF744B752B012A0250015CEEE3BA
:102088007851791112E020EE01F019D81DD817D82F
:102098002DD84AEC16F0DFBC04D023D8480E19D846
:1020A800000C1FD8080E15D8000CB7EC11F0040E60
:1020B80010D8779F3E50D8B49FEC13F012003550DB
:1020C800D9263650DA221200080EDF6E20EE02F012
:1020D800080CDF6E35C0D9FF36C0DAFF000EDB8E84
:1020E800000C35C0D9FF36C0DAFF1200580EDE6E7C
:1020F800020EDD6E020C076E015003E0075045D852
:1021080002D007504BD8D96EDA6ADECF08F0DDCF9F
:1021180009F00850091003E1016A026A120020EE72
:1021280002F040D802C0DEFF03C0DDFF20EE01F060
:1021380039D804C0DFFF2DD8400EDF162AD8000E8C
:10214800DB8627D8DB8E015006E0075005EC10F03F
:1021580012D8600F05D00750FFEC0FF00CD86A0FAB
:10216800D96EDA6A05C0DEFF06C0DDFF08C001F0DF
:1021780009C002F01200DECF05F0DDCF06F0040E34
:10218800051A0750020DF3501200020DF350600FAC
:10219800120008C0D9FF09C0DAFF1200020DF3507F
:1021A8006A0F12000850D9260950DA221200080EC8
:1021B800016E000181510DE1080E805D0AE280C0C8
:1021C80001F0455002E1010E03D0450402E1020E80
:1021D800456E0150805F000E815B20EE01F036D81D
:1021E80001C0DFFF580E336E020E346E7FB11AD075
:1021F8000BD07CC0F6FF19D8F76403D00800F5505F
:1022080002D0D0EC0EF01AD80150F3E112007CC0D5
:10221800F6FF0BD8F76403D00800F55002D0D0ECD5
:102228000EF00CD80150F3E112007DC0F7FFF86AF8
:1022380033C0D9FF34C0DAFF020E1200DF6E00018E
:102248007C4B7D2B334A342A010612006051D92673
:102258006151DA22120000017F8F40D890EC16F00D
:10226800016A020E026E046A036A066A500E056E5F
:1022780090EC16F0648C1B6A1B5052EC0FF01B504C
:1022880057EC0FF01B2A040E1B64F6D74E0E016E96
:10229800026A046A036A066A040E056E90EC16F078
:1022A800649C080E0001606F020E616F000E376EAD
:1022B800020E1ED852C253F0535003E1100EB56FF0
:1022C800100C146A010E136E530E156E75EC0EF099
:1022D80061EC12F0200E0001B56F200C540E016E57
:1022E8000F0E026E046A036A066A040E056E040C79
:1022F800386E37C035F038C036F0120064980001E7
:102308007FBF14D077AF09D0020E446E3A5002E175
:1023180013EC15F03C6A3D6A120025D80C0E6DECE2
:1023280010F050EC12F0040E48EF12F0020150AF1A
:102338000DD0010E446E3B5002E113EC15F03C6ADF
:102348003D6A3E50D8A412009FEF13F0020E446E6F
:102358000AD8040E6DEC10F03C6A3D6A3E5002E16A
:102368009FEF13F0120020EE01F03550D9263650B9
:10237800DA22080EDF6E20EE02F03550D9263650EC
:10238800DA22500EDE6E020EDD6E35C0D9FF36C081
:10239800DAFF020C02015039E832030B21E0120087
:1023A80000017F8F080EB56F080C530E00017C6F7B
:1023B80037D054514E0F226E22C07CF0000130D02D
:1023C80000017F8F020154514E0FD96EDA6A52C252
:1023D800DFFF1200146A020ED2EC16F061EF12F061
:1023E800515102E1E8EF12F0010A02E113EF0CF09B
:1023F800020A02E113EF0CF0060AD2E0030A02E136
:102408007AEF0EF0010AE6E00F0ACFE0010A02E1D6
:102418002FEF11F0030ACDE0010AD2E0070A1200FB
:102428007D6B7F81010E806F7F8F010C35D8000E88
:10243800DFBC010E026E040E601B6151080EB51957
:102448000BE1020152517F0B0F015C6F5C51100EC2
:10245800D8B4040E0001B56F440412E128D821D87D
:10246800DBEC10F0020E451803E116D8040E0CD070
:10247800025003E111D8480E07D00ED8080E04D038
:1024880077BF779F446A1200DF6E60C0D9FF61C0D2
:10249800DAFF000EDB8E000C60C0D9FF61C0DAFFE6
:1024A8001200DA22580EDE6E020EDD6E020C20EEED
:1024B80002F06051D9266151120013C00AF014C00D
:1024C8000BF015C00CF016C00DF017C00EF018C0B8
:1024D8000FF065EC13F013D00D6A010E0E6E0F6E3F
:1024E800020E106E000E3DEC0BF0020E0D6E030E88
:1024F8000E6E0F6E040E106E010E3DEF0BF013C042
:1025080019F014C01AF01A5004E07F0AD8A4120077
:1025180017D01950010AE0E0030AD8B41200010AE2
:1025280002E15CEF0FF0060AD8B41200770AD8B4BB
:102538001200010AD8B41200070AD8A4010A12002E
:10254800191C12009EAA14D0ABA207D00001B26BCE
:10255800AB98AECFB6F0AB880AD00F0E0001B261CF
:1025680006D0B251B60FD96EDA6AAECFDFFFB22B02
:102578000001B2510DE001012C510AE1B60E000133
:10258800CF6FD06BB2C0D1F0010E6AEC15F0B26B10
:102598000001B351B45D0CE2ACA212008E0EB4255A
:1025A800D96EDA6A010EDA22DF50AD6EB42B120052
:1025B8008E0ED86F010ED96F100EDA6F010E7AECFD
:1025C8000DF0B36FB46B12000201586B596B25D034
:1025D80000017F8F430428E10201588325D00001C0
:1025E8007F8F22D000017F8F020154BF04D0DCEC22
:1025F8000CF06A0F03D0DCEC0CF0600FD96EDA6ACD
:10260800DECF01F0DDCF02F019D8DFAE0DD016D83D
:10261800DFA40AD0010E586F07D050511F0BD8E025
:10262800010ADDE0030ADEE000017FAF1200580E68
:102638007C6F020E7D6F7F81806F020C01C0D9FF15
:1026480002C0DAFF1200066E076A020E086E015019
:10265800026E036AD890023603360650046E056A85
:1026680024D802500426035005221FD804500726F8
:102678000550082221D8DF9E015004E10650D2EC13
:1026880010F003D00650C9EC10F0D96EDA6A07C012
:10269800DEFF08C0DDFF10D8DF9C20EE04F00750F5
:1026A800D9260850DA22DF8C1200D8900436053675
:1026B800D89004360536120007C0D9FF08C0DAFFE3
:1026C8001200050E0A180B10D8A41200126A125034
:1026D800DDEC0DF0DE500C1818E1DE500D1815E198
:1026E800016A1250CBEC0BF005EC0CF01250D3EC55
:1026F8000BF0DF50046E125025EC0BF07FEC10F05D
:102708001250DDEC0DF00EEC0CF01250F7EC0AF064
:10271800DE500C180BE1DE500D1808E11250D5EC14
:102728000AF0DF6A12501DEC0BF0DF6A122A010E64
:102738001264CDD7010C3D50D8A41200010E3D6E95
:102748003C50D8A41200010E3C6E020E44180BE156
:10275800000120EE01F02AEC11F0DF6A50EC12F0D3
:10276800480E48EF12F04404D8A41200406A20EE44
:1027780001F016D868EC10F013D8500EDE6E020E79
:10278800DD6E4AEC16F0040EDF6E4AEC16F0000E11
:10279800DB8E010E406EB7EC11F0800EDF6E800C00
:1027A8003750D9263850DA2212002D0E3F6E52C00B
:1027B80023F0FD0E23162AE1D89052303F0B040D6A
:1027C800000EF324376E020EF4207CEC11F0040E98
:1027D800351A36504AEC16F0DF30E8320F0B0D0A86
:1027E80002E0E8EF16F0500E016E020E026E20EEC7
:1027F80002F0D4EC13F0DECF03F0DDCF04F0066A6C
:10280800080E056EDFEC15F094EF15F05250FD0B35
:10281800040AD8B41AEC12F01200BAEC15F09F0EA4
:102828005FEC17F00D0E0001CC6F0A0ECD6FB16B87
:10283800000E67EC17F00001B06FB151020DF350B4
:10284800C60FD96EDA6AB0390F0B16EC17F0DF6EC7
:10285800B151020DF350C70FD96EDA6AB0510F0BA0
:1028680016EC17F0DF6EB12B020EB165E1D76FECF5
:1028780017F0B6EC16F0C60E0001DD6FDE6B080E21
:10288800DF6FF8EF16F0E1CF25F0E2CF26F0D9CFD1
:1028980027F0DACF28F0F3CF29F0F4CF2AF0F6CFDB
:1028A8002BF0F7CF2CF0F8CF2DF0F5CF2EF0A1A418
:1028B80003D0FAEC0DF0A1949DB09EA004D09E9098
:1028C8000001A64BA72B2EC0F5FF2DC0F8FF2CC08A
:1028D800F7FF2BC0F6FF2AC0F4FF29C0F3FF28C07A
:1028E800DAFF27C0D9FF26C0E2FF25C0E1FF5492D6
:1028F800110013D0ED6B1200010EED6F010C260EC6
:10290800DD6F110EDE6F050E05D02C0EDD6F110E7A
:10291800DE6F030EDF6FF8EF16F0E5C0D9FFE6C0F3
:10292800DAFFDF50300A02E1B6EF16F0010A02E1E1
:10293800BAEF15F0720AE0E0200ADCE0060A02E1CC
:1029480024EF17F0030A02E19CEF08F00F0A02E1F6
:1029580011EF14F01F0AD3E0D8D74CEC0FF0540E47
:102968000001CF6F0F0ED06FD26BD16BD46B040EFA
:10297800D36F66EC16F02DEC16F00001D76BD7512B
:1029880040EC0FF0D72B130ED765F9D72CEC0FF0CE
:10299800D76BD75105EC10F0DE6ADD6AD751FFEC32
:1029A8000FF0DE6ADD6AD75152EC0FF0D75157ECC1
:1029B8000FF0D72B040ED765ECD7080E13EF0FF0E6
:1029C800E60EF66E2E0EF76E000EF86E00EEE9F0CB
:1029D80010EE05F00900F5CFEEFFE550E150FAE101
:1029E80001EE00F09E0EEE6AE806FDE100EE60F0F2
:1029F8006E0EEE6AE806FDE100EE2FF0250EEE6A97
:102A0800E806FDE102EE80F0700EEE6AE806FDE1F0
:102A180054905492000EF86E00014FEF16F03B6A86
:102A28003A6A020E441810E120EE01F063EC10F04F
:102A380068EC10F063EC10F07AEC10F075EC10F024
:102A4800480E6DEC10F0000C000180510201565D3B
:102A5800000181510201575904E256C280F057C261
:102A680081F0DBEC10F05BEC12F055EC12F050EC5E
:102A780012F0480E48EF12F00001D66F100ED56F15
:102A8800210ED46FD651D36FD26BD251D01BD351F4
:102A9800D11BAF6BD1AF0ED0D0C0D2F0D1C0D3F024
:102AA800D890D237D337D451D219D06FD551D31942
:102AB800D16F03D0D890D037D137AF2B070EAF6581
:102AC800E9D7D0C0D0F0D1C0D1F0070CD26FA09414
:102AD8000001D251D5EC0AF0DF5018E1D25118ECC0
:102AE8000BF0010EF420DA6ECFC0DEFFD0C0DDFFA0
:102AF800D2511DEC0BF0D1C0DFFFD25109D8010E25
:102B0800DF6ED251D5EC0AF0010EDF6EA084120000
:102B1800270D0D0EF324D96E010EF420DA6E120083
:102B2800456A3E6A3B6A3A6A406A446A50EC12F067
:102B380017D850EC12F014D875EC10F07F0EDF1691
:102B48007F6B806B816B776B786B796BCEEC11F058
:102B5800146A030ED2EC16F061EC12F082EF11F059
:102B68007F0EDF16040E601B6151120094928B9247
:102B7800040E0001CF6FE40EE82EFED7CF2FFCD74E
:102B880000F07F927F94949E9388939C94948B8476
:102B9800C79EC78CC698C650F00B0109C66E9D9695
:102BA800C68A040E0001CF6FE40EE82EFED7CF2FA1
:102BB800FCD700F0120003C009F004C00AF001C0FD
:102BC80007F002C008F010D009C0D9FF0AC0DAFF28
:102BD800DF500B6E094A0A2A07C0D9FF08C0DAFF7E
:102BE8000BC0DFFF074A082A0506D8A006060528F5
:102BF800EBE10628E9E112000C6E09A404D0016A91
:102C08000C5027EC13F009A205D0010E016E0C50F0
:102C180027EC13F0530E0C240A6E0B6A0F0E0B22CE
:102C28000AC0D9FF0BC0DAFF09C0DFFF0F0CB5518E
:102C3800D8A41200646A606A0CD8D08EA284A084DA
:102C4800F28E01D0648664A6FDD7010E0001B56F2F
:102C5800010C160E616E9F0E0F015B6F7B0E606E8E
:102C68007B0C0F0153A110D011D8800EDE180BE198
:102C780050EC12F0840EDE1806E108D80C0EDF6E58
:102C880005D8000EDB8E5391629A120037C0D9FF27
:102C980038C0DAFF12004CEC17F0B1EC14F01BEC62
:102CA80016F07BEC16F0D8EC16F01F0E0001B56597
:102CB800FCD764B2FAD7E1EC0CF0A6EC12F01DECEC
:102CC8000AF0F3D7CFC0D5F0D0C0D6F008D0D5C021
:102CD800D9FFD6C0DAFFD1C0DFFFD54BD62BD3073B
:102CE800D8A0D407D329F3E1D429F1E11200948EB6
:102CF80093889484938C9480948A94928B92140EE3
:102D08000001CF6F790EE82EFED7CF2FFCD700D069
:102D180000D08B829482120001C007F002C008F034
:102D280008D007C0D9FF08C0DAFF03C0DFFF074A91
:102D3800082A0506D8A006060528F3E10628F1E1C9
:102D480012000001D56FD5515FEC17F00001D35187
:102D580067EC17F00001D25167EC17F00001D15170
:102D680067EF17F0C69A8B84948E9388938C94841B
:102D7800040E0001CF6FE40EE82EFED7CF2FFCD74C
:102D880000F08DEF16F0608462986482010E426E46
:102D9800396A146A750E02D861EF12F0136E156A5B
:102DA800166A186A176A12007F96939E938AAC6A0D
:102DB800AC8AAC84AB6AAB8EAB88B86AB886670E4F
:102DC800AF6EB06AAE501200020E441802E11FEF57
:102DD80010F0446A405006E1B7EC11F00C0E6DECAF
:102DE80010F0000C406A1200DDC0CFF0DEC0D0F059
:102DF800DFC0D1F0000E6AEC15F01DEC0AF00101FD
:102E08000551FBE11200426A146A740ED2EC16F006
:102E180061EC12F06492609401D0629462B4FDD7C0
:102E2800396A1200CF6F0A0E0001CF6103D0CF516B
:102E3800300F1200100ECF613F0CCF51570F120008
:102E4800BAEC15F0060E5FEC17F06FEC17F0C70E32
:102E58005FEC17F056EC17F0B6EF16F0050E5FECC6
:102E680017F0000E67EC17F00001D16F6FEC17F048
:102E78000001D15112002F2A000E302231223222B5
:102E88004250D8A41200392A3950D8B439681200EF
:102E9800CD80CF0ECD169D80F28CD08E9F80F28E85
:102EA8009E90CF0C8B8400D000F032EC17F0D26FDC
:102EB800D2A11200F8D70001D06F8B9400D000F097
:102EC800D05167EF17F00001CF6FCFC0C9FFC7A07F
:102ED800FED7C95012008B8400D000F012004E01BA
:032EE8004E010197
:020000040020DA
:08000000FFFFFFFFFFFFFFFF00
:020000040030CA
:0E0000000032011EFF0081FF03C003E0034039
:00000001FF
