:0410000013EF08F0F2
:061008005482E1EF13F039
:101018005480E0CFD1F0D1C0E0FF54901000AFEF82
:1010280014F0002C11B410FA10E610D21037100981
:10103800027D00040100C03209040000010202011F
:1010480003052400100104240202052406000105FA
:1010580024010001070581030800020904010002B8
:101068000A0000030705020220000007058202208B
:101078000000090402000102020104052400100115
:1010880004240202052406020305240100030705BF
:10109800830308000209040300020A00000407058C
:1010A8000402200000070584022000001E034E00F1
:1010B80075006D00610074006F0020005300790016
:1010C8007300740065006D0073001403460050003F
:1010D800470041002000550041005200540014030D
:1010E800530050004900200046006C006100730066
:1010F800680012034D0069006D0061007300200054
:10110800560032001201000202000008192A0210DB
:10111800000101020001312E300D0A003F0D0A00C6
:101128006D3E2000040309044315060035D9D7ECA9
:1011380016F00001A16B40D93AD9976B010E966F52
:101148008C6B8D6B8E6B8F6B92C0DBF093C0DCF079
:101158000001925136D98DEC0DF0A06FA05112E12B
:10116800A151F2E198519C5DE36F99519D59E46F4B
:10117800E45103E1650EE35DE7E30ED9D7EC16F021
:101188001BD9E2D7A15105E1010E7FEC14F0010E45
:10119800A16FA051010DF3509227F450932393515E
:1011A800010802E192510008CFE2030E0101001983
:1011B80001E1D9D0000501E0C2D0000E0001E36FC3
:1011C800010EE46F92C0E5F093C0E6F0E351E55FED
:1011D800E451E65BE6BFB8D7E65103E1850EE55D6D
:1011E800B3E3E5D883C194F0956B9451E36F0101A3
:1011F80084510001946FE3C095F00101021D0119AB
:1012080001E099D0000196510101011901E093D044
:10121800BBD870EC13F09451D21903E19551D3194E
:10122800D8A489D08C51E36F8D51E46FE56BE66BE0
:10123800E311E511E61120E1010E3DEC16F0060E72
:1012480010EC17F0000E3DEC16F0010E3DEC16F018
:10125800D80E10EC17F000018E5110EC17F00001B9
:101268008D5110EC17F000018C5110EC17F0000EA6
:101278003DEC16F028EC17F0010E3DEC16F0060ECA
:1012880010EC17F0000E3DEC16F0010E3DEC16F0D8
:10129800020E10EC17F000018E5110EC17F000014F
:1012A8008D5110EC17F000018C5110EC17F0030E63
:1012B8000001D26F010ED36F800ED46FB9EC16F017
:1012C800000E3DEC16F028EC17F0010E3DEC16F080
:1012D800030E10EC17F000018E5110EC17F000010E
:1012E8008D5110EC17F000018C5110EC17F0030E23
:1012F8000001D26F010ED36F800ED46FC8EC16F0C8
:10130800000E3DEC16F040D870EC13F09451D21951
:1013180012E19551D3190FE1964B972B800E8C272C
:10132800000E8D238E238F23320EE06F110E3BD8D3
:10133800D7EC16F009D720D8D7EC16F005D7040E4D
:10134800001908E1320E0001E06F110E2CD8D7EC1D
:1013580016F009D011D8D7EC16F0000E0001926FE4
:10136800010E936FF1D6000E7FEC14F0270ED36FA9
:10137800100ED26F1CEF17F0310E0001E06F110E46
:10138800E16F010EE26F010C030E0001D26F010E36
:10139800D36F800ED46F800C300EE06F110EE16FAA
:1013A800010EE26F010CE16F010EE26F010C000EFD
:1013B800926F010E936F12009CC098F09DC099F037
:1013C80012000008860FDD6F000CA0940001DF6B8F
:1013D800DF51B0D8DE50DE100CE0DF51ABD8DECFE5
:1013E800DBF0DDCFDCF0DBC0D9FFDCC0DAFFDFBE2D
:1013F80092D00001DF5196D8030EDE1803E1DF51C9
:1014080091D8DF6ADF518ED8DF5001E184D0DF51F7
:1014180089D8020EDE1811E1010ED26FD36BD46B9E
:10142800D56BDF51CFD84EEC0FF0DF5183D8D3D82E
:10143800DF5178D8030EDF6E6ED0DF5173D8DE042B
:101448006AE1DF517FD8200EDF6401D003D0DF517D
:1014580079D8DF50DE6FDF5175D8DF51250D920E38
:10146800F324E16E010EF420E26EE750DB6FDE51EB
:10147800DB5DDF6EDF5148EC0CF0DF51250D8F0E80
:10148800F324E16E010EF420E26EDECFE6FFDDCF3D
:10149800E5FFDEC0DDF0DF515AEC15F0DF500CE05F
:1014A80019D0DF518AD870D8F76403D00800F550F6
:1014B80002D060EC0EF04ED8DD510EE0F2D7DF51CD
:1014C8007CD862D8F76403D00800F55002D060ECED
:1014D8000EF040D8DD51F3E1DF5134D8DF500BE195
:1014E800200EDE1904E1DF511DD8020E03D0DF51B2
:1014F80019D8030EDF6E010ED26FDF5148EC0CF0E5
:1015080005EC0EF0DEC0D5F0DF515CD84EEC0FF0E4
:10151800DF5110D860D80001DF2B010EDF6558D7E6
:10152800A084010C250D8B0EF324D96E010EF42036
:10153800DA6E1200250D960EF324D96E010EF420F2
:10154800DA6E1200250D920EF324D96E010EF420E6
:10155800DA6E1200DF6E0001DF51250D8F0EF324C5
:10156800D96E010EF420DA6EDE2A000EDD22DF517C
:10157800250D8C0EF324D96E010EF420DA6EDE2AC6
:10158800000EDD22DD07000C010EF420DA6EDECF3E
:10159800F6FFDECFF7FFDF51250D8F0EF324D96E4E
:1015A800010EF420DA6EDECFDBF0DDCFDCF0DBC03D
:1015B800D9FFDCC0DAFF020E1200250D8C0EF324D1
:1015C800D96E1200250D890EF324D96E010EF42070
:1015D800DA6EDF501200D2C0DEFFD3C0DDFF12008A
:1015E800020152050DE150511F0B0AE100017F8FE6
:1015F800030E0201511903E1010E436E01D0436A43
:101608005251D8A4120050511F0B020AD8A412003C
:1016180054510F0BD8B4120054510F0B1B6E050E0A
:101628001B60050C200E0001A819D8A412007F8F9A
:10163800020154BF07D054510F0B8FEC0FF08BD819
:10164800820F06D054510F0B95EC0FF084D8870FFA
:10165800D96EDA6ADF501F6E1FB003D0FB0E20165A
:1016680002D0040E2012215054BF03D082D86A0F32
:1016780002D07FD8600FD96EDA6A20C0DEFF21C0A1
:10168800DDFF030E511914E156D8DFAE0BD054BF5D
:1016980003D06AD8820F02D067D8870FD96EDA6A6A
:1016A8000001DF8248D8000EDB8445D8DB8E000CB1
:1016B800040E201A21503FD8DFAE0AD03CD87F0E46
:1016C800DF1639D8000EDB8C3BD8F1EC11F003D0D3
:1016D80032D8000EDB8C040E201A21501FB203D022
:1016E8002AD8DFAE13D0020154BF03D03DD8820FF1
:1016F80002D03AD8870FD96EDA6A0001DF921BD878
:101708003B0EDF161DD8F1EC11F003D014D83B0EB8
:10171800DF16020154510F0B1B6E1C6A530E1B245B
:101728001D6E0F0E1C201E6E1DC0D9FF1EC0DAFFD5
:10173800FE0EDF16FE0C20C0D9FF21C0DAFF120012
:10174800146A050E136E20C015F021C016F0186A31
:10175800020E176E020CDECF20F0DDCF21F05451BF
:101768000F0B1B6E1B50120054510F0B1B6E1B509E
:10177800120054510F0B020DF3501200116E11504C
:101788008BD80DC0DFFF1150250D880EF324D96EBC
:10179800010EF420DA6E0EC0DFFF115085D80FC09D
:1017A800DFFF1150250D890EF324D96E010EF420A8
:1017B800DA6E10C0DFFF11500CE1115065D8E00E51
:1017C800DE6E020EDD6E115057D8C00EDE6E020EB0
:1017D8000DD011040CE1115057D8A00EDE6E020E88
:1017E800DD6E115049D8800EDE6E020EDD6E11508E
:1017F800250DA10EF324D96E010EF420DA6EDE6AEF
:101808004B0EDE6E66D8250DA50EF324D96E010E9B
:101818005AD8A60EF324D96E010E55D8A70EF32474
:10182800D96E010EF420DA6E080EDF6E1150250D08
:101838008A0EF324D96E010EF420DA6EDF6A1A0ECE
:10184800096E0E50A9EC15F01E0E096E1050A9EC89
:1018580015F0016A115010D82FD810500FEC10F065
:101868001150EDEC0DF039D811509EEC0AF031D83A
:1018780096EC0AF0DF6A000C250D9A0EF324D96E57
:10188800010EF420DA6E1200250D980EF324D96E9D
:10189800010EF420DA6E1200250D860EF324D96E9F
:1018A800010EF420DA6E1200250D870EF324D96E8E
:1018B800010EF420DA6E1200DECF02F0DDCF03F065
:1018C800200E046E200CF420DA6EDF6A1150250D0C
:1018D8001200DE6ADD6A1150120001C0DEFF02C08C
:1018E800DDFF120001018B5101E01200000190514F
:1018F80091110DE1280EE06F110EE16F030EE26FFA
:10190800D7EC16F00001916B010E906F010C860E5A
:10191800ED190AE1010EEE1907E1000EED6F010E57
:10192800EE6F906B916B1200EDC0DBF0EEC0DCF057
:10193800ED51E5EC09F08DEC0DF09E6F9E5101E143
:101948001200EB6BEC6B9F6B10D057D80D0EDE18A6
:1019580004E053D80A0EDE1807E19F51ED25EB6F1E
:10196800000EEE21EC6F04D09F2B9E519F5DEDE39E
:10197800EB51EC112BE03AD8DF509F6F45D80D0E94
:10198800DF6E34D80A0EDF6EEDC0E0F0EEC0E1F095
:10199800ED51EB5D020FE26FD7EC16F035D8DF6A38
:1019A800000124D89FC0DFFF000EE76F010EE86F2B
:1019B800000EEA6FEA51EB5DE96FDEEC14F0000E01
:1019C8000001ED6F010EEE6F9E6BABD7EDC0D2F04C
:1019D800EEC0D3F09EC0D4F0000E38EC15F09E5146
:1019E800010DF350ED27F450EE23120020EE01F024
:1019F800EB51D926EC51DA2212009F51ED25D96E10
:101A0800000EEE21DA6E1200EBC0D9FFECC0DAFF4F
:101A180012000001A80507E164BA05D0626A608077
:101A28006088020EA86F62B460A403D06294E6ECEA
:101A380016F064A202D0A194120062B060A006D091
:101A48007EEC0EF0A084040EA86F629062B860A8C5
:101A580002D078EC16F062AC13D060AC07D0146AF0
:101A6800730E136E156A50D8F1EC11F0629C03ECFA
:101A780017F03F5001E03F063F5002E136EC13F00B
:101A880062BA60AA02D0F8EC15F062B260A209D07E
:101A98007F0E146E1368156A37D8F1EC11F00F0138
:101AA8005F6B040E0001A86102D0A194040C60A62B
:101AB80029D0246A62A626D063CF52F05230E83289
:101AC800E8320F0B416E629652B403D04150820F38
:101AD80002D04150870FD96EDA6A0001DF70415099
:101AE80003E1A9EC13F00AD0146A720E136E520EB9
:101AF800156E166A186A176AF1EC11F0242A030E9B
:101B08002464D8D7A1941200166A186A010E176EB9
:101B1800010CE26F000165D8DF6AE2515AD8DE5045
:101B2800DE100CE0E25155D8DECFDEF0DDCFDFF07D
:101B3800DEC0D9FFDFC0DAFFDFBE47D00001E251C7
:101B480048D858D8DD51E65C05E2E25142D852D86F
:101B5800E750DD6F46D8DF6A24D043D8DF50DE6F08
:101B6800E25140EC0CF0DECFDFF0DDCFE0F0DE51EB
:101B7800DF25D96E000EE021DA6EE251250D8A0EBE
:101B8800F324E16E010EF420E26EE750E16FE151BB
:101B9800DB25E16E000EDC21E26EDFCFE7FF21D806
:101BA800DF2A1FD8DD51DE5CD8E3D26BE25140EC6E
:101BB8000CF027D8200ED56FE251E6EC0AF04EEC77
:101BC8000FF0E25106D8EFEC0AF000010AD8DF5016
:101BD8001200250D940EF324D96E010EF420DA6E4E
:101BE8001200E251250D8A0EF324D96E010EF4205D
:101BF800DA6E120010EE01F0DE50E126DD50E2222E
:101C08001200DECFD3F0DDCFD4F01200800E020137
:101C18005019D8A41200C00E00017F6F44D00C0EDA
:101C280000017C6F110E7D6F816B120E806F120C9C
:101C380052515DE15251020D350EF324F66E100E2D
:101C48004DD8020E00013ED8F76403D00800F550C5
:101C580001D032D80001806F030E34D8F76403D066
:101C68000800F55001D028D80001816F12003FD03C
:101C7800050E52613CD05251020D2B0EF324F66E24
:101C8800100E2CD87CC0F6FF7DC0F7FFF86A020E54
:101C9800F76403D00800F55001D00ED80001806F1A
:101CA800816B120024D002015351010AB8E0030AE3
:101CB800BFE0010ADDE01BD0F6CFE1FFF7CFE2FF7E
:101CC800E75012007C25016E000E7D21026E01C0D6
:101CD800F6FF02C0F7FFF86A020E1200F420F76E52
:101CE8000900F5CF7CF00A00F5CF7DF01200000165
:101CF8007F6B12005DD802EC11F052EC16F0D6ECB6
:101D080015F0096A095048D8092A130E0964FAD748
:101D18002FD8096A095095EC0FF0DE6ADD6A095080
:101D28008FEC0FF0DE6ADD6A095048D809504BD8AD
:101D3800092A040E0964EED7080E000100D0606F6E
:101D4800020E616F160E0F01536F020E0201036F30
:101D5800500E026F080E016F040E006F008F536A59
:101D68002F6A306A316A326A396A0001A86B120038
:101D7800648C0F015C6B6498649C629600017F6BB5
:101D8800776B786B796B62B6F8D7010E3D6E3C6E57
:101D98003B6A3A6A426A1200040D000EF324D96EB7
:101DA800020EF420DA6EDE6ADE6ADE6ADD6A12008E
:101DB800A0940F015F6B626A536B1200870FD96E94
:101DC800DA6ADF6A1200820FD96EDA6ADF6A1200F5
:101DD800020150511F0BE80601E012005039E832A9
:101DE800030BE80601E01200026A025050EC0CF006
:101DF800DE500201541934E0025058EC0CF0DE5069
:101E0800541938E12DD041D8816B080E806F7F813D
:101E180025D03BD823D056C278F057C279F02FD8B6
:101E2800746F010EF420756F7A6B7B6B778F22D0FD
:101E380026D87C6F010EF4207D6F816B070E806FB2
:101E4800C10E7F6F17D00250250D9C0EF324D96E5A
:101E5800010EF420DA6E52C2DFFF00017F8F0AD034
:101E68005151D1E0010AD5E0210AD5E0010AE0E0AC
:101E7800030AE9E0022A010E0264B7D7010C0250F6
:101E8800250DA10EF32400011200460E00017C6FFF
:101E98007D6B1200D86F0001D25104E0D85159EC83
:101EA80010F003D0D85162EC10F0D96EDA6ADECFA8
:101EB800D9F0DDCFDAF0D951DA1103E1D26BD36B67
:101EC800120020EE02F042D8D3C0DEFFD4C0DDFFFE
:101ED80020EE01F03BD8D5C0DFFF33D8400EDF1627
:101EE80030D8000EDB862DD8DB8ED25105E0D851D4
:101EF80018D81DD8600F04D0D8510DD818D86A0F3B
:101F0800D96EDA6AD6C0DEFFD7C0DDFFD9C0D2F0FD
:101F1800DAC0D3F01200020DF3506A0FD96EDA6AF4
:101F28001200020DF350600FD96EDA6A1200DECF8C
:101F3800D6F0DDCFD7F0040ED61BD851020DF350E2
:101F48001200D9C0D9FFDAC0DAFF1200D951D92658
:101F5800DA51DA22120020EE01F06BEC13F0DF50B8
:101F6800026E0250785D000E795902E278C002F0E4
:101F78000250785F000E795B016A0FD0580E012479
:101F8800D96EDA6A020EDA2274C0E1FF75C0E2FF88
:101F9800DFCFE7FF744B752B012A0250015CEEE39B
:101FA8007851791112E020EE01F019D81DD817D810
:101FB8002DD80DEC16F0DFBC04D023D8480E19D864
:101FC800000C1FD8080E15D8000C47EC11F0040EB1
:101FD80010D8779F3E50D8B436EC13F01200355025
:101FE800D9263650DA221200080EDF6E20EE02F0F3
:101FF800080CDF6E35C0D9FF36C0DAFF000EDB8E65
:10200800000C35C0D9FF36C0DAFF1200580EDE6E5C
:10201800020EDD6E020C076E015003E0075045D832
:1020280002D007504BD8D96EDA6ADECF08F0DDCF80
:1020380009F00850091003E1016A026A120020EE53
:1020480002F040D802C0DEFF03C0DDFF20EE01F041
:1020580039D804C0DFFF2DD8400EDF162AD8000E6D
:10206800DB8627D8DB8E015006E0075095EC0FF091
:1020780012D8600F05D007508FEC0FF00CD86A0FFC
:10208800D96EDA6A05C0DEFF06C0DDFF08C001F0C0
:1020980009C002F01200DECF05F0DDCF06F0040E15
:1020A800051A0750020DF3501200020DF350600F8D
:1020B800120008C0D9FF09C0DAFF1200020DF35060
:1020C8006A0F12000850D9260950DA221200080EA9
:1020D800016E000181510DE1080E805D0AE280C0A9
:1020E80001F0455002E1010E03D0450402E1020E61
:1020F800456E0150805F000E815B20EE01F036D8FE
:1021080001C0DFFF580E336E020E346E7FB11AD055
:102118000BD07CC0F6FF19D8F76403D00800F5503F
:1021280002D060EC0EF01AD80150F3E112007CC026
:10213800F6FF0BD8F76403D00800F55002D060EC26
:102148000EF00CD80150F3E112007DC0F7FFF86AD9
:1021580033C0D9FF34C0DAFF020E1200DF6E00016F
:102168007C4B7D2B334A342A010612006051D92654
:102178006151DA22120000017F8F40D852EC16F02C
:10218800016A020E026E046A036A066A500E056E40
:1021980052EC16F0648C1B6A1B50E2EC0EF01B50DC
:1021A800E7EC0EF01B2A040E1B64F6D74E0E016EE8
:1021B800026A046A036A066A040E056E52EC16F097
:1021C800649C080E0001606F020E616F000E376E8E
:1021D800020E1ED852C253F0535003E1100EA86FDE
:1021E800100C146A010E136E530E156E88EC0DF068
:1021F800F1EC11F0200E0001A86F200C540E016EB6
:102208000F0E026E046A036A066A040E056E040C59
:10221800386E37C035F038C036F0120064980001C7
:102228007FBF14D077AF09D0020E446E3A5002E156
:102238000BEC15F03C6A3D6A120025D80C0EFDEC3B
:102248000FF0E0EC11F0040ED8EF11F0020150AFDE
:102258000DD0010E446E3B5002E10BEC15F03C6AC8
:102268003D6A3E50D8A4120036EF13F0020E446EB9
:102278000AD8040EFDEC0FF03C6A3D6A3E5002E1BC
:1022880036EF13F0120020EE01F03550D926365003
:10229800DA22080EDF6E20EE02F03550D9263650CD
:1022A800DA22500EDE6E020EDD6E35C0D9FF36C062
:1022B800DAFF020C02015039E832030B21E0120068
:1022C80000017F8F080EA86F080C530E00017C6F69
:1022D80037D054514E0F226E22C07CF0000130D00E
:1022E80000017F8F020154514E0FD96EDA6A52C233
:1022F800DFFF1200146A020E83EC16F0F1EF11F002
:10230800515102E1B9EF12F0010A02E1F4EF0AF0CB
:10231800020A02E1F4EF0AF0060AD2E0030A02E137
:102328000AEF0EF0010AE6E00F0ACFE0010A02E127
:10233800BFEF10F0030ACDE0010AD2E0070A12004D
:102348007D6B7F81010E806F7F8F010C35D8000E69
:10235800DFBC010E026E040E601B6151080EA81945
:102368000BE1020152517F0B0F015C6F5C51100EA3
:10237800D8B4040E0001A86F440412E128D821D86B
:102388006BEC10F0020E451803E116D8040E0CD0C1
:10239800025003E111D8480E07D00ED8080E04D019
:1023A80077BF779F446A1200DF6E60C0D9FF61C0B3
:1023B800DAFF000EDB8E000C60C0D9FF61C0DAFFC7
:1023C8001200DA22580EDE6E020EDD6E020C20EECE
:1023D80002F06051D9266151120013C00AF014C0EE
:1023E8000BF015C00CF016C00DF017C00EF018C099
:1023F8000FF017EC14F013D00D6A010E0E6E0F6E6D
:10240800020E106E000EC2EC0BF0020E0D6E030EE3
:102418000E6E0F6E040E106E010EC2EF0BF013C09D
:1024280019F014C01AF01A5004E07F0AD8A4120058
:1024380017D01950010AE0E0030AD8B41200010AC3
:1024480002E1ECEF0EF0060AD8B41200770AD8B40D
:102458001200010AD8B41200070AD8A4010A12000F
:10246800191C1200010E7FEC14F0010E3DEC16F061
:102478009F0E10EC17F00D0E0001CF6F0A0ED06FF3
:10248800C90ED26FD36B030ED46FC8EC16F0020ED0
:10249800A46FA451020DF350CA0FD96E20D80F0BA8
:1024A800F5EC16F0DF6EA451020DF350C90FD96E8A
:1024B80016D8E36FE3390F0BF5EC16F0DF6EA407BF
:1024C800A4AFE7D7000E3DEC16F0000E7FEC14F039
:1024D800C90EE06FE16B080EE26FD7EF16F0DA6A0B
:1024E800A451C90FE16EE26AE75012009EAA14D007
:1024F800ABA207D00001A56BAB98AECFA9F0AB8813
:102508000AD00F0E0001A56106D0A551A90FD96EFA
:10251800DA6AAECFDFFFA52B0001A5510DE001015E
:10252800B0510AE1A90E0001D26FD36BA5C0D4F057
:10253800010E38EC15F0A56B0001A651A75D0AE263
:10254800ACA21200A751B90FD96EDA6ADF50AD6E8E
:10255800A72B1200B90EDB6FDC6B100EDD6F010EBE
:102568008DEC0DF0A66FA76B12000201586B596B2A
:1025780025D000017F8F430428E10201588325D02C
:1025880000017F8F22D000017F8F020154BF04D049
:10259800BDEC0BF06A0F03D0BDEC0BF0600FD96EE9
:1025A800DA6ADECF01F0DDCF02F019D8DFAE0DD048
:1025B80016D8DFA40AD0010E586F07D050511F0B50
:1025C800D8E0010ADDE0030ADEE000017FAF120077
:1025D800580E7C6F020E7D6F7F81806F020C01C0E8
:1025E800D9FF02C0DAFF1200066E076A020E086EF3
:1025F8000150026E036AD890023603360650046E04
:10260800056A24D802500426035005221FD8045016
:1026180007260550082221D8DF9E015004E1065004
:1026280062EC10F003D0065059EC10F0D96EDA6A5B
:1026380007C0DEFF08C0DDFF10D8DF9C20EE04F0E5
:102648000750D9260850DA22DF8C1200D8900436B9
:102658000536D89004360536120007C0D9FF08C0E1
:10266800DAFF12003D50D8A41200010E3D6E3C5016
:10267800D8A41200010E3C6E020E44180BE10001B2
:1026880020EE01F0BAEC10F0DF6AE0EC11F0480E31
:10269800D8EF11F04404D8A41200406A20EE01F0EB
:1026A80016D8F8EC0FF013D8500EDE6E020EDD6E61
:1026B8000DEC16F0040EDF6E0DEC16F0000EDB8E3E
:1026C800010E406E47EC11F0800EDF6E800C375023
:1026D800D9263850DA221200100ED86F210ED76F83
:1026E8009A6B9B6BA36B29D0A351D225D96E000E90
:1026F800D321DA6EDF50D96FDA6BD951D66FD56B2B
:10270800D5519A1BD6519B1BA26B9BAF0ED09AC07A
:10271800D5F09BC0D6F0D890D537D637D751D51934
:102728009A6FD851D6199B6F03D0D8909A379B3798
:10273800A22B070EA265E9D7A32BD451A35DD4E33E
:102748009AC0D2F09BC0D3F012002D0E3F6E52C03B
:1027580023F0FD0E23162AE1D89052303F0B040DCA
:10276800000EF324376E020EF4200CEC11F0040E68
:10277800351A36500DEC16F0DF30E8320F0B0D0A23
:1027880002E0A9EF16F0500E016E020E026E20EE66
:1027980002F06BEC13F0DECF03F0DDCF04F0066A35
:1027A800080E056E88EC15F062EF15F05250FD0B1F
:1027B800040AD8B4AAEC11F01200E1CF25F0E2CF58
:1027C80026F0D9CF27F0DACF28F0F3CF29F0F4CFCD
:1027D8002AF0F6CF2BF0F7CF2CF0F8CF2DF0F5CF6D
:1027E8002EF0A1A403D00DEC0DF0A1949DB09EA0F5
:1027F80004D09E9000019C4B9D2B2EC0F5FF2DC050
:10280800F8FF2CC0F7FF2BC0F6FF2AC0F4FF29C041
:10281800F3FF28C0DAFF27C0D9FF26C0E2FF25C092
:10282800E1FF54921100050E0A180B10D8A41200EB
:10283800126A1250EDEC0DF0DE500C1813E1DE5068
:102848000D1810E1016A125040EC0CF060EC0CF02D
:102858001250E6EC0AF00FEC10F01250EDEC0DF00F
:1028680071EC0CF012509EEC0AF0DE500C180BE1E3
:10287800DE500D1808E1125096EC0AF0DF6A12508B
:10288800A6EC0AF0DF6A122A010E1264D2D7010CF4
:10289800DCEC0EF0540E0001D26F0F0ED36FD56B27
:1028A800D46BD76B040ED66F28EC16F0D6EC15F067
:1028B8000001DA6BDA51D0EC0EF0DA2B130EDA6580
:1028C800F9D7BCEC0EF0DA6BDA5195EC0FF0DE6A52
:1028D800DD6ADA518FEC0FF0DE6ADD6ADA51E2EC7C
:1028E8000EF0DA51E7EC0EF0DA2B040EDA65ECD7CD
:1028F800080EA3EF0EF00001D46FD4511BE09492A0
:102908008B9224D81CEC17F07F927F94949E938826
:10291800939C94948B84C79EC78CC86AC698C696A5
:10292800C694C682C6909D96C68AD36B010ED26F96
:102938001CEF17F045EC17F08B84948E9388938CDA
:10294800948404D81CEC17F075EF16F0030ED36FBF
:10295800E80ED26FE80C860EF66E2E0EF76E000E9D
:10296800F86E00EEEBF010EE04F00900F5CFEEFF84
:10297800E550E150FAE101EE00F0D00EEE6AE8060B
:10298800FDE100EE60F0710EEE6AE806FDE100EE92
:102998002FF0250EEE6AE806FDE102EE80F0800ECB
:1029A800EE6AE806FDE154905492000EF86E0001BC
:1029B80012EF16F014D0010E7FEF14F0000E7FEF27
:1029C80014F01E0EE06F110EE16F050E05D0240EF7
:1029D800E06F110EE16F030EE26FD7EF16F0E7C05C
:1029E800D9FFE8C0DAFFDF50300AE8E0010AE3E087
:1029F800540A02E1DEEF15F0030A02E19AEF08F04B
:102A08000F0A02E136EF12F01F0ADBE0E0D73B6A5B
:102A18003A6A020E441810E120EE01F0F3EC0FF0D0
:102A2800F8EC0FF0F3EC0FF00AEC10F005EC10F0F6
:102A3800480EFDEC0FF0000C000180510201565DBC
:102A4800000181510201575904E256C280F057C271
:102A580081F06BEC10F0EBEC11F0E5EC11F0E0EC30
:102A680011F0480ED8EF11F0D56FA0940001D551A0
:102A780096EC0AF0DF5018E1D551E1EC0AF0010EAE
:102A8800F420DA6ED2C0DEFFD3C0DDFFD551A6EC4C
:102A98000AF0D4C0DFFFD55109D8010EDF6ED55139
:102AA80096EC0AF0010EDF6EA0841200250D930E3D
:102AB800F324D96E010EF420DA6E1200456A3E6ADC
:102AC8003B6A3A6A406A446AE0EC11F017D8E0ECD5
:102AD80011F014D805EC10F07F0EDF167F6B806BB9
:102AE800816B776B786B796B5EEC11F0146A030E6F
:102AF80083EC16F0F1EC11F012EF11F07F0EDF16F7
:102B0800040E601B6151120003C009F004C00AF0F2
:102B180001C007F002C008F010D009C0D9FF0AC0F0
:102B2800DAFFDF500B6E094A0A2A07C0D9FF08C02E
:102B3800DAFF0BC0DFFF074A082A0506D8A00606F9
:102B48000528EBE10628E9E112000C6E09A404D07F
:102B5800016A0C50F8EC12F009A205D0010E016EC2
:102B68000C50F8EC12F0530E0C240A6E0B6A0F0E80
:102B78000B220AC0D9FF0BC0DAFF09C0DFFF0F0C18
:102B8800A851D8A41200646A606A0CD8D08EA284B6
:102B9800A084F28E01D0648664A6FDD7010E0001E0
:102BA800A86F010C160E616E9F0E0F015B6F7B0EF6
:102BB800606E7B0C010E7FEC14F0010E3DEC16F0FC
:102BC800060E10EC17F0000E3DEC16F0010E3DEC71
:102BD80016F0C70E10EC17F0000E3DEC16F028ECBE
:102BE80017F0000E7FEF14F00F0153A110D011D889
:102BF800800EDE180BE1E0EC11F0840EDE1806E121
:102C080008D80C0EDF6E05D8000EDB8E5391629A41
:102C1800120037C0D9FF38C0DAFF120032EC17F0C3
:102C28004CEC14F0C4EC15F067EC16F099EC16F0C7
:102C38001F0EA865FDD764B2FBD776EC0CF07AECD2
:102C480012F0E9EC09F0F4D7D2C0D8F0D3C0D9F02B
:102C580008D0D8C0D9FFD9C0DAFFD4C0DFFFD84B1D
:102C6800D92BD607D8A0D707D629F3E1D729F1E180
:102C780012000001D26FD2510BE08B84030EE82EB4
:102C8800FED700F08B94030EE82EFED700F012005A
:102C98008B84030EE82EFED700F0120001C007F067
:102CA80002C008F008D007C0D9FF08C0DAFF03C087
:102CB800DFFF074A082A0506D8A006060528F3E11B
:102CC8000628F1E11200948E93889484938C948062
:102CD800948A94928B92D36B640ED26F1CEC17F08B
:102CE80000D08B8294821200608462986482010E04
:102CF800426E396A146A750E02D8F1EF11F0136E3C
:102D0800156A166A186A176A1200010E3DEC16F069
:102D1800050E10EC17F03CEC17F00001D36F000E15
:102D28003DEC16F00001D35112007F96939E938AD2
:102D3800AC6AAC8AAC84AB6AAB8EAB88B86AB8862E
:102D4800670EAF6EB06AAE501200020E441802E170
:102D5800AFEF0FF0446A405006E147EC11F00C0E5B
:102D6800FDEC0FF0000C406A12000BD0D2C0D9FF66
:102D7800D3C0DAFFDF50C96ED24BD32BC7A0FED722
:102D8800D407D451F3E112000BD03CEC17F0D2C0B9
:102D9800D9FFD3C0DAFFDF6E0001D24BD32BD407A3
:102DA800D451F3E11200E0C0D2F0E1C0D3F0E2C0A8
:102DB800D4F0000E38EC15F0E9EC09F001018B5164
:102DC800FBE11200426A146A740E83EC16F0F1EC0F
:102DD80011F06492609401D0629462B4FDD7396AAC
:102DE8001200D26F0A0E0001D26103D0D251300F07
:102DF8001200100ED2613F0CD251570F12002F2A29
:102E0800000E3022312232224250D8A41200392A30
:102E18003950D8B4396812000001D26FC9509E9653
:102E2800C69ED2C0C9FFC6BE12009EB61200FDD70C
:102E3800C80E00D0E82EFDD70001D207D8A0D307CE
:102E4800D251D311F5E11200C80E00D0E82EFDD7FB
:102E580089EC16F0D46FD4A11200F6D7CD80CF0E2E
:102E6800CD169D80F28CD08E9F80F28E9E90CF0CD6
:102E7800C9509E96C96A9EA6FED7C9501200000185
:062E88000001C69A1200D1
:020000040020DA
:08000000FFFFFFFFFFFFFFFF00
:020000040030CA
:0E0000000032011EFF0081FF03C003E0034039
:00000001FF
