:0410000013EF08F0F2
:06100800548241EF13F0D9
:101018005480E0CFDCF0DCC0E0FF5490100006EF15
:1010280014F0009A112E11B41074116011371009C0
:10103800027D00040100C03209040000010202011F
:1010480003052400100104240202052406000105FA
:1010580024010001070581030800020904010002B8
:101068000A0000030705020220000007058202208B
:101078000000090402000102020104052400100115
:1010880004240202052406020305240100030705BF
:10109800830308000209040300020A00000407058C
:1010A8000402200000070584022000007A034E0095
:1010B80075006D00610074006F0020004C00610035
:1010C800620020004D0069006D006100730020007F
:1010D8005600320020005300700061007200740056
:1010E80061006E00360020004600500047004100B5
:1010F800200044006500760065006C006F007000F9
:101108006D0065006E007400200042006F006100F1
:1011180072006400000000000000000000000000F1
:1011280000000000000032034E0075006D006100F1
:1011380074006F002000530079007300740065008C
:101148006D00730020005000760074002E0020000F
:101158004C00740064002E00140346005000470041
:101168004100200055004100520054001403530070
:1011780050004900200046006C00610073006800C0
:101188001201000202000008192A021000010102DF
:07119800000104030904003B
:1011A000EED020EE05F00BD9DF5003E094928B9245
:1011B000E1D08B829482DED0010EE6EC13F0010EBA
:1011C000BEEC14F09F0E71EC15F0050E0001E12548
:1011D000DD6F000EE221DE6F030EDF6F38EC15F0DD
:1011E00020EE04F0ECD8F0D8EAD8030EDE6E000E44
:1011F000DD6EBEEC14F0000EE6EC13F0D3D0010E61
:10120000E6EC13F0010EBEEC14F0060E71EC15F0D6
:10121000000EBEEC14F0050E0001E125E76F000E94
:10122000E221E86FE96BEA6BEB6BEC6B2BD0010E04
:10123000BEEC14F0D80E71EC15F0E90E0001ED6F64
:10124000ED51D96EDA6A020ED926DF5071EC15F035
:10125000BFD8D92ADF5071EC15F0BAD8DF5071EC45
:1012600015F0000EBEEC14F004D0210EE82EFED7CF
:1012700000F0F9EC14F0E36FE3B1F7D7D890EB2B63
:10128000000EEC23E7C0D9FFE8C0DAFFDE50E95DCD
:10129000DE50EA59DE50EB59DE50EC59C8E3010E3E
:1012A000BEEC14F0040E71EC15F0000EBEEC14F060
:1012B000000120EE04F083D887D881D8000EDE6EBE
:1012C000DD6EE6EC13F06ED0010EE6EC13F0010ECD
:1012D000BEEC14F0060E71EC15F0000EBEEC14F02E
:1012E000010EBEEC14F0020E71EC15F0000120EEC0
:1012F00007F065D8DF5071EC15F0000120EE06F024
:101300005ED8DF5071EC15F0000120EE05F057D8E3
:10131000DF5071EC15F000012DD020EE02F04FD817
:10132000DE6ADD6A3FD0000EBEEC14F004D0210E60
:10133000E82EFED700F0F9EC14F0E36FE3B1F7D735
:10134000010EBEEC14F0040E71EC15F0000EBEECB4
:1013500014F0000EE6EC13F00DD0050EE125DD6F64
:10136000000EE221DE6F20EE02F029D8DF50DF6FA1
:1013700029EC15F020EE04F022D8DF6ACED720EE5B
:1013800001F01DD8DF50010A01E10BD7030A01E18A
:1013900013D7010A01E133D7070A96E0010AC3E037
:1013A000030ADBE0E1C0DDF0E2C0DEF020EE02F097
:1013B00006D8DF50050FDF6F000EC3EF13F0E151C9
:1013C000D926E251DA221200DF6A20EE02F0120082
:1013D0000001ED51D96EDA6A1200A094EC6BEC5169
:1013E000C2D8DE50DE100CE0EC51BDD8DECFE6F006
:1013F000DDCFE7F0E6C0D9FFE7C0DAFFDFBE78D087
:10140000EC51ABD8030EDE1803E1EC51A6D8DF6A2D
:10141000EC51A3D8DF506CE0EC519FD8020EDE18DF
:1014200011E1010EDD6FDE6BDF6BE06BEC51ABD8D1
:1014300018EC0EF0EC5197D8ADD8EC518ED8030EC5
:10144000DF6E56D0EC5189D8DE0452E1EC5191D8D0
:10145000200EDF6401D003D0EC518BD8DF50EB6F4E
:10146000EC5187D8EC51250DF3509E0FE16EE26AE6
:10147000E750E66FEB51E65DDF6EEC511CEC0CF0D3
:10148000EC51250DF3509B0FE16EE26ADECFE6FFD3
:10149000DDCFE5FFEBC0EAF0EC5181D8DF5003E08F
:1014A00007D06DD82BD8EA5105E0FBD768D826D8ED
:1014B000EA51FCE1EC515DD8DF500BE1200EEB1955
:1014C00004E1EC514AD8020E03D0EC5146D8030E89
:1014D000DF6E010EDD6FEC511CEC0CF066D8EBC03A
:1014E000E0F0EC5150D818EC0EF0EC513CD852D84A
:1014F000EC2B010EEC6573D7A084010C980FD96E0C
:10150000DA6ADECFE6F0DDCFE7F0E6C0D9FFE7C06C
:10151000DAFFEC51250DF3509B0FE16EE26AE6CF46
:10152000E8F0E5CFE9F0E8C0E1FFE9C0E2FFDFCF96
:10153000E7FFEC51250DF3509B0FD96EDA6ADE2AD6
:10154000000EDD22EC51250DF350980FD96EDA6AAA
:10155000DE2A000EDD22EA07000C250DF350970F5E
:10156000D96EDA6A1200250DF350A20FD96EDA6A2D
:101570001200250DF3509E0FD96EDA6A1200EC515D
:10158000250DF3501200250DF350950FD96EDA6A30
:10159000DF501200DDC0DEFFDEC0DDFF1200250DD2
:1015A000F3509F0FD96EDA6A1200DECFDEF0DDCF86
:1015B000DFF01200020152050DE150511F0B0AE14C
:1015C00000017F8F030E0201511903E1010E436EEA
:1015D00001D0436A5251D8A4120050511F0B020A85
:1015E000D8A4120054510F0BD8B4120054510F0B51
:1015F0001B6E050E1B60050C200E00019119D8A46E
:1016000012007F8F020154BF07D054510F0B59ECC9
:101610000EF08BD8820F06D054510F0B5FEC0EF0FA
:1016200084D8870FD96EDA6ADF501F6E1FB003D0DF
:10163000FB0E201602D0040E2012215054BF03D0FE
:1016400082D86A0F02D07FD8600FD96EDA6A20C0C4
:10165000DEFF21C0DDFF030E511914E156D8DFAEC5
:101660000BD054BF03D06AD8820F02D067D8870F3F
:10167000D96EDA6A0001DF8248D8000EDB8445D8D3
:10168000DB8E000C040E201A21503FD8DFAE0AD0AA
:101690003CD87F0EDF1639D8000EDB8C3BD863ECCC
:1016A00011F003D032D8000EDB8C040E201A21502A
:1016B0001FB203D02AD8DFAE13D0020154BF03D02B
:1016C0003DD8820F02D03AD8870FD96EDA6A00016E
:1016D000DF921BD83B0EDF161DD863EC11F003D050
:1016E00014D83B0EDF16020154510F0B1B6E1C6AFF
:1016F000530E1B241D6E0F0E1C201E6E1DC0D9FF25
:101700001EC0DAFFFE0EDF16FE0C20C0D9FF21C07E
:10171000DAFF1200146A050E136E20C015F021C006
:1017200016F0186A020E176E020CDECF20F0DDCF25
:1017300021F054510F0B1B6E1B50120054510F0B14
:101740001B6E1B50120054510F0B020DF350120070
:10175000116E115089D80DC0DFFF1150250DF350C7
:10176000940FD96EDA6A0EC0DFFF115083D80FC014
:10177000DFFF1150250DF350950FD96EDA6A10C0B6
:10178000DFFF11500CE1115057D8E00EDE6E020E53
:10179000DD6E11504BD8C00EDE6E020E0DD011045E
:1017A0000CE1115049D8A00EDE6E020EDD6E115014
:1017B0003DD8800EDE6E020EDD6E1150250DF35009
:1017C000AD0FD96EDA6ADE6A4B0EDE6E49D8250D92
:1017D000F350B10F3ED8B20F3CD8B30FD96EDA6ACE
:1017E000080EDF6E1150250DF350960FD96EDA6A90
:1017F000DF6A1A0E096E0E5044EC14F01E0E096ECC
:10180000105044EC14F0016A115010D81BD810503D
:1018100037EC0FF0115096EC0DF032D81150B3ECBC
:101820000AF01ED8ADEC0AF0DF6A000C250DF3506B
:10183000A60FD96EDA6A1200250DF350A40FD96EE7
:10184000DA6A1200DECF02F0DDCF03F0200E046E64
:10185000200CD96EDA6ADF6A1150250DF3501200A0
:10186000DE6ADD6A11501200250DF350920FD96E19
:10187000DA6A1200250DF350930FD96EDA6A12005E
:1018800001C0DEFF02C0DDFF12000001910507E18B
:1018900064BA05D0626A60806088020E916F62B49B
:1018A00060A403D0629447EC15F064A202D0A19426
:1018B000120062B060A006D0AAEC0DF0A084040E65
:1018C000916F629062B860A802D0E8EC14F062AC4C
:1018D00013D060AC07D0146A730E136E156A50D81B
:1018E00063EC11F0629C64EC15F03F5001E03F06A0
:1018F0003F5002E167EC12F062BA60AA02D079ECC4
:1019000014F062B260A209D07F0E146E1368156ADB
:1019100037D863EC11F00F015F6B040E0001916189
:1019200002D0A194040C60A629D0246A62A626D015
:1019300063CF52F05230E832E8320F0B416E6296BC
:1019400052B403D04150820F02D04150870FD96E5C
:10195000DA6A0001DF70415003E1A1EC12F00AD015
:10196000146A720E136E520E156E166A186A176A92
:1019700063EC11F0242A030E2464D8D7A19412003A
:10198000166A186A010E176E010C800E02015019BA
:10199000D8A41200C00E00017F6F44D0880E000151
:1019A0007C6F110E7D6F816B120E806F120C525185
:1019B0005DE15251020D350EF324F66E100E4DD836
:1019C000020E00013ED8F76403D00800F55001D0A4
:1019D00032D80001806F030E34D8F76403D00800BA
:1019E000F55001D028D80001816F12003FD0050EBC
:1019F00052613CD05251020D2B0EF324F66E100EA4
:101A00002CD87CC0F6FF7DC0F7FFF86A020EF764A1
:101A100003D00800F55001D00ED80001806F816B13
:101A2000120024D002015351010AB8E0030ABFE0BA
:101A3000010ADDE01BD0F6CFE1FFF7CFE2FFE75070
:101A400012007C25016E000E7D21026E01C0F6FFA2
:101A500002C0F7FFF86A020E1200F420F76E0900C8
:101A6000F5CF7CF00A00F5CF7DF0120000017F6B0E
:101A70001200ED6F000160D8DF6AED5157D8DE50DB
:101A8000DE100CE0ED5152D8DECFE9F0DDCFEAF008
:101A9000E9C0D9FFEAC0DAFFDFBE45D0ED5146D834
:101AA00052D8E851E65C05E2ED5140D84CD8E750F9
:101AB000E86F42D8DF6A22D03FD8DF50E96FED519E
:101AC00016EC0CF0DECFEAF0DDCFEBF0E951EA25C1
:101AD000D96E000EEB21DA6EED51250DF350960F05
:101AE000E16EE26AE750EC6FEC51E625E16E000E24
:101AF000E721E26EDFCFE7FF1FD8DF2A1DD8E851CC
:101B0000DE5CDAE3DD6BED5116EC0CF0D5EC0AF09F
:101B1000200EE06FED51C3EC0AF018EC0EF0ED5121
:101B200005D8CAEC0AF008D8DF501200250DF35092
:101B3000A00FD96EDA6A1200ED51250DF350960F01
:101B4000D96EDA6A120010EE01F0DE50E126DD50A7
:101B5000E22212005DD82AEC10F0D3EC14F071EC04
:101B600014F0096A095048D8092A130E0964FAD7F3
:101B70002FD8096A09505FEC0EF0DE6ADD6A095061
:101B800059EC0EF0DE6ADD6A095048D809504BD88E
:101B9000092A040E0964EED7080E000100D0606F18
:101BA000020E616F160E0F01536F020E0201036FDA
:101BB000500E026F080E016F040E006F008F536A03
:101BC0002F6A306A316A326A396A0001916B1200F9
:101BD000648C0F015C6B6498649C629600017F6B5F
:101BE000776B786B796B62B6F8D7010E3D6E3C6E01
:101BF0003B6A3A6A426A1200040D000EF324D96E61
:101C0000020EF420DA6EDE6ADE6ADE6ADD6A120037
:101C1000A0940F015F6B626A536B1200870FD96E3D
:101C2000DA6ADF6A1200820FD96EDA6ADF6A12009E
:101C3000E36F0001DD5104E0E35181EC0FF003D0CC
:101C4000E3518AEC0FF0D96EDA6ADECFE4F0DDCF33
:101C5000E5F0E451E51103E1DD6BDE6B120020EEEF
:101C600002F042D8DEC0DEFFDFC0DDFF20EE01F073
:101C70003BD8E0C0DFFF33D8400EDF1630D8000E6F
:101C8000DB862DD8DB8EDD5105E0E35118D81DD859
:101C9000600F04D0E3510DD818D86A0FD96EDA6AF4
:101CA000E1C0DEFFE2C0DDFFE4C0DDF0E5C0DEF054
:101CB0001200020DF3506A0FD96EDA6A1200020D9B
:101CC000F350600FD96EDA6A1200DECFE1F0DDCF9B
:101CD000E2F0040EE11BE351020DF3501200E4C0E8
:101CE000D9FFE5C0DAFF1200E451D926E551DA2226
:101CF0001200020150511F0BE80601E0120050399A
:101D0000E832030BE80601E01200026A025034ECEC
:101D10000CF0DE50020154192EE002503AEC0CF0A7
:101D2000DE50541932E127D03AD8816B080E806F0B
:101D30007F811FD034D81DD056C278F057C279F0B9
:101D400029D80001746F7A6B7B6B778F1ED022D8F5
:101D5000016E01C07CF000017D6B816B070E806F0E
:101D6000C10E7F6F12D00250250DF350A80F1CD862
:101D700000017F8F0AD05151D7E0010ADBE0210A30
:101D8000DBE0010AE4E0030AEEE0022A010E02644D
:101D9000BDD7010C0250250DF350AD0F1200460EB9
:101DA00000017C6F7D6B1200D96EDA6A52C2DFFFD0
:101DB000120020EE01F09CEC12F0DF50026E025097
:101DC000785D000E795902E278C002F00250785F27
:101DD000000E795B016A0DD0580E0124D96EDA6AC3
:101DE000020EDA227451E16EE26ADFCFE7FF742B54
:101DF000012A0250015CF0E37851791112E020EEE3
:101E000001F019D81DD817D82DD88EEC14F0DFBCEE
:101E100004D023D8480E19D8000C1FD8080E15D8A6
:101E2000000CBCEC10F0040E10D8779F3E50D8B4D4
:101E300067EC12F012003550D9263650DA22120023
:101E4000080EDF6E20EE02F0080CDF6E35C0D9FF01
:101E500036C0DAFF000EDB8E000C35C0D9FF36C06D
:101E6000DAFF1200580EDE6E020EDD6E020C076EF7
:101E7000015003E0075045D802D007504BD8D96E27
:101E8000DA6ADECF08F0DDCF09F00850091003E16F
:101E9000016A026A120020EE02F040D802C0DEFFA2
:101EA00003C0DDFF20EE01F039D804C0DFFF2DD8DC
:101EB000400EDF162AD8000EDB8627D8DB8E0150B5
:101EC00006E007505FEC0EF012D8600F05D0075007
:101ED00059EC0EF00CD86A0FD96EDA6A05C0DEFF35
:101EE00006C0DDFF08C001F009C002F01200DECF1D
:101EF00005F0DDCF06F0040E051A0750020DF35071
:101F00001200020DF350600F120008C0D9FF09C083
:101F1000DAFF1200020DF3506A0F12000850D926A2
:101F20000950DA221200080E016E000181510DE104
:101F3000080E805D0AE280C001F0455002E1010E0A
:101F400003D0450402E1020E456E0150805F000E91
:101F5000815B20EE01F036D801C0DFFF580E336EF2
:101F6000020E346E7FB11AD00BD07CC0F6FF19D8A8
:101F7000F76403D00800F55002D01BEC0DF01AD81E
:101F80000150F3E112007CC0F6FF0BD8F76403D0D8
:101F90000800F55002D01BEC0DF00CD80150F3E115
:101FA00012007DC0F7FFF86A33C0D9FF34C0DAFFF2
:101FB000020E1200DF6E00017C4B7D2B334A342A67
:101FC000010612006051D9266151DA221200000187
:101FD0007F8F40D8D3EC14F0016A020E026E046ABF
:101FE000036A066A500E056ED3EC14F0648C1B6A0B
:101FF0001B500EEC0EF01B5013EC0EF01B2A040EBF
:102000001B64F6D74E0E016E026A046A036A066A02
:10201000040E056ED3EC14F0649C080E0001606F92
:10202000020E616F000E376E020E1ED852C253F0C0
:10203000535003E1100E916F100C146A010E136ED1
:10204000530E156EC0EC0CF063EC11F0200E000185
:10205000916F200C540E016E0F0E026E046A036A1B
:10206000066A040E056E040C386E37C035F038C0B1
:1020700036F012008D5103E1050E8C5D2DE3000E4C
:10208000F16F010EF26FF1C0D9FFF2C0DAFF7E0EE0
:10209000DE18D8A4120020EE02F0F151D926F25138
:1020A000DA22DECFEEF0DDCFEFF0050EEE27000EE8
:1020B000EF238C51EE192AE18D51EF19D8A41200AB
:1020C0009751D8A41200F1C0E1F0F2C0E2F0D0ECD8
:1020D00008F08C6B8D6B1200000E8C25E66F010EE4
:1020E0008D21E76F8C518508E86F000E39EC0DF0FB
:1020F000F06FF051D8B412007E0E01010019D8A47F
:1021000012000001F0518C27000E8D2312006498FC
:1021100000017FBF14D077AF09D0020E446E3A5051
:1021200002E170EC13F03C6A3D6A120025D80C0EF7
:1021300025EC0FF052EC11F0040E4AEF11F0020101
:1021400050AF0DD0010E446E3B5002E170EC13F025
:102150003C6A3D6A3E50D8A4120067EF12F0020EAE
:10216000446E0AD8040E25EC0FF03C6A3D6A3E50DE
:1021700002E167EF12F0120020EE01F03550D9268F
:102180003650DA22080EDF6E20EE02F03550D926E6
:102190003650DA22500EDE6E020EDD6E35C0D9FFEB
:1021A00036C0DAFF020C02015039E832030B1EE0A0
:1021B000120000017F8F080E916F080C530E000172
:1021C0007C6F34D054514E0F226E22C07CF000013F
:1021D0002DD000017F8F020154514E0FD4EF0EF02D
:1021E000146A020EF3EC14F063EF11F0515102E1A6
:1021F000EAEF11F0010A02E1DAEF0AF0020A02E165
:10220000DAEF0AF0060AD5E0030A02E1C5EF0CF0A6
:10221000010AE6E00F0AD2E0010A02E1E7EF0FF05F
:10222000030AD0E0010AD5E0070A12007D6B7F8126
:10223000010E806F7F8F010C35D8000EDFBC010EC0
:10224000026E040E601B6151080E91190BE1020130
:1022500052517F0B0F015C6F5C51100ED8B4040E0D
:102260000001916F440412E128D821D893EC0FF0BB
:10227000020E451803E116D8040E0CD0025003E1FB
:1022800011D8480E07D00ED8080E04D077BF779F1C
:10229000446A1200DF6E60C0D9FF61C0DAFF000E31
:1022A000DB8E000C60C0D9FF61C0DAFF1200DA22B9
:1022B000580EDE6E020EDD6E020C20EE02F0605152
:1022C000D9266151120013C00AF014C00BF015C0DA
:1022D0000CF016C00DF017C00EF018C00FF0D9ECBE
:1022E00012F013D00D6A010E0E6E0F6E020E106EFC
:1022F000000EA8EC0BF0020E0D6E030E0E6E0F6EAC
:10230000040E106E010EA8EF0BF013C019F014C0EC
:102310001AF01A5004E07F0AD8A4120017D01950FE
:10232000010AE0E0030AD8B41200010A02E179EFE1
:102330000EF0060AD8B41200770AD8B41200010AC7
:10234000D8B41200070AD8A4010A1200191C1200FE
:102350009EAA16D0ABA207D000018E6BAB98AECF71
:1023600085F1AB880CD01F0E00018E6108D0850E60
:102370008E25D96EDA6A010EDA22AECFDFFF8E2B00
:1023800000018E510CE0BC510AE1850EDD6F010E9B
:10239000DE6F8EC0DFF0010EC3EC13F08E6B8F5139
:1023A000905D0CE2ACA21200A50E9025D96EDA6AFF
:1023B000010EDA22DF50AD6E902B1200A50EE66FF3
:1023C000010EE76F200EE86F010E39EC0DF08F6FF4
:1023D000906B12000201586B596B25D000017F8F62
:1023E000430428E10201588325D000017F8F22D0C9
:1023F00000017F8F020154BF04D0A3EC0BF06A0FE1
:1024000003D0A3EC0BF0600FD96EDA6ADECF01F0D7
:10241000DDCF02F019D8DFAE0DD016D8DFA40AD078
:10242000010E586F07D050511F0BD8E0010ADDE0B4
:10243000030ADEE000017FAF1200580E7C6F020E2F
:102440007D6F7F81806F020C01C0D9FF02C0DAFF6F
:102450001200066E076A020E086E0150026E036AD1
:10246000D890023603360650046E056A24D802500E
:102470000426035005221FD80450072605500822C1
:1024800021D8DF9E015004E106508AEC0FF003D002
:10249000065081EC0FF0D96EDA6A07C0DEFF08C083
:1024A000DDFF10D8DF9C20EE04F00750D92608503D
:1024B000DA22DF8C1200D89004360536D890043624
:1024C0000536120007C0D9FF08C0DAFF12003D50E0
:1024D000D8A41200010E3D6E3C50D8A41200010E8B
:1024E0003C6E020E44180BE1000120EE01F0E2EC1C
:1024F0000FF0DF6A52EC11F0480E4AEF11F044047D
:10250000D8A41200406A20EE01F016D820EC0FF09B
:1025100013D8500EDE6E020EDD6E8EEC14F0040E3B
:10252000DF6E8EEC14F0000EDB8E010E406EBCEC04
:1025300010F0800EDF6E800C3750D9263850DA222A
:1025400012002D0E3F6E52C023F0FD0E23162AE11D
:10255000D89052303F0B040D000EF324376E020E5C
:10256000F42034EC10F0040E351A36508EEC14F0D2
:10257000DF30E8320F0B0D0A02E019EF15F0500EB4
:10258000016E020E026E20EE02F09CEC12F0DECF25
:1025900003F0DDCF04F0066A080E056E25EC14F09A
:1025A0009DEF13F05250FD0B040AD8B41CEC11F04F
:1025B0001200050E0A180B10D8A41200126A12504D
:1025C00096EC0DF0DE500C1813E1DE500D1810E102
:1025D000016A125016EC0CF022EC0CF01250C3EC15
:1025E0000AF037EC0FF0125096EC0DF040EC0CF0C6
:1025F0001250B3EC0AF0DE500C180BE1DE500D184F
:1026000008E11250ADEC0AF0DF6A1250B9EC0AF0A2
:10261000DF6A122A010E1264D2D7010C08EC0EF008
:10262000540E0001DD6F0F0EDE6FE06BDF6BE26BAF
:10263000040EE16FA9EC14F071EC14F00001E56BED
:10264000E551FCEC0DF0E52B130EE565F9D7E8EC50
:102650000DF0E56BE5515FEC0EF0DE6ADD6AE551E9
:1026600059EC0EF0DE6ADD6AE5510EEC0EF0E55134
:1026700013EC0EF0E52B040EE565ECD7080ECFEF5A
:102680000DF0E1CF25F0E2CF26F0D9CF27F0DACF59
:1026900028F0F3CF29F0F4CF2AF0F6CF2BF0F7CFC4
:1026A0002CF0F8CF2DF0F5CF2EF0A1A403D045ECFF
:1026B0000CF0A1942EC0F5FF2DC0F8FF2CC0F7FF41
:1026C0002BC0F6FF2AC0F4FF29C0F3FF28C0DAFFB1
:1026D00027C0D9FF26C0E2FF25C0E1FF54921100B8
:1026E0003B6A3A6A020E441810E120EE01F01BEC3E
:1026F0000FF020EC0FF01BEC0FF032EC0FF02DEC94
:102700000FF0480E25EC0FF0000C00018051020183
:10271000565D000181510201575904E256C280F012
:1027200057C281F093EC0FF05DEC11F057EC11F013
:1027300052EC11F0480E4AEF11F0456A3E6A3B6ACE
:102740003A6A406A446A52EC11F017D852EC11F020
:1027500014D82DEC0FF07F0EDF167F6B806B816B32
:10276000776B786B796BD3EC10F0146A030EF3EC93
:1027700014F063EC11F087EF10F07F0EDF16040EFB
:10278000601B61511200E06FA0940001E051ADECBC
:102790000AF0DF5019E1E051250DF350980FD96E82
:1027A000DA6ADDC0DEFFDEC0DDFFE051B9EC0AF021
:1027B000DFC0DFFFE051CFEC0AF0010EDF6EE05129
:1027C000ADEC0AF0010EDF6EA08412000001DE6F96
:1027D000DE5114E07F927F94949E9388939C94940E
:1027E0008B84C79EC78CC86AC698C696C694C68294
:1027F000C6909D96C68A010E7DEF15F08DEC15F002
:102800008B84948E9388938C9484120001EE00F054
:10281000C50EEE6AE806FDE100EE60F07C0EEE6AA1
:10282000E806FDE100EE2FF0250EEE6AE806FDE178
:1028300002EE80F0800EEE6AE806FDE154905492BC
:10284000000EF86E000193EF14F003C009F004C00D
:102850000AF001C007F002C008F00ED009C0D9FF8D
:102860000AC0DAFF07C0E1FF08C0E2FFDFCFE7FFE1
:10287000094A0A2A074A082A0506D8A00606052892
:10288000EDE10628EBE112000C6E09A404D0016A08
:102890000C5029EC12F009A205D0010E016E0C506B
:1028A00029EC12F0530E0C240A6E0B6A0F0E0B2249
:1028B0000AC0D9FF0BC0DAFF09C0DFFF0F0C91512E
:1028C000D8A41200646A606A0CD8D08EA284A08456
:1028D000F28E01D0648664A6FDD7010E0001916FCF
:1028E000010C160E616E9F0E0F015B6F7B0E606E0A
:1028F0007B0C0F0153A110D011D8800EDE180BE114
:1029000052EC11F0840EDE1806E108D80C0EDF6ED2
:1029100005D8000EDB8E5391629A120037C0D9FFA2
:1029200038C0DAFF12008FEC15F00EEC13F05FECFC
:1029300014F056EC15F009EC15F01F0E9165FDD75B
:1029400064B2FBD73AEC10F0A8EC11F0EDEC09F012
:10295000F4D7DDC0E3F0DEC0E4F008D0E3C0D9FF77
:10296000E4C0DAFFDFC0DFFFE34BE42BE107D8A0D0
:10297000E207E129F3E1E229F1E112000001DD6F54
:10298000DD510BE08B84210EE82EFED700F08B94F6
:10299000210EE82EFED700F012008B84210EE82EC7
:1029A000FED700F0120001C007F002C008F008D006
:1029B00007C0D9FF08C0DAFF03C0DFFF074A082AB3
:1029C0000506D8A006060528F3E10628F1E1120065
:1029D000608462986482010E426E396A146A750ED0
:1029E00002D863EF11F0136E156A166A186A176A37
:1029F0001200010EBEEC14F0050E71EC15F086EC21
:102A000015F00001DE6F000EBEEC14F00001DE5187
:102A100012007F96939E938AAC6AAC8AAC84AB6AB0
:102A2000AB8EAB88B86AB886670EAF6EB06AAE5030
:102A30001200020E441802E1D9EF0EF0446A405031
:102A400006E1BCEC10F00C0E25EC0FF0000C406A17
:102A500012000BD0DDC0D9FFDEC0DAFFDF50C96E37
:102A6000DD4BDE2BC7A0FED7DF07DF51F3E11200FD
:102A70000BD086EC15F0DDC0D9FFDEC0DAFFDF6ECB
:102A80000001DD4BDE2BDF07DF51F3E11200426A6C
:102A9000146A740EF3EC14F063EC11F06492609419
:102AA00001D0629462B4FDD7396A1200948E938883
:102AB0009484938C9480948A94928B92640E7DEC8F
:102AC00015F08B82948212002F2A000E30223122C0
:102AD00032224250D8A41200392A3950D8B4396869
:102AE00012000001DD6FC9509E96C69EDDC0C9FF71
:102AF000C6BE12009EB61200FDD7DD6FC80E00D014
:102B0000E82EFDD70001DD2FF9D71200C9509E969F
:102B1000C96A9EA6FED7C9501200C69A12001200BA
:020000040020DA
:08000000FFFFFFFFFFFFFFFF00
:020000040030CA
:0E0000000032011EFF0001FF03C003E00340B9
:00000001FF
