:100000007FEF07F0B7EF03F004EF08F05AEC00F0D1
:10001000FF0000F000F012000CEF08F018EF00F005
:10003000F26AFC6AFCEC07F0040057EC03F07EEC7B
:1000400000F07DEC00F0DEEC01F0F6D760CF2BF095
:10005000040E606E62986482A194A08474EC00F037
:10006000A0942B50601212003D6A04D83C6A010E25
:100070003B6E010C0D680E680F681068120005D009
:1000800079EC00F04306D8A0440643504410F8E150
:1000900012006FEC00F06492609401D0629462A44C
:1000A0001200FCD7436E4304D8A41200C4EC07F03E
:1000B00034EF00F06492646A446843683FEC00F0F7
:1000C0003E6A12002D0401E1120064A6EDEC07F077
:1000D000120064B65AEC00F02D6A62EF00F0030ED5
:1000E000446E436A3FEF00F00300A1A4D0B61200B3
:0E00F000FBD7040012001200120012001200D2
:1003000000B6046134034D006900630072006F00A1
:1003100063006800690070002000540065006300FD
:1003200068006E006F006C006F00670079002000AD
:1003300049006E0063002E000902290001010080BF
:10034000320904000002030000000921110100012C
:10035000221D00070581034000010705010340003D
:100360000126034800490044002000550053004284
:1003700000200042006F006F0074006C006F00618D
:10038000006400650072000600FF0901A101190167
:100390002940150026FF00750895408100190129A4
:1003A000409100C01201000200000008D8043C0087
:0B03B000010101020001040309040028
:1003BC00060E3E18D8B464B212003D5001E04BD189
:1003CC0002010CBF1200A10E436E400E446E8EEC67
:1003DC0006F0010E3D6E3A6A3A50600FD96EDA6A39
:1003EC00DF6A3A2A3F0E3A64F7D73F0C020110BF7E
:1003FC001200020E0001606F3A0E616F010E626F07
:10040C00636F646B100E656F666B676B686B300E99
:10041C00696F6A6B6B6B030E6C6F6D6B6E6B300E72
:10042C006F6F706B0E0E716F726B736B746B040E5F
:10043C00756F766B776B200E786F796B080E7A6F11
:10044C007B6B7C6B7D6B7E69020E7E6F7F6B806B32
:10045C00F00E816F826B836B010E846F856B866BE4
:10046C008769A50E996F600E436E400E446E61EC69
:10047C0006F03D6A1200010E3B6EA251FAE13B6A96
:10048C00F8D7276A400E266E79EC00F0F86A26C081
:10049C0048F027C049F0D89049324832D8904932B8
:1004AC0048324850F76E2640E842C00BF66E940E68
:1004BC00A66EB50ED9EC07F057EC03F0264A272AA6
:1004CC002704E2E33A6A3AC0A9FFA868040EA66EB4
:1004DC0057EC03F0B50ED9EC07F03A3EF4D7200EEA
:1004EC00F86EF76AB8EC04F0D9EC07F0C2D7300E0E
:1004FC00A41905E13B50BDE163EC07F0BAD7F00E4F
:10050C00A41903E196EC07F0B4D70D280EE10E28E0
:10051C000CE10F280AE1102808E1A2C00DF0A3C0DD
:10052C000EF0A4C00FF0A5C010F00D50A219A1E15F
:10053C000E50A3199EE10F50A4199BE11050A51960
:10054C0098E13A6A14D0A651E1083A24D96EDA6AD5
:10055C00000E3C2499D83C2A0D2A000E0E220F22A4
:10056C001022100E3C1802E111EC04F03A2A0001A2
:10057C00A6513A5C01E37DD7E6D711EC04F03AECD6
:10058C0000F077D7070E606FA2C061F0A3C062F0D5
:10059C00A4C063F0A5C064F0A6C065F0A2C01DF0B5
:1005AC00A3C01EF0A4C01FF03A6A1BD0F00EA41911
:1005BC0009E1A2513A24A96EA66AA6806CD8A8CFEC
:1005CC00DFFF0ED01DC0F6FF1EC0F7FF1FC0F8FFE7
:1005DC0062D80800F5CFDFFF1D2A000E1E221F2255
:1005EC003A2AA6513A5CE2E3020110BF12003BD753
:1005FC0069EC04F03ED70C0E606F010E626F020EB8
:10060C00616F160E5EEC07F0F5CF63F00A00F5CFC4
:10061C0064F0060E656F100E666F676B686B600E8C
:10062C006A6F0D0E696F400E6B6F000E6C6B6D6B0D
:10063C006E6B6F69706971697269736B74697569D6
:10064C00766B7769786979697A697B697C69CCD7CB
:10065C0006EC00F00ED70001A151020A01E1C6D64A
:10066C00010A01E108D7070A01E10BD7010A01E1F0
:10067C003ED7030A82E0010A85E00F0AE9E0010A8D
:10068C00B7E0050AB8E0F5D6E16EE26A010EE222A7
:10069C00DFCFE7FF1200A651A0083A24D96EDA6A20
:1006AC00120062EC00F03E5001E1120062B449EC21
:1006BC0000F064B2120062B022EC07F062B826ECD3
:1006CC0000F0030E3E6001D0030C336A62A61200E8
:1006DC00635063CF46F07C0E46162AE163B202D01B
:1006EC00226A02D0040E226E020E236E629622C083
:1006FC00D9FF23C0DAFFDF30E8320F0B0D0A20E1FF
:10070C002C6A23D8DECF46F0DDCF47F046C0D9FFA8
:10071C0047C0DAFF2C50010F1FD817D8DE2A000E65
:10072C00DD222C2A070E2C64ECD7ADEC07F008D098
:10073C00040E631804E1629601EC07F001D0629696
:10074C00332A030E3364C2D7030C20EE02F022507E
:10075C00D9262350DA221200E16EE26ADFCFE7FFDE
:10076C00120001501F0BE80601E01200055001E0D9
:10077C001200060E021814E01AD0020E316E4A0E48
:10078C003FD8256A090E0AD0020E316E420402E1EE
:10079C00870E36D842040AE1256A1D0E246E06D057
:1007AC000450210AEAE0030AEFE0010A2E82013824
:1007BC00E832030BE80614E01200020E316E400E14
:1007CC00146E24D0020E316E04C040F0020C020EE6
:1007DC00316E3F0EF5D7020E316E03C03FF0020CA6
:1007EC000250010AD8B41200030AE7E0010AEFE054
:1007FC000A0AD8B41200030AE5E0010AECE0120080
:10080C00146E1450D8A4030E156E1200156A2E9295
:10081C00010E246E010C3C500D5C446E000E0E5803
:10082C00456E000E0F58466E000E1058476E445021
:10083C00176E45C018F046C019F0F86A18C0F7FFDB
:10084C0017C0F6FF376AF6500F0B366EF00EF61621
:10085C00386A365011E13C500CE0000E3724D96E4A
:10086C00DA6A010EDA22DF50F56E0D00372A3C06EB
:10087C0006D0F5680D0003D0F5680D003606382A51
:10088C000F0E3864E6D70A001BD8D9EC07F0386A8B
:10089C0013D0000E446E010E456E37504426000EE8
:1008AC00452238504424D96E000E4520DA6E000ED5
:1008BC0038244AEC03F0382A3C50385CEAE3120046
:1008CC00A40EA66EB50C1A6A100E1B6E1C6A396A41
:1008DC001AC0F6FF1BC0F7FF1CC0F8FF3CD808007D
:1008EC00F5CFDFFF1A2A000E1B221C22392A3F0EDD
:1008FC003964EED70D0E0101066F600E076FF86AB2
:10090C00100EF76E2FD8D9EC07F03F0E1A6E100EA2
:10091C001B6E1C6A3F0E396E1CC0F8FF1BC0F7FF24
:10092C001AC0F6FF18D8DF50F56E0C0039C044F031
:10093C000F0E441606E179EC00F066EC04F0D9ECED
:10094C0007F01A06000E1B5A1C5A0A00395001E116
:10095C0012003906E1D7000E3924D96EDA6A010E7D
:10096C00DA221200F66A940EA66EB50C03040BE1A3
:10097C0001501F0B08E1010E316E030E021802E14B
:10098C002E8001D02E900350D8A4120001501F0BC2
:10099C00020AD8A4120005500F0BD8B4120029D8A3
:1009AC00436A020E446E040E4326000E4422F3509A
:1009BC004326F450442223D84324116EF45044208F
:1009CC00126E030E021805E10FD8040EDF6E0CD860
:1009DC001CD005AE04D008D8400EDF6E400C04D8F5
:1009EC00080EDF6E01D811D011C0D9FF12C0DAFF8A
:1009FC001200010E316E05500F0B080D1200010E86
:100A0C0005AE000E040DF3501200000EDB8E000C30
:100A1C00315010E11DEC07F0096E2F0405E1010EB9
:100A2C00BBEC06F02F6A1200000EBBEC06F0010EB8
:100A3C002F6E010C01AE1BD0010E326E2450075CE0
:100A4C002550085804E207C024F008C025F05DECDE
:100A5C0005F0480E096E010EBBEC06F0000EBBEC67
:100A6C0006F0240E02010A6F020E0B6F1CD0020E50
:100A7C00326E040E096E0750081002E1480E096E22
:100A8C002F0405E1010EBBEC06F02F6A05D0000E19
:100A9C00BBEC06F0010E2F6E07500810D8A4120004
:100AAC000201096B00D0480E086F088F480C080E25
:100ABC002A6E25500DE1080E245C0AE224C02AF0AF
:100ACC00305002E1010E03D0300402E1020E306E10
:100ADC002AC009F22A50245E000E255A240E116EEB
:100AEC00020E126E2EA21ED00DD014C0F6FF1DD811
:100AFC00FAEC04F0020EF76403D00800F55001D0B4
:100B0C0018D81DD82A50F1E1120014C0F6FF0DD8E8
:100B1C00FAEC04F0020EF76403D00800F55001D093
:100B2C0008D80DD82A50F1E1120015C0F7FFF86A69
:100B3C001200F6CFE1FFF7CFE2FFE7501200DF6EB5
:100B4C00114A122A144A152A2A0612000138E832D0
:100B5C00030B18E01200010E316E040E3E6E040CF5
:100B6C00010E316E420E146E0CEF04F02CD8456E53
:100B7C0045C014F00CEF04F026D8D96EDA6A03C025
:100B8C00DFFF1200025002E12AEF06F0010A02E137
:100B9C00BCEF04F0020A02E1BCEF04F0060ADBE051
:100BAC00030A02E1EEEF05F0010AD8B412000F0AB5
:100BBC00D7E0010A02E1DFEF06F0030AD7E0010AF1
:100BCC00DBE0070A1200010E316E0550410F1200D6
:100BDC00800E011830E01200010E316EA40E06ECEE
:100BEC0004F0120E09D003502DE1010E316E380EB7
:100BFC0006EC04F0256A290E246E24D0010E316E09
:100C0C000350010F436E43C0F6FF030EF76E09004D
:100C1C00F5CF14F0156E14C0F6FF15C0F7FFF86A87
:100C2C00020EF76403D00800F55002D09FEC05F0DB
:100C3C00246E256A07D00450010ACEE0030AD3E0E3
:100C4C00010ADCE02E821200246B256B23D0010EEE
:100C5C00316E2EB0248325D0010E316E22D0FFECE4
:100C6C0004F0436A020E446E040E4326000E442226
:100C7C00F3504326F450442205EC05F04324116E46
:100C8C00F4504420126EFAEC04F0DFA40AD0010EEA
:100C9C00246F07D001501F0BDAE0010ADDE0030AD4
:100CAC00DEE03104D8A41200240E146E020E156E70
:100CBC002E92246E020C400E446401D0446E466A9F
:100CCC000DD043504624D96EDA6A6C0E4624E16E80
:100CDC00E26A020EE222DFCFE7FF462A4450465C6E
:100CEC00F0E344C011F2400E0201101710BD03D006
:100CFC00456A452A01D0456A453A454645460201B2
:100D0C0010514518BF0B4518106F1087108F12002B
:100D1C00286A0CBF120044500D5D02E20DC244F073
:100D2C00286A0BD02C0E2824D96EDA6A020EDA222D
:100D3C0043502824B2EC03F0282A4450285CF2E3F8
:100D4C00400E0D6F0C170CBD03D0456A452A01D01F
:100D5C00456A453A4546454602010C514518BF0BBC
:100D6C0045180C6F0C870C8F1200436E080E0A6E20
:100D7C001C0E0B6E020E0C6E435006E1140E0B6E25
:100D8C00020E0C6E206A03D0040E206E020E216E31
:100D9C000BD809C0DEFF0AC0DEFF0BC0DEFF0CC0A3
:100DAC00DEFF02D8DF8E120020C0D9FF21C0DAFF8F
:100DBC001200010E316E0F0116D8296A2950410F0D
:100DCC00D96EDA6ADF6A292A2950F8E003C042F0AA
:100DDC00425052EC00F0035003E1050E3E6E050C40
:100DEC00060E3E6E060C546B556B566B576B586B60
:100DFC00596B5A6B1200040E3E1808E103C05CFFDD
:100E0C000F015C51050ED8B4030E3E6E3204D8A40B
:100E1C0012005DEC05F0020E301802E108D8040C4B
:100E2C000201480E08BD080E086F088F1200040E50
:100E3C000201086F088F040C030E3E6E0F015B6BF2
:100E4C00626A7B0E606E5C6BF9EC06F0160E536FEB
:100E5C00648C03D0629679EC00F062B6FBD7649C8C
:100E6C006498040E096E000EBBEC06F0010E2F6E9A
:100E7C002E6A426A000E52EF00F080A618EC00F0C9
:100E8C00060E16D80D0EF5180FE10900600EF518B8
:100E9C000BE1F66A100EF76E0900F52803E1090064
:100EAC00F52802E000EF08F018EC00F000EF00F07D
:100EBC00F66E100EF76E0900100C300EF86EA35182
:100ECC00F76EA2C0F7FF356A0FD0A651E1083524A2
:100EDC00D96EDA6ADF50F56E0C00C40EA66EB50E34
:100EEC00D9EC07F00900352A0001A651355CEDE379
:100EFC00120001EE00F0400EEE6AE806FDE100EE95
:100F0C0060F0820EEE6AE806FDE100EE01F0420EA2
:100F1C00EE6AE806FDE1000EF86E000143EF07F003
:100F2C00346A10D0A2513424A96EA651E10834249D
:100F3C00D96EDA6ADF50A86E040EA66EB50ED9EC27
:100F4C0007F0342A0001A651345CECE312000201D4
:100F5C00086B306A00AF02D0006B2F6A04AF03D06D
:100F6C00046B010E2F6E326A316A246A256A64980A
:100F7C00ACEC05F002EC00F00EEF05F0286A1E0E4A
:100F8C000F01546F400E02010D6F2C0E0E6F020EEE
:100F9C000F6F080E0C6F0C8F6C0E126F020E136F0E
:100FAC00400E106F400C436EF29E7DEC00F0B50EBF
:100FBC00431804E0030ED36E0300FED7550EA76E44
:100FCC00AA0EA76EA682A6B2FED7A69412002D0476
:100FDC0002E15AEC00F0646A150E616E606A648678
:100FEC0022EC07F0010E3E6E2D6A120034EC00F07C
:040FFC0069EF00F0A9
:021006000D607B
:020000040020DA
:08000000FFFFFFFFFFFFFFFF00
:020000040030CA
:0E0000000032011EFF0081FF03C003E0034039
:00000001FF
